:020000040800F2
:10000000C82A0020F1010008051A00088D18000810
:10001000011A0008DB0D000853280008000000004A
:10002000000000000000000000000000AD200008FB
:10003000310F0008000000008D1E00089921000803
:100040000B0200080B0200080B0200080B0200085C
:100050000B0200080B0200080B0200080B0200084C
:100060000B0200080B0200080B0200080B0200083C
:100070000B0200080B0200080B0200080B0200082C
:100080000B0200080B0200080B0200080B0200081C
:100090000B0200080B0200080B0200080B0200080C
:1000A0000B0200080B0200080B0200080B020008FC
:1000B000FD2100080B0200080B0200080B020008DB
:1000C0000B0200080B0200080B0200080B020008DC
:1000D0000B02000861250008012600080B02000839
:1000E0000B0200080B0200080B02000800F002F8E7
:1000F00000F06FF80AA090E8000C82448344AAF153
:100100000107DA4501D100F064F8AFF2090EBAE850
:100110000F0013F0010F18BFFB1A43F0010318473B
:10012000B83B0000D83B000010F8013B0A4413F034
:10013000030408BF10F8014B1D1108BF10F8015B44
:10014000641E05D010F8016B641E01F8016BF9D133
:10015000002D15D010F8014B03F00C030C2BA1EB74
:1001600004040ABF10F8013BA4EB8314A4EB03249E
:1001700005F1010314F8016B5B1E01F8016BF9D561
:10018000914238BF10F8013BD1D3704700230024BF
:1001900000250026103A28BF78C1FBD8520728BF97
:1001A00030C148BF0B607047642900F0A9807329F3
:1001B00000F07183002070471FB500F0A7FD040018
:1001C0000020002103F038F9401C60601FBD10B50D
:1001D00010BD00F06DFD1146FFF7EEFF02F0DAFBF7
:1001E00000F098FD03B4FFF7F2FF03BC02F095FBAB
:1001F0000948804709480047FEE7FEE7FEE7FEE7BB
:10020000FEE7FEE7FEE7FEE7FEE7FEE704480549F6
:10021000054A064B704700009D210008ED000008CC
:10022000C8240020C82A0020C8260020C826002094
:10023000704700000FB41CB5084B06AA7B44694602
:100240000090059800F0FDFA04460020694600F091
:100250000BFB20461CBC5DF814FB000029060000C7
:1002600070B5044685690068C10601D5302600E0F6
:100270002026C00707D070BDD4E901213046904741
:10028000206A401C20626D1EF6D570BD70B5044614
:1002900085690078C00707D170BDD4E9012120200D
:1002A0009047206A401C20626D1EF6D570BD70B567
:1002B0000C460546012A05D02878800600D5EA6953
:1002C000002302E0012305E05B1C934202D2E05CC4
:1002D0000028F9D1A869E618C01AA861286A18444C
:1002E00028622846FFF7BCFF04E0D5E9012114F895
:1002F000010B9047B442F8D32846FFF7C7FF70BD03
:100300002DE9F0410646002410687529314616A5EE
:1003100010D0AFF30080002802DA404213A507E0B6
:1003200031688A0701D512A502E0490704D511A555
:10033000012401E0AFF3008000210A2206F1240726
:1003400009E0B0FBF2FCB0FBF2F302FB1C00303022
:1003500078541846491C0028F3D123462A463046D3
:10036000BDE8F04100F00EBA000000002D000000D2
:100370002B000000200000002DE9F05F89460446B4
:100380004FF0000ADFF874B1FB44C0F820A020460B
:10039000E1688847002874D0252806D0D4E90121D7
:1003A0009047206A401C2062F1E700265F46204605
:1003B000E16888472028054607DB312D05D27819EA
:1003C00010F8200C08B10643F1E7B00701D526F07C
:1003D0000406C4F81CA00027C4F818A02A2D09D0D0
:1003E000284602F093FA38B304EB8708303DC8F88A
:1003F000185019E059F8041B204604EB870291615C
:10040000E1688847012F054618D1E069002820DA05
:1004100026F020061DE0D8F8180000EB800005EB60
:1004200040003038C8F818002046E1688847054683
:1004300002F06CFA0028EED1012F0AD02E2D08D13F
:100440002046E16888477F1C0546022F46F02006BB
:10045000C4DBA069002803DA404246F00106A0612F
:10046000F00701D026F010066C2D0BD0682D09D0B6
:100470004C2D39D06A2D35D0742D35D07A2D33D00E
:1004800016E038E0E1682F4620468847B842054626
:1004900009D16C2F26D04FF48060E16806432046D6
:1004A0008847054604E06C2F1AD04FF4807006434D
:1004B0000DB3A5F14100192802D8203546F4006695
:1004C0004A462946204626604E46FFF76DFE80B11B
:1004D00001280BD0F61D26F0070000F1080956E7A9
:1004E0004020E4E78020D8E70020D6E706F10409A1
:1004F0004DE7284652E7206ABDE8F09FF03800003B
:100500000FB400B58DB010A9099000910B904FF079
:10051000FF300A9000200C90064878440690064868
:1005200078446A4607900F9909A800F0CDF90DB0FC
:100530005DF814FBCB030000E30300002DE9FF5F2F
:100540001D464FF0FF3B91464FF000085F46D5E94E
:100550000146A96901987F1C8847296A8246884715
:100560000028F6D1BAF1FF3F0CD0002E24F4C0646D
:1005700019DD600614D5BAF12B0F09D0BAF12D0F91
:100580000ED103E0584604B0BDE8F09F44F4806407
:10059000A96901987F1C8847761E8246002E02DDDD
:1005A000BAF1300F03D0B9F1000F26D032E0A969BB
:1005B000761E01987F1C44F400748847002E824602
:1005C00005DDBAF1780F06D0BAF1580F03D0B9F1B2
:1005D000000F10D01EE0B9F1000F02D0B9F1100FDA
:1005E00018D1A969761E01987F1C24F400748847ED
:1005F0008246102002E0082000E00A20814609E03F
:10060000A96908FB0908761E01987F1C44F4007450
:1006100088478246002E05DD4946504600F03FF9E6
:100620000028EDDAE96901988847A00502D46FF047
:100630000100A8E7E00725D1600613D5600502D5C3
:10064000C8F1000000E0404629680A1D2A600968D8
:10065000220501D5087015E0220701D5088011E0B8
:1006600008600FE02868011D29600068210502D597
:1006700080F8008006E0210702D5A0F8008001E0A4
:10068000C0F8008038467EE730B505460B462A465E
:1006900013F8014B12F8010B08B1A042F8D01CB1BD
:1006A000002802D06D1CF1E7284630BD10B5431C70
:1006B00002E010F8011B71B18107FAD14FF001324D
:1006C00002C88C1A8C4314EAC211F9D0C01A0A0667
:1006D00003D0C01E10BDC01A10BD0A0401D0801E78
:1006E00010BD0902FCD0401E10BD4FF000020429CD
:1006F000C0F0128010F0030C00F01B80CCF1040C51
:10070000BCF1020F18BF00F8012BA8BF20F8022B84
:10071000A1EB0C0100F00DB85FEAC17C24BF00F82A
:10072000012B00F8012B48BF00F8012B70474FF058
:10073000000200B5134694469646203922BFA0E831
:100740000C50A0E80C50B1F12001BFF4F7AF09073D
:1007500028BFA0E80C5048BF0CC05DF804EB89002E
:1007600028BF40F8042B08BF704748BF20F8022B71
:1007700011F0804F18BF00F8012B70477047704789
:10078000704770472DE9F0470D469946924604465A
:1007900000F124080168880604D5E06921F0100101
:1007A000216000E00120A84201DD471B00E0002796
:1007B000A1697A1902EB0900081AA0612078C00625
:1007C00002D42046FFF74CFD002608E0D4E90121C1
:1007D0001AF806009047206A401C761C20624E459D
:1007E000F4DB2078C0060AD52046FFF739FD06E085
:1007F000D4E9012130209047206A401C2062381E35
:10080000A7F10107F4DC07E0D4E9012118F805009D
:100810009047206A401C2062281EA5F10105F3DCE8
:100820002046FFF733FD2078000602D50220BDE800
:10083000F0870120FBE7000001694A1C026108788B
:10084000704700B58FB0CDE9013100210591054910
:100850007944CDE9031011466846FFF78DFD0FB0CE
:1008600000BD0000E5FFFFFF0A6802F8010B0A6007
:10087000704710B5436913B1AFF3008001E0FFF793
:1008800016FD012010BD127800F124010A7000222B
:100890004A700122EDE711684FF0FF32E9E73A288C
:1008A00000D2303820F02002412A01D3A2F13700D3
:1008B000884201D34FF0FF307047000002681144B6
:1008C0001378016018467047D16005497944516139
:1008D00004497944116200211161114600F02EB8DB
:1008E000EDFFFFFF53000000426842B1016811F8BC
:1008F000013B23B1521EC0E9001218467047012186
:10090000C160881E704742685AB1C368016843B924
:1009100083688B4205D0491E521CC0E9001200209A
:1009200070474FF0FF30704710B5044600F0E6F90D
:100930000068005D00F0010010BD00002DE9F34FDC
:100940004FF0000A0C4656468DB001200C9001F184
:100950000C000B9062690B9801219047051E2DD069
:10096000252D2CD0216A8847C0B162690B980121DE
:100970009047216A88470028F7D16269411E0B9889
:10098000904700E0761CA1690D988847216A884746
:100990000028F7D1E1690D988847DBE7A1690D9838
:1009A0008847A842074601D1761CD3E7E1690D9834
:1009B00088477F1C02D1BAF1000F6FD06CE16269E9
:1009C0000B9800273D46394690472A2804D1626992
:1009D0000B98012190470125DFF8D08262690B98BE
:1009E00001219047A0F130010A290AD24745E5DCF0
:1009F00007EB870100EB4107303FDFD445F01005DE
:100A0000ECE7E90601D46FF000476C280AD04C28C7
:100A100014D0682815D06A280DD074281CD07A28E4
:100A20001AD01DE062690B98012190476C2802D012
:100A300045F0040514E045F002050DE045F0200501
:100A40000AE062690B9801219047682802D045F0BE
:100A5000080505E045F4006562690B98012190479F
:100A6000C4E9015765283DD019DC58287AD00CDC40
:100A7000452837D004DC252826D041289ED131E0F6
:100A800046282FD0472899D12CE05B2877D06128C1
:100A900028D063287CD0642823D15AE0F7E06F285F
:100AA00048D008DC66281DD067281BD0692821D0D3
:100AB0006E2816D127E0702845D0732868D0752895
:100AC00047D078280DD14DE0A1690D988847252899
:100AD00005463FF469AFE1690D9888476D1C3FF406
:100AE0006AAFD9E00D9923466A466FF00100AFF373
:100AF0000080C6E045F0400023464FF000026060F1
:100B0000A80736D43EE0E8077FF447AF2068011D10
:100B100021600068290501D506701BE7290701D56A
:100B2000068017E7A90703D5F117C0E9006111E7AF
:100B300006600FE745F0400023464FF00802606072
:100B4000A80716D41EE040F60E0125EA01006060F9
:100B500016E045F0400023464FF00A026060A80707
:100B600007D40FE045F040006060A80708D5234691
:100B700010220D996FF00100AFF3008081E007E0D3
:100B8000102223460D996FF00100FFF7D7FC78E0A3
:100B90004FF0000963284F46C8464B46CB4602D06B
:100BA0005B2807D039E02079C00601D40120A0607D
:100BB000012732E06269D4F80CB00B98012190470C
:100BC0005E2807D14FF0010949466269D4F80CB09C
:100BD0000B989047216939B900210A4603AB43F8C5
:100BE0002120491C0829FADBD8B3216949B308F14F
:100BF000010862690B98012190475D28F4D1B9F191
:100C0000000F09D0002003A951F82020D24341F859
:100C10002020401C0828F7DB03AB2069002820793E
:100C20004FEA40701ED05B462246CDF80080CDE9E9
:100C300001970D9900286FF0010020DAAFF30080D2
:100C40001FE0C11703AA00EBD1614B1121F01F0176
:100C500002EB8302411A13680120884003431360AA
:100C6000C7E719E00D99224600286FF001000097B0
:100C700002DAAFF3008004E0AFF3008001E0AFF3ED
:100C8000008000280ADA401C06D10C9820B14FF0F1
:100C9000FF300FB0BDE8F08F5046FAE7E90701D109
:100CA0000AF1010A064400200C9053E6CCCCCC0C8F
:100CB000754600F039F8AE4605006946534620F007
:100CC0000700854618B020B5FFF7A0FABDE8204020
:100CD0004FF000064FF000074FF000084FF0000BF8
:100CE00021F00701AC46ACE8C009ACE8C009ACE8AB
:100CF000C009ACE8C0098D467047000010B500F08F
:100D000005F8001D10BD00BF3127000000487047E6
:100D10008424002010B50446AFF300802046BDE8CF
:100D20001040FFF75FBA00000048704764240020BD
:100D30004FF0013C50F8042B51F8043B9A4221D16A
:100D4000A2EB0C03934313EACC1317D150F8042BF6
:100D500051F8043B9A4215D1A2EB0C03934313EADA
:100D6000CC130BD150F8042B51F8043B9A4209D113
:100D7000A2EB0C03934313EACC13DBD04FF000003B
:100D8000704700BFD01A01BAB1FA81F101F0180121
:100D900022FA01F0CB40C1F12001DBB2C0B2C01A8F
:100DA0002CFA01F3D11A914311EAC311E6D170472D
:100DB00030B501460846CC1701EB14742411A1EBA1
:100DC00004140A46CD1701EB15752D1105EB8505A9
:100DD00004EB4504E3B2184630BD00BFFEE7000057
:100DE00010B500241548006820F4702013490860ED
:100DF0000846006840F40020086004E0601CC4B2AB
:100E0000012001F0AFFD0E48006808B1642CF5DB4D
:100E1000642C01DB012010BD002404E0601CC4B27E
:100E2000012001F09FFD0648006808B9642CF5DB3D
:100E3000642C01DB0120EEE70020ECE7040C01400C
:100E40003081214208B50121082001F031F84FF42A
:100E50008050ADF8000010208DF8030003208DF8BD
:100E600002006946064800F039FC4FF480510448FE
:100E700000F00AFD00F03CF8FFF7B2FF08BD0000EB
:100E8000000C014010B5002404E0601CC4B2012035
:100E900001F068FD0D48006808B1642CF5DB002402
:100EA00004E0601CC4B2012001F05CFD074800684A
:100EB00008B9642CF5DB282001F054FD03480068D4
:100EC00008B1012010BD0020FCE700003081214264
:100ED00070B50024002506E06006040EFFF7D2FF7F
:100EE0000443681CC5B2082DF6DB204670BD000027
:100EF00010B50C48006820F470200A4908600846C4
:100F0000006840F440300860002007490860142061
:100F100001F01CFD01200549C1F8B0011E2001F0BF
:100F200021FD10BD040C0140B0812142008021420E
:100F30007047000010B500F0E5FC0020044908608F
:100F40000449C1F8B4010021802000F077F810BDF9
:100F5000BC0122420000224270B505460126012054
:100F6000334908600A2001F0FDFC00241CE0002049
:100F70002F49083908600A2001F0F4FC05F001004F
:100F800020B101202A49091F086003E000202849F8
:100F9000091F08606D1001202549083908600A20E2
:100FA00001F0E0FC601CC4B2082CE0DB2148406882
:100FB00020F070601F4948600846406840F00060BB
:100FC0004860002416E076100020194908390860AE
:100FD0000A2001F0C7FC1848D0F8380108B146F0E3
:100FE000800601201249083908600A2001F0BAFC85
:100FF000601CC4B2082CE6DB0E48406820F070602C
:101000000C4948600846406840F040704860002045
:101010000749083908600A2001F0A4FC00200649AD
:10102000C1F8BC010A2001F09DFC304670BD0000F3
:10103000BC012242001001400000224270B505466A
:101040000E463048406820F070602E4948600846DF
:10105000406840F04070486001202B4908600A2039
:1010600001F080FC00202949C1F8B4010A2001F0F8
:1010700079FC00241CE005F0010020B10120224988
:10108000091F086003E000201F49091F08606D1058
:1010900001201D49083908600A2001F063FC002086
:1010A0001A49C1F8B4010A2001F05CFC601CC4B20A
:1010B000082CE0DB00241CE006F0010020B1012038
:1010C0001149091F086003E000200F49091F08604B
:1010D000761001200C49083908600A2001F042FC12
:1010E00000200A49C1F8B4010A2001F03BFC601C51
:1010F000C4B2082CE0DB0020034908600A2001F09C
:1011000031FC70BD00100140BC01224200002242AF
:1011100010B54FF480710548FFF7E7FA0020044945
:10112000088001200349087010BD000062220020E1
:1011300086200020882000202DE9F84381460121E7
:10114000042000F0B5FE0220ADF8000010208DF85C
:10115000030003208DF802006946864800F0BEFABD
:101160000221844800F08EFB4FF4FA7001F0EEFB90
:101170000221804800F088FB4FF47A7001F0E6FB12
:10118000484600F059FA4FF480717B48FFF7ADFAFA
:1011900000207A490880FFF7BBFF0326DDE04FF40B
:1011A0007A7277A177A000F087F900287ED140F607
:1011B000B83273A175A000F07FF90327BCE04FF4AB
:1011C0007A726FA175A000F077F900286FD14FF403
:1011D0007A726BA175A000F06FF94FF0030898E0E8
:1011E000002407E0204600F033FE4FF4967001F033
:1011F000ADFB0A341E2CF5DD42F210726FA173A014
:1012000000F05AF900287DD14FF4FA6278A17AA053
:1012100000F052F907E0204600F01AFE4FF49670F5
:1012200001F094FB0A34282CF5DD032561E007E08A
:10123000204600F00DFE4FF4967001F087FB0A3453
:101240003C2CF5DD41F288326EA170A000F034F93B
:10125000002849D107E0204600F0FAFD4FF49670CF
:1012600001F074FB0A34462CF5DD724800F05AF99F
:1012700006E0204600F0ECFDC82001F067FB0A34D0
:10128000642CF6DD002000F001FC0022114610461F
:1012900000F0BAFC01220021122000F0B5FC02226D
:1012A0000021242000F0B0FC262201E050E03EE0C6
:1012B0000021362000F0A8FC27220021482000F061
:1012C000A3FC10235CA20321002000F0A3FD102347
:1012D0005DA20621002000F09DFD4FF4FA6001F0B0
:1012E00035FBBDE8F8830DE005215BA000F012FDA1
:1012F0006D1E002D9BDC04DC052157A000F00AFDCB
:101300000BE005E005215AA000F004FDA8F101085A
:1013100000BFB8F1000F3FF763AF00BFB8F1000F97
:1013200004DC052152A000F0F5FC08E004E00521F2
:1013300054A000F0EFFC7F1E002F3FF740AF00BF2E
:10134000002F04DC05214FA000F0E4FC08E004E0DD
:10135000052153A000F0DEFC761E002E3FF71FAFE4
:1013600000BF002E03DC05214DA000F0D3FC00BF20
:10137000B7E7000000080140622300208A20002017
:101380004F4B000041540D0A0000000041542B5205
:101390004553544F52450D0A0000000041542B4361
:1013A000574D4F44453D310D0A00000041542B4339
:1013B00049504D55583D300D0A00000057494649E7
:1013C00020434F4E4E4543544544000041542B4367
:1013D000574A41503D22626F636368693435372252
:1013E0002C2232303230363235363633220D0A0076
:1013F000535441495000000041542B434946535235
:101400000D0A0000434F4E4E4543540041542B43B8
:10141000495053544152543D22544350222C22628D
:10142000656D66612E636F6D222C383334340D0A7E
:1014300000000000903C00085769466920636F6E09
:101440006E6563746564000042656D666120636F5C
:101450006E6E65637465640042656D666120636FDE
:101460006E6E656374206661696C656400000000DF
:101470005769466920636F6E6E65637420666169A3
:101480006C65640057694669206D6F6465207365FB
:101490007474696E67206661696C656400000000A1
:1014A000415420636F6D6D616E64207465737420A8
:1014B0006661696C6564000070B504460E461546A9
:1014C0000020154908804FF480711448FFF70DF98A
:1014D000FFF71EFE0BE014F8011B114801F0B5F9EF
:1014E00000BF80210E4801F0E2F80028F9D02078F2
:1014F0000028F0D109E0012001F028FA3146074820
:10150000FFF7C2F808B1002070BD281EA5F1010543
:10151000F1D10120F8E700008A200020622300209A
:101520000044004030B589B00446202101A8FFF7EF
:10153000FEF82046FFF7BAF885B24FF47A7225A17B
:1015400025A0FFF7B9FF10B1012009B030BD2A4630
:1015500023A101A8FEF76EFE4FF4FA6224A101A8B0
:10156000FFF7AAFF90B141F2883222A123A0FFF732
:10157000A3FF4FF4FA7001F0E9F94FF4FA621CA1ED
:1015800001A8FFF799FF08B10120DEE700202549F7
:1015900008804FF480712448FFF7A7F80BE014F897
:1015A000011B224801F051F900BF80211F4801F0C2
:1015B0007EF80028F9D020780028F0D140F6B83223
:1015C0001BA106A0FFF778FF08B10120BDE70020AE
:1015D000BBE700004F4B000041540D0A0000000023
:1015E00041542B43495053454E443D25640D0A0058
:1015F0003E000000434F4E4E4543540041542B43A0
:10160000495053544152543D22544350222C22629B
:10161000656D66612E636F6D222C383334340D0A8C
:10162000000000008A2000206223002000440040C7
:1016300053454E44204F4B0010B586B0044601215F
:10164000042000F035FC0121480400F021FC0420B6
:10165000ADF8140018208DF8170003208DF816003F
:1016600005A91C4800F03AF80820ADF81400042041
:101670008DF8170005A9174800F030F801940020F4
:10168000ADF80800ADF80A00ADF80C00ADF8100098
:101690000C20ADF80E0001A90F4801F065F82620D6
:1016A0008DF8000003208DF801008DF80200012064
:1016B0008DF80300684600F0A7F9012240F2255199
:1016C000054801F02BF80121034800F0E4FF06B0C3
:1016D00010BD000000080140004400402DE9F04129
:1016E000024600250026002000230024002791F850
:1016F00003C00CF00F0591F803C00CF0100CBCF106
:10170000000F03D091F802C04CEA050591F800C023
:10171000BCF1000F31D0146800202BE04FF0010C19
:101720000CFA00F3B1F800C00CEA03069E4220D187
:1017300083004FF00F0C0CFA03F7BC4305FA03FCCF
:101740004CEA040491F803C0BCF1280F06D14FF015
:10175000010C0CFA00FCC2F814C00AE091F803C0B6
:10176000BCF1480F05D14FF0010C0CFA00FCC2F897
:1017700010C0401C0828D1D31460B1F800C0BCF1DF
:10178000FF0F34DD546800202EE000F1080C4FF00C
:10179000010808FA0CF3B1F800C00CEA03069E42F7
:1017A00021D183004FF00F0C0CFA03F7BC4305FA6C
:1017B00003FC4CEA040491F803C0BCF1280F05D1E6
:1017C00000F1080C08FA0CF8C2F8148091F803C074
:1017D000BCF1480F07D100F1080C4FF0010808FADE
:1017E0000CF8C2F81080401C0828CED35460BDE825
:1017F000F0810000F0B50A460023002400210025F6
:1018000000F00046B6F1004F02D11D4EF16901E033
:101810001B4E7168C0F3034583B200F44016B6F561
:10182000401F08D121F07061154E766826F0706671
:10183000134F7E6012E000F48016B6F5801F06D1CB
:10184000032606FA05F4A14341F0706106E0460D57
:10185000360103FA06F6B14341F0706122B1460D3C
:10186000360103FA06F6314300F00046B6F1004FA8
:1018700002D1034EF16101E0014E7160F0BD000044
:1018800000000140416170470161704700BFFEE701
:1018900010B54FF480710948FFF7F6FF4FF400715F
:1018A0000648FFF7F1FF4FF400710448FFF7EAFF25
:1018B0004FF480710148FFF7E5FF10BD000C0140B7
:1018C00010B54FF480710748FFF7DEFF4FF4007149
:1018D0000448FFF7D7FF4FF400710248FFF7D4FF29
:1018E00010BD0000000C014010B54FF48071044899
:1018F000FFF7CAFF4FF480710148FFF7C3FF10BD27
:10190000000C014008B501211C2000F0D1FA022092
:101910008DF802004FF46040ADF8000010208DF803
:10192000030069460148FFF7D9FE08BD00100140D9
:1019300010B5044614B101202349087022480078EC
:1019400058B32248006858B12048001D006838B1DB
:101950001E480830006818B11C480C300068E0B917
:101960000A2000F0F3FF00201749087017480068AC
:1019700008B9012010BD1548001D006808B90220F3
:10198000F8E712480830006808B90320F2E70F486A
:101990000C300068B0B90420ECE70C48006801285E
:1019A00010D10A48001D006801280BD107480830F3
:1019B0000068012806D105480C300068012801D1D3
:1019C000014908700020D5E7442000201081214201
:1019D00008B50121082000F06BFA01210648FFF745
:1019E00009FF48208DF80300F020ADF8000069469B
:1019F0000248FFF773FE08BD00023000000C0140F2
:101A000000BFFEE77047000070B5002100230F22E1
:101A1000C47804B3154C246804F4E064C4F5E064AD
:101A2000210AC1F10403CA40447804FA03F184781E
:101A30001440214309010E4C0678A155047804F0A6
:101A40001F050124AC4005786D11AD0005F1E025BE
:101A5000C5F8004109E0047804F01F050124AC40FA
:101A6000044D0678761145F8264070BD0CED00E077
:101A700000E400E080E100E002490143024A116015
:101A8000704700000000FA050CED00E070B5064656
:101A9000002418E004F1B000002100F0EBF900216F
:101AA000084600F0E7F90021102000F0E3F90025D6
:101AB00005E00121304600F0DDF9681CC5B2802D3B
:101AC000F7DB601CC4B2082CE4DB70BD08B5012153
:101AD000082000F0EDF94FF44070ADF80000102040
:101AE0008DF8030003208DF8020069463B48FFF79C
:101AF000F5FD4FF440713948FFF7C6FEC82000F0ED
:101B000025FF0021AE2000F0B5F90021084600F0C5
:101B1000B1F90021102000F0ADF90021402000F0C3
:101B2000A9F90021B02000F0A5F90021812000F0E2
:101B3000A1F90021FF2000F09DF90021A12000F073
:101B400099F90021A62000F095F90021A82000F0C5
:101B500091F900213F2000F08DF90021C82000F00C
:101B600089F90021D32000F085F90021084600F012
:101B700081F90021D52000F07DF90021802000F0BE
:101B800079F90021D82000F075F90021052000F036
:101B900071F90021D92000F06DF90021F12000F049
:101BA00069F90021DA2000F065F90021122000F027
:101BB00061F90021DB2000F05DF90021302000F008
:101BC00059F900218D2000F055F90021142000F072
:101BD00051F90021AF2000F04DF908BD000C014083
:101BE00070B504460D4605F1B000002100F042F941
:101BF000102141EA1410002100F03CF904F00F001C
:101C0000002100F037F970BD2DE9F04180460E4605
:101C10001546002731464046FFF7E2FF00240AE060
:101C2000124A02EB8511085D012100F023F9781CAE
:101C3000C7B2601CC4B2102CF2DB701CC1B24046AB
:101C4000FFF7CEFF00240CE06900491C074A02EBB5
:101C50004111085D012100F00DF9781CC7B2601C2C
:101C6000C4B2102CF0DBBDE8F0810000440000207D
:101C70002DE9F04707460E46904699460025002478
:101C8000A8F12000C5B27F2F02DD0027B01CC6B22C
:101C9000B9F1100F24D131463846FFF7A1FF0024D7
:101CA00008E004EB0511194A505C012100F0E2F84C
:101CB000601CC4B2082CF4DB701CC1B23846FFF7BC
:101CC0008FFF002409E004EB051108310F4A505C36
:101CD000012100F0CFF8601CC4B2082CF3DB12E045
:101CE00031463846FFF77CFF00240AE005EB45014A
:101CF000074A02EB4101085D012100F0BBF8601CBE
:101D0000C4B2062CF2DBBDE8F08700008C36000878
:101D100064340008FEB505460E460020FFF7B6FE07
:101D2000002211461046FFF76FFF0122002112200A
:101D3000FFF76AFF022200212420FFF765FF24221B
:101D400000213620FFF760FF252200214820FFF701
:101D50005BFF10232A460321002000F05BF8344685
:101D60000FE0224608A16846FEF764FA10236A468F
:101D700006215A2000F04EF84FF47A7000F0E6FD8C
:101D8000641E002CEDDCFEBD256473002DE9FF5FB1
:101D9000074691461E460E9D4FF0000A002435E08E
:101DA000301B401EC1B20A2001F0BAFAB9FBF0F0B4
:101DB0000A21B0FBF1F201FB1208BAF1000F14D1B5
:101DC000701EA04211DDB8F1000F0CD1AB4605EB3F
:101DD000DB71491001FB0471C8B22B462022019926
:101DE000FFF746FF10E04FF0010AAB4605EBDB7151
:101DF000491001FB0471C8B208F13001CAB22B4688
:101E00000199FFF735FF00BF601CC4B2B442C7DBC5
:101E1000BDE8FF9F2DE9F04104460F461546984660
:101E200000260FE0AA5D434639462046FFF720FF13
:101E300004F10800C4B2782C02DD0024B81CC7B23B
:101E4000701CC6B2A85D0028ECD1BDE8F08100008E
:101E50003EB50446224605A16846FEF7EBF910237D
:101E60006A4606213C20FFF7D5FF3EBD25642525A7
:101E70000000000070B504460D461DB1E0B200F050
:101E80002FFD02E0E0B200F015FD70BD70470000CC
:101E900029B1064AD2690243044BDA6104E0034ADD
:101EA000D2698243014BDA617047000000100240A2
:101EB00029B1064A92690243044B9A6104E0034A3D
:101EC00092698243014B9A61704700000010024002
:101ED00030B500210022002400232D4D6D6805F04F
:101EE0000C0121B1042905D0082923D105E0294D91
:101EF000056022E0274D05601FE0254D6D6805F463
:101F00007012234D6D6805F48034022505EB924272
:101F10001CB9214D554305600BE01D4D6D6805F45E
:101F200000351DB11C4D5543056002E0194D554368
:101F3000056002E0174D056000BF00BF144D6D68DD
:101F400005F0F0010909154D6B5C0568DD40456041
:101F50000F4D6D6805F4E061090A104D6B5C456832
:101F6000DD4085600A4D6D6805F46051C90A0B4D6E
:101F70006B5C4568DD40C560054D6D6805F440410A
:101F8000890B074D6B5CC568B5FBF3F5056130BD8A
:101F90000010024000127A0000093D008C20002051
:101FA0009C20002010B58D20FEF7D6FF0446FEF7DA
:101FB000FFFE1D4988808920FEF7CEFF0446FEF70C
:101FC000F7FE194988718720FEF7C6FF0446FEF721
:101FD000EFFE1549C8718520FEF7BEFF0446FEF7E7
:101FE000E7FE114908708320FEF7B6FF0446FEF7AE
:101FF000DFFE0D4948708120FEF7AEFF00F07F0440
:102000002046FEF7D5FE084988708B20FEF7A4FF16
:102010000446FEF7CDFE044908720846808800F5A4
:10202000FA6000B2888010BD1C2200207CB50446F6
:10203000FEF75EFFFEF7D4FE40BB002505E0FEF78D
:1020400047FF0DF80500681CC5B2052DF7DB9DF8AC
:1020500000009DF8011008449DF8021008449DF806
:10206000031008449DF80410884211D19DF8000027
:1020700020709DF8010060709DF80200A0709DF82E
:102080000300E0709DF80400207101E001207CBD98
:10209000207861780844A1780844E17808442179DF
:1020A000884201D10120F2E70020F0E7704710B527
:1020B00000F002F810BD00000CB500200190009067
:1020C0003348006840F480303149086000BF304830
:1020D000006800F4003000900198401C01900098C6
:1020E00018B90198B0F5A06FF1D12948006800F443
:1020F000003010B10120009001E000200090009815
:10210000012843D12348006840F0100021490860AD
:102110000846006820F0030008600846006840F0A8
:10212000020008601A48406819494860084640683B
:1021300048600846406840F480604860084640684F
:1021400020F47C1048600846406840F4E81048607D
:102150000846006840F08070086000BF0C480068C6
:1021600000F000700028F9D00948406820F0030012
:10217000074948600846406840F00200486000BFD8
:102180000348406800F00C000828F9D10CBD00009D
:1021900000100240002002407047000010B51348B4
:1021A000006840F001001149086008464068104985
:1021B00008400E494860084600680E4908400B492F
:1021C00008600846006820F48020086008464068DF
:1021D00020F4FE0048604FF41F008860FFF767FF9F
:1021E0004FF000600449086010BD0000001002407C
:1021F0000000FFF8FFFFF6FE08ED00E010B501213A
:10220000880700F0FDF8012805D103490870012175
:10221000800700F0E6F810BD2F00002008B5FFF79A
:10222000C1FE6148807861490988884272D05E4861
:1022300080785E4908805C48007818286BDC5A4832
:1022400040783C28FADC5848007A0728F6DC5648E3
:10225000C0791F28F2DC544880790C28EEDC524803
:10226000C079009050488379B0F9042050A15448B7
:10227000FDF7E0FF1023524A02210020FFF7CAFDBC
:102280004948807800904848437802784DA14C48EE
:10229000FDF7D0FF10234A4A04210020FFF7BAFDC2
:1022A0004148007A072877D2DFE800F0041424368A
:1022B00046566600662204215020FFF7A5FC5E22E8
:1022C00004216020FFF7A0FC652204217020FFF7A5
:1022D0009BFC61E0662204215020FFF795FC5E2202
:1022E00004216020FFF790FC5F2204217020FFF79B
:1022F0008BFC51E0662204215020FFF785FC5E2212
:1023000004216020FFF780FC602204217020FFF789
:102310007BFC41E047E040E0662204215020FFF7CB
:1023200073FC5E2204216020FFF76EFC6122042111
:102330007020FFF769FC2FE0662204215020FFF790
:1023400063FC5E2204216020FFF75EFC6222042110
:102350007020FFF759FC1FE0662204215020FFF790
:1023600053FC5E2204216020FFF74EFC632204210F
:102370007020FFF749FC0FE0662204215020FFF790
:1023800043FC5E2204216020FFF73EFC642204210E
:102390007020FFF739FC00BF05E010230DA20621D5
:1023A0000020FFF737FD08BD1C2200205A20002026
:1023B000253034642D253032642D253032642000E0
:1023C00030220020253032643A253032643A2530FC
:1023D000326400007368696261690000CA43028266
:1023E0007047CA430282704721B1028842F001025D
:1023F000028004E002884FF6FE731A4002807047A4
:1024000030B50246002000230024158A05EA0103A6
:10241000958905EA010413B10CB1012000E0002008
:1024200030BD1AB183890B43838102E083898B43DA
:102430008381704701894FF6F8721140018170471E
:10244000002202881D4B98420ED01D4B98420BD0A3
:10245000B0F1804F08D01B4B984205D01A4B9842E0
:1024600002D01A4B984204D14FF68F731A404B8812
:102470001A43174B984207D0164B984204D04FF698
:10248000FF431A40CB881A4302808B8883850B88D0
:1024900003850A4B98420BD0094B984208D00E4B4B
:1024A000984205D00D4B984202D00D4B984201D175
:1024B0000B7A03860123838270470000002C0140C1
:1024C000003401400004004000080040000C0040BF
:1024D0000010004000140040004001400044014052
:1024E000004801401FB501210846FFF7D1FC4FF01D
:1024F0008040FFF79FFF0020ADF80A00ADF806000E
:1025000044F61F60ADF8080041F61F40ADF8040026
:1025100000208DF80C0001A94FF08040FFF790FFDC
:1025200001218807FFF75AFF012211469007FFF7A4
:1025300078FF4FF4A060FFF79FFA1C208DF8000091
:1025400001208DF803008DF8010000208DF80200B5
:102550006846FFF759FA01218807FFF745FF1FBDBD
:1025600010B540F22551214800F0AEF801283CD1C9
:102570001E4800F065F9C4B21D48007858B9402CD7
:102580002DD11C48007850BB01201949087000204B
:102590001949087023E01648007801280FD10D2C46
:1025A00003D102201249087019E014481249097831
:1025B000445411480078401C0F4908700FE00C4843
:1025C000007802280BD10A2C09D100200849087094
:1025D0000A49094A1278885401200649087040F2D5
:1025E0002551024800F048F800BF10BD00380140F6
:1025F000582000205220002059200020EA210020ED
:1026000010B540F22551164800F05EF830B314487A
:1026100000F016F9C4B213480088FF2807DC1148FF
:1026200001880088401C0F4A10800F4844540F480E
:102630000088FF2807DC0D4801880088401C0B4AF1
:1026400010800B4844540A2C02D10020094908701C
:1026500040F22551024800F00FF800BF10BD000005
:102660000044004086200020622200208A200020B2
:10267000622300208820002010B50022002340F6AD
:102680006A14A14200D100BF0A1201249440A3B2EF
:10269000DC43048010BD21B1828942F40052828162
:1026A00004E082894DF6FF731A408281704702462A
:1026B0000020B1F5007F00D100BF13880B400BB1A3
:1026C000012000E00020704770B50246002400237E
:1026D0000025002040F66A16B14200D100BFC1F3C8
:1026E000421501F01F03012606FA03F3012D02D162
:1026F0009689334006E0022D02D1168A334001E06C
:10270000968A33400C12012606FA04F416883440E7
:1027100013B10CB1012000E0002070BDF0B50346FC
:10272000002400260025002040F66A17B94200D197
:1027300000BF1846C1F3421401F01F06012707FA33
:1027400006F5012C01D10C3004E0022C01D110302F
:1027500000E014301AB107682F43076002E00768F1
:10276000AF430760F0BD00002DE9F04786B0054695
:102770000E460024A24600BFA1460027B08900B142
:1027800000BF2F462C8A4CF6FF700440F0880443AB
:102790002C82AC894EF6F3100440B088318908438E
:1027A000718908430443AC81AC8A4FF6FF40044072
:1027B000B0890443AC8201A8FFF78AFB1F48874217
:1027C00002D1DDF810A001E0DDF80CA0A88900F42A
:1027D000004040B10AEBCA0000EB0A103168490022
:1027E000B0FBF1F807E00AEBCA0000EB0A10316811
:1027F0008900B0FBF1F86420B8FBF0F00401200977
:10280000642101FB1089A88900F4004040B1322006
:1028100000EBC900B0FBF1F000F00700044308E052
:10282000322000EB09106421B0FBF1F000F00F0042
:1028300004432C8106B0BDE8F08700000038014059
:1028400001468888C0F308007047C1F308028280FF
:10285000704700BFFEE700002DE9F04105462C4619
:102860004FF480711248FFF70DF800261CE0274650
:1028700007F08007802F04D1B9000D48FFF704F856
:1028800004E04FF400710A48FEF7FCFF6006040EF6
:102890004FF480710648FEF7F7FF4FF4807104484B
:1028A000FEF7F0FF701CC6B2082EE0DBBDE8F08139
:1028B000000C014010B50446FEF7EAFF7820FFF750
:1028C000CBFFFFF711F80020FFF7C6FFFFF70CF86A
:1028D0002046FFF7C1FFFFF707F8FEF7F1FF10BD35
:1028E00010B50446FEF7D4FF7820FFF7B5FFFEF7DA
:1028F000FBFF4020FFF7B0FFFEF7F6FF2046FFF793
:10290000ABFFFEF7F1FFFEF7DBFF10BD30380A2802
:1029100001D2012070470020704700BF70470000BF
:1029200008B501210820FFF7C3FA4FF48060ADF825
:10293000000010208DF8030003208DF80200694686
:102940000148FEF7CBFE08BD000C014000B5034670
:1029500003E04FF47A7000F005F8181EA3F10103AC
:10296000F7D100BD00EBC001C9004FF0E02251617A
:10297000002191610521116100BF4FF0E02109693B
:1029800001F480310029F8D004214FF0E0221161D8
:10299000704700001FB54FF4A060FFF76DF8FFF718
:1029A00017F8FFF793F80020FFF770F8FEF7C2FA68
:1029B000FEF748FA00F014FD00F028FDFFF7B0FF25
:1029C00000BF342200210846FFF71EF935220021FE
:1029D0001220FFF719F9362200212420FFF714F9FD
:1029E000372200213420FFF70FF93822002144203C
:1029F000FFF70AF9392200215420FFF705F93A229E
:102A000000216420FFF700F91023FBA20421082015
:102A1000FFF700FA342204211820FFF7F5F81023FD
:102A2000F6A204213E20FFF7F5F9352204214E20BD
:102A3000FFF7EAF80020FEF77BFFF149087008462F
:102A4000007801283BD10020FFF720F81522032150
:102A50000020FFF7D9F8162203211220FFF7D4F83F
:102A6000172203212420FFF7CFF818220321362054
:102A7000FFF7CAF81023E3A203214820FFF7CAF9A1
:102A80001023E2A203216C20FFF7C4F904220621DF
:102A90000020FFF7B9F8052206211220FFF7B4F84D
:102AA0000D2206212420FFF7AFF84FF4E130FEF7A6
:102AB00043FBFFF717FD0120D549087004E0D0481B
:102AC000007802287FF47DAF00BF0020FEF7DEFF14
:102AD000EEE3D048FFF7AAFACF480078002867D085
:102AE000CB480078012863D10020CB490870C94841
:102AF0004078C8490978C74AD278C64B9B78CDE957
:102B00000032CDE90210C5480378C5A2CDA1DC484A
:102B1000FDF790FBDA48FEF705FD28B90020D949FA
:102B20000860D949086020E0D7480068401CD649B1
:102B3000086008460068032806D34FF4E130FEF72A
:102B4000FBFA0020D0490860D0A1D448FDF772FB01
:102B50000C23D24A00215A20FFF75CF94FF4FA60A7
:102B6000FFF7F4FE0020FEF791FFC6480068401C06
:102B7000C4490860084600681E2817D3A548407855
:102B8000A4490A78C978A34B9B78CDE90031CDE9F7
:102B90000220A2480378A2A2AAA1B948FDF74AFBE5
:102BA000B748FEF7BFFC0020B6490860FEF7B0FA50
:102BB0000020FEF7BDFE9249087008460078012803
:102BC0000ED1B7480068401CB54908600020FEF7E8
:102BD0005DFFB3480068042802D10120B0490860B5
:102BE000AF48006801282ED1AE48006828B90120FE
:102BF000AC4908600020FEF749FF00F09DFBFFF79D
:102C00000DFB00F0CDFB7E48007804280BD102209C
:102C1000824908700020A4490860A449C1F88401D1
:102C2000A149091F08607648007803280BD10120CC
:102C30007A49087000209C4908609C49C1F88401C9
:102C40009949091F08609648006802287ED1954876
:102C50000068012805D10220924908600020FEF793
:102C600015FF6748007802280AD191480068401C87
:102C70008F49086008460068042801D101200860D7
:102C8000742200210846FEF7BFFF752200211020A4
:102C9000FEF7BAFF102387A200212020FFF7BAF821
:102CA000762202210020FEF7AFFF772202211020BA
:102CB000FEF7AAFF10237FA202212020FFF7AAF827
:102CC000782204210020FEF79FFF792204211020A2
:102CD000FEF79AFF102377A204212020FFF79AF82D
:102CE00073480068012824D1102373A200213C20DE
:102CF000FFF790F8102371A202213C20FFF78AF819
:102D000010236EA204213C20FFF784F8434800788A
:102D100002280ED13A480078032803D101206249E5
:102D2000086006E036480078042802D100205E4999
:102D300008605F480068022828D110235FA20021A4
:102D40003C20FFF767F810235BA200E0DCE00221E3
:102D50003C20FFF75FF8102358A204213C20FFF726
:102D600059F82E480078022810D125480078032809
:102D700004D101204C492839086007E02048007838
:102D8000042803D1002048492839086048480068D1
:102D9000032826D1102349A200213C20FFF73AF84E
:102DA000102346A202213C20FFF734F8102342A250
:102DB00004213C20FFF72EF818480078022810D193
:102DC0000F480078032804D101203749091F086003
:102DD00007E00B480078042803D100203249091F7E
:102DE00008603148006801286AD17A220021282031
:102DF000FEF70AFF69E063E0312E0000322E00008A
:102E00002800002057494649000000002E2E0000EF
:102E1000310000202A0000202F00002000000020A8
:102E2000616536653437626133373366343665370A
:102E300039646230653863653665353065613364A1
:102E400000000000636D643D32267569643D2573A2
:102E500026746F7069633D64617461266D73673DAC
:102E60004D6F64653A25642074656D703A25642E53
:102E700025642068756D693A25642E25640D0A0065
:102E800004210020340000203800002055706C6FB1
:102E900061643A204641494C00000000A020002017
:102EA0000400002008000020AC8121420080214263
:102EB0000C0000203A0000003C0000002000000050
:102EC0007B2200212820FEF79FFEFA480068012897
:102ED00005D17A2202212820FEF796FE04E07B220B
:102EE00002212820FEF790FEF248243000680128D5
:102EF00005D17A2204212820FEF786FE04E07B22F9
:102F000004212820FEF780FEEB48006803287DD1CD
:102F1000EA480068022805D10120E849086000203D
:102F2000FEF7B4FDE648007802280AD1E5480068BB
:102F3000401CE449086008460068042801D10120CB
:102F400008601A2200211F20FEF75EFE1B220021CE
:102F50002F20FEF759FE1C2200213F20FEF754FED1
:102F60001D2200214F20FEF74FFE0A2202210020E1
:102F7000FEF74AFE0C2202211020FEF745FE7C22BD
:102F800002212020FEF740FE7D2202213020FEF7A4
:102F90003BFE10233A2202214020FEF769FE10205A
:102FA00002230090C848194602684820FEF7EEFE4A
:102FB0000A2204210020FEF727FE0C220421102003
:102FC000FEF722FE7E2204212020FEF71DFE7F2236
:102FD00004213020FEF718FE10233A22042140205D
:102FE000FEF746FE102002230090B8480421026834
:102FF0004820FEF7CBFE0B2206210020FEF704FE40
:103000000B2206211020FEF7FFFD00E099E07C2254
:1030100006212020FEF7F8FD7D2206213020FEF754
:10302000F3FD10233A2206214020FEF721FE102056
:1030300002230090A648062102684820FEF7A6FE5B
:10304000A0480068012826D11023AFF29412022173
:103050006420FEF7DFFE1023AFF2A01204216420EB
:10306000FEF7D8FE1023AFF2AC1206216420FEF763
:10307000D1FE93480078032804D193480068401C8F
:10308000914908608E480078042804D18E48006871
:10309000401E8D4908608B480068022826D1102305
:1030A000AFF2E81202216420FEF7B4FE1023AFF263
:1030B000F81204216420FEF7ADFE1023AFF20422C3
:1030C00006216420FEF7A6FE7D480078032804D17F
:1030D0007E480068401C7D490860794800780428D3
:1030E00004D17A480068401E784908607548006835
:1030F000032826D11023AFF23C2202216420FEF7E0
:1031000089FE1023AFF24C2204216420FEF782FED8
:103110001023AFF25C2206216420FEF77BFE684894
:103120000078032804D16A480068401D6849086097
:1031300063480078042804D165480068401F64494A
:10314000086064A16548FDF79FFA041D5E4A64A10A
:103150002046FDF7D5F908B1FDF7DAFF61A15F4818
:10316000FDF792FAC41C594A5DA12046FDF7C8F943
:1031700008B1FDF7CDFF5CA15848FDF785FA441D65
:10318000534A57A12046FDF7BBF908B1FDF7C0FF30
:1031900057A15248FDF778FA68B1012055490870E7
:1031A00000204449283108605349C1F8840141494D
:1031B0002431086011E051A14848FDF765FA60B17B
:1031C00002204C49087000203A49283108604A49D9
:1031D000C1F8840137492431086046480078012845
:1031E0002AD14748807838490968884203DD0120A0
:1031F0003049086002E000202E490860404880788D
:1032000032490968884204DA01202A4928310860D5
:1032100003E00020274928310860394800782C490C
:103220000968884204DD012022492431086003E056
:1032300000202049243108602E480078022837D128
:1032400030480078012833D12FA12448FDF71CFA1B
:1032500018B101201749283108602CA11F48FDF73B
:1032600013FA18B1002013492831086028A11B481F
:10327000FDF70AFA10B101200E49086025A1174890
:10328000FDF702FA10B100200A49086022A1134894
:10329000FDF7FAF918B101200649243108601FA191
:1032A0000E48FDF7F1F918B10020024924310860F9
:1032B0000FE4000084812142040000200800002067
:1032C000280000201000002014000020180000201A
:1032D0001C0000206869676800000000622200206E
:1032E0003D2564006C6F75007368696475000000AB
:1032F0005A44000000000020008021425344000096
:103300002A000020310000204B4A5200474A520058
:103310004B5A4C00475A4C004B4A5300474A530003
:1033200010B50246012000E050430B1EA1F101043C
:10333000E1B2F9D110BD000010B51848007801289D
:1033400013D11F2200210846FEF75EFC2122002136
:103350001020FEF759FC6C2200212020FEF754FCBF
:103360006D2200213020FEF74FFC0C480078022827
:1033700013D1202200210846FEF746FC212200211D
:103380001020FEF741FC6C2200212020FEF73CFCBF
:103390006D2200213020FEF737FC10BD0000002018
:1033A00008B50848007800900648C378827806A1DE
:1033B0000A48FCF73FFF1023084A06210020FEF7C9
:1033C00029FD08BD2A000020543A25642E256443B7
:1033D0002020483A2564252520000000A020002058
:1033E00008B501210820FEF763FD4FF40060ADF839
:1033F000000010208DF8030003208DF802006946BC
:103400000148FEF76BF908BD000C014008B5012129
:103410000820FEF74DFD0220ADF8000010208DF8C9
:10342000030003208DF8020069460248FEF756F9B2
:1034300008BD0000000C014010B500290AD0087832
:10344000002807D005487844FDF772FC002801D019
:10345000002010BD0248784410BD0000B2080000F2
:10346000AA0800000000000000000000002F00007B
:1034700000000700070000147F147F1400242A7F37
:103480002A120062640813230036495522500000B6
:103490000503000000001C224100000041221C0026
:1034A0000014083E08140008083E0808000000A0A8
:1034B00060000008080808080000606000000020A4
:1034C00010080402003E5149453E0000427F400082
:1034D000004261514946002141454B310018141208
:1034E0007F10002745454539003C4A4949300001D5
:1034F0007109050300364949493600064949291E24
:103500000000363600000000563600000008142285
:103510004100001414141414000041221408000285
:103520000151090600324959513E007C1211127CAA
:10353000007F49494936003E41414122007F4141D7
:10354000221C007F49494941007F09090901003EC9
:103550004149497A007F0808087F0000417F410007
:10356000002040413F01007F08142241007F40407D
:103570004040007F020C027F007F0408107F003E65
:103580004141413E007F09090906003E4151215E4B
:10359000007F091929460046494949310001017F48
:1035A0000101003F4040403F001F2040201F003FDE
:1035B0004038403F00631408146300070870080790
:1035C00000615149454300007F41410000552A55A3
:1035D0002A55000041417F0000040201020400401E
:1035E0004040404000000102040000205454547840
:1035F000007F484444380038444444200038444460
:10360000487F00385454541800087E0901020018FD
:10361000A4A4A47C007F080404780000447D40003A
:10362000004080847D00007F102844000000417F1E
:103630004000007C04180478007C080404780038FA
:103640004444443800FC242424180018242418FC82
:10365000007C0804040800485454542000043F44EB
:103660004020003C4040207C001C2040201C003CAE
:103670004030403C004428102844001CA0A0A07CFE
:10368000004464544C441414141414140000000036
:10369000000000000000000000000000000000F832
:1036A00000000000000000333000000000100C0695
:1036B000100C0600000000000000000040C0784030
:1036C000C0784000043F04043F040400007088FCFC
:1036D00008300000001820FF211E0000F008F00054
:1036E000E018000000211C031E211E0000F00888C5
:1036F000700000001E2123241927211010160E002F
:10370000000000000000000000000000000000E0D9
:1037100018040200000000071820400000020418EE
:10372000E00000000040201807000000404080F04A
:10373000804040000202010F01020200000000F080
:10374000000000000101011F010101000000000054
:103750000000000080B070000000000000000000C9
:103760000000000000010101010101010000000052
:1037700000000000003030000000000000000000E9
:1037800080601804006018060100000000E01008C6
:103790000810E000000F102020100F00001010F89B
:1037A000000000000020203F2020000000700808DA
:1037B000088870000030282422213000003008885A
:1037C000884830000018202020110E000000C02082
:1037D00010F8000000070424243F240000F80888A3
:1037E000880808000019212020110E0000E0108830
:1037F00088180000000F112020110E000038080862
:10380000C83808000000003F000000000070880871
:1038100008887000001C222121221C0000E01008F2
:103820000810E0000000312222110F00000000C04B
:10383000C0000000000000303000000000000080E8
:1038400000000000000080600000000000008040D8
:1038500020100800000102040810200040404040F1
:103860004040400004040404040404000008102044
:103870004080000000201008040201000070480889
:103880000808F0000000003036010000C030C828F1
:10389000E810E0000718272423140B000000C038AC
:1038A000E0000000203C23020227382008F8888826
:1038B00088700000203F202020110E00C030080832
:1038C00008083800071820202010080008F8080809
:1038D0000810E000203F202020100F0008F8888802
:1038E000E8081000203F20202320180008F88888CE
:1038F000E8081000203F200003000000C030080846
:103900000838000007182020221E020008F80800CE
:103910000008F808203F210101213F20000808F895
:10392000080800000020203F2020000000000808B8
:10393000F8080800C08080807F00000008F888C078
:1039400028180800203F20012638200008F8080029
:1039500000000000203F20202020300008F8F80060
:10396000F8F80800203F003F003F200008F830C072
:103970000008F808203F200007183F00E010080862
:103980000810E0000F10202020100F0008F8080891
:103990000808F000203F210101010000E0100808A4
:1039A0000810E0000F18242438504F0008F88888C9
:1039B00088887000203F2000030C302000708808A9
:1039C000080838000038202121221C00180808F8B7
:1039D000080818000000203F2000000008F8080038
:1039E0000008F808001F202020201F000878880009
:1039F00000C83808000007380E010000F80800F879
:103A00000008F800033C0700073C03000818688022
:103A10008068180820302C03032C30200838C80098
:103A2000C83808000000203F2000000010080808E7
:103A3000C83808002038262120201800000000FE89
:103A4000020202000000007F40404000000C30C035
:103A500000000000000000010638C0000002020261
:103A6000FE000000004040407F0000000000040213
:103A7000020204000000000000000000000000003E
:103A8000000000008080808080808080000202042E
:103A90000000000000000000000000000000808026
:103AA000808000000019242222223F2008F8008094
:103AB00080000000003F112020110E000000008057
:103AC00080800000000E11202020110000000080E6
:103AD0008088F800000E112020103F200000808018
:103AE00080800000001F222222221300008080F02C
:103AF000888888180020203F202000000000808057
:103B000080808000006B94949493600008F800809B
:103B100080800000203F210000203F2000809898F6
:103B2000000000000020203F202000000000008056
:103B30009898000000C08080807F000008F8000096
:103B400080808000203F24022D302000000808F8EB
:103B5000000000000020203F2020000080808080A6
:103B600080808000203F20003F20003F8080008038
:103B700080800000203F210000203F200000808046
:103B800080800000001F202020201F0080800080F7
:103B90008000000080FFA12020110E0000000080A6
:103BA00080808000000E112020A0FF808080800097
:103BB0008080800020203F212000010000008080C4
:103BC000808080000033242424241900008080E0B9
:103BD000808000000000001F202000008080000086
:103BE00000808000001F202020103F208080800067
:103BF0000080808000010E30080601008080008077
:103C0000008080800F300C030C300F00008080009B
:103C1000808080000020312E0E31200080808000C6
:103C20000080808080818E70180601000080808076
:103C3000808080000021302C222130000000000014
:103C4000807C020200000000003F404000000000B5
:103C5000FF00000000000000FF0000000002027CE6
:103C6000800000000040403F00000000000601010D
:103C7000020204040000000000000000040000082C
:103C80000000000000000002000100001000000021
:103C9000636D643D31267569643D61653665343711
:103CA000626133373366343665373964623065387C
:103CB0006365366535306561336426746F7069639A
:103CC0003D646174612C636F6E74726F6C2C6F6EE7
:103CD0006C696E650D0A0000083E000800000020B7
:103CE000A020000028010008AC480008A020002007
:103CF000280A00008C0100081001000043000000A9
:103D0000F8FFFFFF004040404040404040404141FC
:103D100041414140404040404040404040404040A0
:103D2000404040404005020202020202020202023A
:103D30000202020202202020202020202020200237
:103D400002020202020290909090909010101010C7
:103D50001010101010101010101010101010101063
:103D600002020202020288888888888808080808F7
:103D700008080808080808080808080808080808C3
:103D800002020202400000000000000000000000EB
:103D90000000000000000000000000000000000023
:103DA0000000000000000000000000000000000013
:103DB0000000000000000000000000000000000003
:103DC00000000000000000000000000000000000F3
:103DD00000000000000000000000000000000000E3
:103DE00000000000000000000000000000000000D3
:103DF00000000000000000000000000000000000C3
:103E00000000000000000000200501000000045236
:103E100000082104120F04120A0832500C120A087A
:103E200003125000016138100C080889EA18880054
:103E30000404FC0404011028000F10020100FF011B
:103E400086402018074080403F20F0101010F01FDF
:103E500010F00040E05847405060C020100B402256
:103E6000150816210000FE42010211FE891005808E
:103E700060F80707000713FF4020100804A8200877
:103E8000FF000402013F40010211784113F01001CC
:103E900022FF050213F0EA120FD92304FF050211D5
:103EA0000F7F300A404042CC00808888FF03021117
:103EB0008021100B201F2040504C4340405F830165
:103EC00011802009FC242424FC252624080110C18B
:103ED000000F1140308F80844C55252525554C808E
:103EE00080601200742005E00204188C01117F60CC
:103EF00006100C030000FD0310010EA0000E1014AC
:103F0000A4442434AD6624940444A414FE100C0884
:103F1000090808090909FD09090B09021108C0135C
:103F2000FE220141050513401307020122FF05028D
:103F30001107FE1004F212FE02F00AF200844F2470
:103F400014244F845E040F10FF4A49484949FF007A
:103F50004049497F49494018051060028C1E229251
:103F60000109121F100A04047E01407E42427E02B3
:103F70000315427E40413F011740040B5244485014
:103F80007F40407F504844C0011E01031D3636214A
:103F9000021DFE41021A331D140A109453321E32C0
:103FA0005210001F0313427E6043FF49010E12FFAF
:103FB0001E031708CCA1000B114ACC18007F88887B
:103FC0008482E03E000914121252927F00007E208B
:103FD000200A20222A2AAA6A3A2E29010B10202020
:103FE000801DBC0333FF55010113803DBC03040B4E
:103FF000109000F888898E888888F8C0CC084482A0
:104000007F8140300FB604A51F000B1222322AA672
:10401000A262211109811E000F10004222130B42DF
:10402000827E02020A1223463E0010102030AC634A
:10403000300088C8A8998E88A8C8885E3006672294
:10404000121280811D86030E117121051F02C220EC
:104050000323FE82010E1202600453407F040E12FD
:104060004040041C07080888C8380C9C0323E80853
:10407000010D13800513404101227F050E1440C03D
:10408000040C0B140444645C47F444444404C0042A
:10409000111A200444447F060514800C0911504471
:1040A0005465C644645420032580000A11018282AD
:1040B0004A562322524EE12C08060909E6F80C0460
:1040C0001F040C041402041E410430041F3020FE9F
:1040D0000F1120107F031C07F80122A0A2A2810467
:1040E0000C0412AA320220060C0E15FF0010130A4F
:1040F0004B20170C133880FF40060C091504E4A46C
:10410000A4BFA4A4E440061DFC03224A0107157FB6
:104110004040140440A09EC00B119EA0C01D02068A
:104120000C0B123F908840432C10284641C00510CC
:10413000081715D55557557D04080414D5151700D3
:1041400049FF0F14557F40068208010D142003A17A
:10415000010D1240040C0613F8888C8A893D035D1A
:10416000000435FF0F13444400041F0000FF041D2A
:1041700001051DFF050F112322800535D9340442A6
:10418000827FE10A10020018044044C4584E408265
:10419000070D1181070C0B14103C131014B840309C
:1041A0000E0140081C0B00202020A06000FF608052
:1041B000640801121F10041008063B0407127F0058
:1041C00001020408002900080A16109010111610A8
:1041D00010D010000C0812415E4040704E41C007E4
:1041E0006C0440301E400809129F0C10118181415F
:1041F00021110D0301030D11214181813F071C098C
:1042000002FA02FE4020D8170A090111A01C0B80F7
:1042100047300F10678040211607090D12E1071D76
:10422000FB0411010C08100808FF08090AC8000463
:10423000200880601F0010201F4108051218264129
:10424000F83E12F80405188004071730101F08887C
:1042500048801D40041C044458C0A4040C0511C02F
:1042600050484620032680982DA1090E153F80094D
:104270002DD909040A11FE0042A29E82A2C2BE9F4D
:10428000400A6F080828CF00002FC808FD3F050C22
:104290000E11E222223E00809E9292F292929E8025
:1042A000094C074382423E4047C0040F5554E7C0C3
:1042B00007000415C03FC01A19973D83090C061169
:1042C00000030C1020A1091C04905234410524065F
:1042D000345280708F8AF1201008829A56632252DD
:1042E0008E48080413330C33003DDC090E14FF1E06
:1042F00006511E0D19400629BB10070082BAEABA02
:1043000083040E1182E0070C0F93180F04484A2A09
:10431000FF8A4A1A2F5A8A88000A1807201808C8E4
:1043200038CF200E1498000A2D43080C0753402163
:10433000060A1120C0095E7F20090A127F1A1DFF9C
:10434000031E1DF90323FF89010D120004040D1142
:10435000028282422212FA0622224242801C050177
:104360000100FC7D071E4580050E12FCC0083009C7
:1043700020180AAAAAAA0AFE060E102802050C0E88
:10438000110202FA0A0A7A0E0A7A0A4A8A7A800521
:104390001F000238032D3F0B11040211F21F11A060
:1043A0002A92830C0512324A4642A0081202381C97
:1043B00004FE020040050C0411F014135F051D3EBD
:1043C000040C0C1308FF048141310D030D31410031
:1043D00005400522428272050D13C0072DC1052E2E
:1043E0000EC60507134E80620C081A38340282C2CA
:1043F0007C38220B0F183737000B1C0A88C4338017
:104400009E909F909E83050E10F080051D3F090C25
:104410000D1580403E02023E108867186780800EAE
:104420001C04042424020C0D12000C3D800E3C04DC
:104430000000F9420B0E17F9C00A0C0612FE91801B
:10444000FF80810C3D40090C0A10008082462A132F
:104450002A468240041F80607E071004A4643F0542
:104460001F242409070D1001060C0C144829094DBE
:104470008D7B0B09284C983F0C2D7B0A41050D13B1
:10448000C2044D3A0F2D3E0F0E1141C0053D400DA7
:104490007D420F0D14400D0C0C1241E15149454372
:1044A000415161C10140061DD90F22C2050F1242C0
:1044B0004260071C062070282423E5070C051524FC
:1044C0002830E061050C07121806800007185E0509
:1044D00025C01141132621402F38604D030D12A035
:1044E000061C08D00804030408D09F050213805F4F
:1044F0002C040708B0C1100113621D940F43BEA223
:10450000010E15BE20041F06051B110C0652448423
:10451000443C00401029C1570040440E1340801114
:104520003D68090D143D038D800511010D11BF116A
:104530007D800F2DBF070C0451414070C003100750
:1045400000BE2A2A2AEA040E133E41073F44425C79
:10455000052D64050D11BF0C1DE10D1EFF40113F1F
:10456000FF0487100D1140032C0B88482F090919EF
:10457000AF48300F860A0D116008C1010D31A00F40
:104580000D3D800B830484010E1304DF0AA1010D8D
:10459000117F105E047C130D1480134F007F3F03C6
:1045A0001F2021A1110D12A2062E027F032DFD0F47
:1045B0000C041442C202800E7C0440784744080177
:1045C00015A000041621222CA06D00091D800B0CE3
:1045D000041518600000040F1642FE00045E8041BE
:1045E000094D3F090E4F80800A0D3E400A1C070806
:1045F000A4A3AAAAEA8307040412AA2AEA400C0F79
:10460000100485945C6624544C8405000F3040806F
:104610000B400620104C4754010C041BD40404C862
:104620001111400E8FF000091C040848887D091DF7
:1046300006130C0612061544847C800D1F0C039D86
:10464000142F101307120E1042E3030C0E13202038
:104650001010282422E12224281010400F2E013CA3
:10466000072E4F3E070D13A0111D811622CAF90E09
:1046700014FF00064D81164E0686070E5103C00C2E
:104680000D7E40120DFF00050DBC00056D81090D6A
:10469000177F093D80104DE40D0D157D0E0D3B403B
:1046A000070D3EC0031008407C407F484848270C57
:1046B000041123CC1060040C0E117F4844432428BD
:1046C000FF01091121D10D80033DE0051C04080400
:1046D000C39D110D13E0057DC6130D19001752225D
:1046E000010D131F1A1D3B036E0285120E150000EB
:1046F000140C0B148040B08E808087986080401A24
:104700003D80030D1442091D36120C0A12FF90144D
:10471000E4AFA4A4A4AF4014130403400C0911890E
:104720004B2A1A0E1A2A4BE0092004101090013D62
:1047300000131D84120D11000B2C0460203F39085A
:104740003D01070D1040061F8070FA045F10040140
:10475000030D10C0051F8060BF0A0E1830000A0D3F
:104760003E40074DC00C0118804DC00C0D18800A4A
:104770006E807D0C3106061480C1091B033DBB13FE
:104780001DC51B0D137F0E2D80133D81132D7F132F
:104790000D1380131D40161806202222A2FA450D83
:1047A0001540161D83180C041511201F430B4D3C9A
:1047B0001C1D98072D46130A14F88031391E7FA955
:1047C000140111401DC0171C04FF48488703021341
:1047D000FF3F0C1010008165080720C0080423C0AB
:1047E000030023C4821C100640504E4848422A4809
:1047F0001C0D1322191DBD0E080714FF12221E00E6
:104800000FC13C04020CC0A4093DBF030D11400CB4
:104810002E02350B0D17BF032DFF1B1C045A8620DB
:10482000C3071EE3C1070D12A00A0C0F4FFF0408B7
:1048300027110D41817F0105093100801B097F404F
:10484000ADA3050D1780136D7F13061440400D199D
:10485000C01C25402E07DE1E0C0511030C1422C0BF
:10486000194DDC042EFEDF040D1360179D3F052D4E
:104870000609014F804D082042FF078EEF361F6F5B
:104880000A30401F8E0D6B1E7D931CAC0B313233F2
:10489000343536373839304C202005010203040402
:0C48A000000900060708090204060800D1
:04000005080000ED02
:00000001FF
