:020000040800F2
:10000000B02A0020F1010008D51700085D1600088D
:10001000D1170008D70D00085F2500080000000078
:10002000000000000000000000000000DD1D0008CE
:100030002D0F000800000000BF1B0008C91E0008AB
:100040000B0200080B0200080B0200080B0200085C
:100050000B0200080B0200080B0200080B0200084C
:100060000B0200080B0200080B0200080B0200083C
:100070000B0200080B0200080B0200080B0200082C
:100080000B0200080B0200080B0200080B0200081C
:100090000B0200080B0200080B0200080B0200080C
:1000A0000B0200080B0200080B0200080B020008FC
:1000B0002D1F00080B0200080B0200080B020008AD
:1000C0000B0200080B0200080B0200080B020008DC
:1000D0000B02000889220008292300080B020008EF
:1000E0000B0200080B0200080B02000800F002F8E7
:1000F00000F06FF80AA090E8000C82448344AAF153
:100100000107DA4501D100F064F8AFF2090EBAE850
:100110000F0013F0010F18BFFB1A43F0010318473B
:10012000203800004038000010F8013B0A4413F06A
:10013000030408BF10F8014B1D1108BF10F8015B44
:10014000641E05D010F8016B641E01F8016BF9D133
:10015000002D15D010F8014B03F00C030C2BA1EB74
:1001600004040ABF10F8013BA4EB8314A4EB03249E
:1001700005F1010314F8016B5B1E01F8016BF9D561
:10018000914238BF10F8013BD1D3704700230024BF
:1001900000250026103A28BF78C1FBD8520728BF97
:1001A00030C148BF0B607047642900F0A9807329F3
:1001B00000F04983002070471FB500F0A5FD040042
:1001C0000020002102F06CFF401C60601FBD10B5D4
:1001D00010BD00F06BFD1146FFF7EEFF02F078FA5C
:1001E00000F096FD03B4FFF7F2FF03BC02F033FA10
:1001F0000948804709480047FEE7FEE7FEE7FEE7BB
:10020000FEE7FEE7FEE7FEE7FEE7FEE704480549F6
:10021000054A064B70470000CD1E0008ED0000089F
:10022000B0240020B02A0020B0260020B0260020F4
:10023000704700000FB41CB5084B06AA7B44694602
:100240000090059800F0D5FA04460020694600F0B9
:10025000E3FA20461CBC5DF814FB0000D905000041
:1002600070B5044685690068C10601D5302600E0F6
:100270002026C00707D070BDD4E901213046904741
:10028000206A401C20626D1EF6D570BD70B5044614
:1002900085690078C00707D170BDD4E9012120200D
:1002A0009047206A401C20626D1EF6D570BD70B567
:1002B0000C460546012A05D02878800600D5EA6953
:1002C000002302E0012305E05B1C934202D2E05CC4
:1002D0000028F9D1A869E618C01AA861286A18444C
:1002E00028622846FFF7BCFF04E0D5E9012114F895
:1002F000010B9047B442F8D32846FFF7C7FF70BD03
:100300002DE9F0410646002410687529314616A5EE
:1003100010D0AFF30080002802DA404213A507E0B6
:1003200031688A0701D512A502E0490704D511A555
:10033000012401E0AFF3008000210A2206F1240726
:1003400009E0B0FBF2FCB0FBF2F302FB1C00303022
:1003500078541846491C0028F3D123462A463046D3
:10036000BDE8F04100F0E7B9000000002D000000FA
:100370002B000000200000002DE9F05F89460446B4
:100380004FF0000ADFF874B1FB44C0F820A020460B
:10039000E1688847002874D0252806D0D4E90121D7
:1003A0009047206A401C2062F1E700265F46204605
:1003B000E16888472028054607DB312D05D27819EA
:1003C00010F8200C08B10643F1E7B00701D526F07C
:1003D0000406C4F81CA00027C4F818A02A2D09D0D0
:1003E000284602F031F938B304EB8708303DC8F8ED
:1003F000185019E059F8041B204604EB870291615C
:10040000E1688847012F054618D1E069002820DA05
:1004100026F020061DE0D8F8180000EB800005EB60
:1004200040003038C8F818002046E1688847054683
:1004300002F00AF90028EED1012F0AD02E2D08D1A2
:100440002046E16888477F1C0546022F46F02006BB
:10045000C4DBA069002803DA404246F00106A0612F
:10046000F00701D026F010066C2D0BD0682D09D0B6
:100470004C2D39D06A2D35D0742D35D07A2D33D00E
:1004800016E038E0E1682F4620468847B842054626
:1004900009D16C2F26D04FF48060E16806432046D6
:1004A0008847054604E06C2F1AD04FF4807006434D
:1004B0000DB3A5F14100192802D8203546F4006695
:1004C0004A462946204626604E46FFF76DFE80B11B
:1004D00001280BD0F61D26F0070000F1080956E7A9
:1004E0004020E4E78020D8E70020D6E706F10409A1
:1004F0004DE7284652E7206ABDE8F09F58350000D6
:100500000FB400B58DB010A9099000910B904FF079
:10051000FF300A9000200C90064878440690064868
:1005200078446A4607900F9909A800F0A5F90DB024
:100530005DF814FB7B030000930300002DE9FF5FCF
:100540001D464FF0FF3B91464FF000085F46D5E94E
:100550000146A96901987F1C8847296A8246884715
:100560000028F6D1BAF1FF3F0CD0002E24F4C0646D
:1005700019DD600614D5BAF12B0F09D0BAF12D0F91
:100580000ED103E0584604B0BDE8F09F44F4806407
:10059000A96901987F1C8847761E8246002E02DDDD
:1005A000BAF1300F03D0B9F1000F26D032E0A969BB
:1005B000761E01987F1C44F400748847002E824602
:1005C00005DDBAF1780F06D0BAF1580F03D0B9F1B2
:1005D000000F10D01EE0B9F1000F02D0B9F1100FDA
:1005E00018D1A969761E01987F1C24F400748847ED
:1005F0008246102002E0082000E00A20814609E03F
:10060000A96908FB0908761E01987F1C44F4007450
:1006100088478246002E05DD4946504600F017F90E
:100620000028EDDAE96901988847A00502D46FF047
:100630000100A8E7E00725D1600613D5600502D5C3
:10064000C8F1000000E0404629680A1D2A600968D8
:10065000220501D5087015E0220701D5088011E0B8
:1006600008600FE02868011D29600068210502D597
:1006700080F8008006E0210702D5A0F8008001E0A4
:10068000C0F8008038467EE730B505460B462A465E
:1006900013F8014B12F8010B08B1A042F8D01CB1BD
:1006A000002802D06D1CF1E7284630BD10B5431C70
:1006B00002E010F8011B71B18107FAD14FF001324D
:1006C00002C88C1A8C4314EAC211F9D0C01A0A0667
:1006D00003D0C01E10BDC01A10BD0A0401D0801E78
:1006E00010BD0902FCD0401E10BD4FF000020429CD
:1006F000C0F0128010F0030C00F0F080CCF1040C7C
:10070000BCF1020F18BF00F8012BA8BF20F8022B84
:10071000A1EB0C0100F0E2B85FEAC17C24BF00F855
:10072000012B00F8012B48BF00F8012B70477047E0
:100730007047704770472DE9F0470D46994692463D
:10074000044600F124080168880604D5E06921F018
:100750001001216000E00120A84201DD471B00E0FC
:100760000027A1697A1902EB0900081AA061207814
:10077000C00602D42046FFF773FD002608E0D4E946
:1007800001211AF806009047206A401C761C20625E
:100790004E45F4DB2078C0060AD52046FFF760FD01
:1007A00006E0D4E9012130209047206A401C2062F5
:1007B000381EA7F10107F4DC07E0D4E9012118F89D
:1007C00005009047206A401C2062281EA5F1010503
:1007D000F3DC2046FFF75AFD2078000602D5022000
:1007E000BDE8F0870120FBE701694A1C0261087837
:1007F000704700B58FB0CDE9013100210591054961
:100800007944CDE9031011466846FFF7B5FD0FB0F6
:1008100000BD0000E5FFFFFF0A6802F8010B0A6057
:10082000704710B5436913B1AFF3008001E0FFF7E3
:100830003EFD012010BD127800F124010A70002253
:100840004A700122EDE711684FF0FF32E9E73A28DC
:1008500000D2303820F02002412A01D3A2F1370023
:10086000884201D34FF0FF30704700000268114406
:100870001378016018467047D16005497944516189
:1008800004497944116200211161114600F054B805
:10089000EDFFFFFFA1000000426842B1016811F8BE
:1008A000013B23B1521EC0E90012184670470121D6
:1008B000C160881E704742685AB1C368016843B975
:1008C00083688B4205D0491E521CC0E900120020EB
:1008D00070474FF0FF3070474FF0000200B51346ED
:1008E00094469646203922BFA0E80C50A0E80C5050
:1008F000B1F12001BFF4F7AF090728BFA0E80C5001
:1009000048BF0CC05DF804EB890028BF40F8042BF9
:1009100008BF704748BF20F8022B11F0804F18BF66
:1009200000F8012B704710B5044600F0E5F90068A7
:10093000005D00F0010010BD2DE9F34F4FF0000AFB
:100940000C4656468DB001200C9001F10C000B9026
:1009500062690B9801219047051E2DD0252D2CD0C2
:10096000216A8847C0B162690B9801219047216ACA
:1009700088470028F7D16269411E0B98904700E034
:10098000761CA1690D988847216A88470028F7D10D
:10099000E1690D988847DBE7A1690D988847A8426F
:1009A000074601D1761CD3E7E1690D9888477F1C83
:1009B00002D1BAF1000F6FD06CE162690B98002789
:1009C0003D46394690472A2804D162690B98012197
:1009D00090470125DFF8D08262690B98012190478A
:1009E000A0F130010A290AD24745E5DC07EB87016F
:1009F00000EB4107303FDFD445F01005ECE7E90696
:100A000001D46FF000476C280AD04C2814D0682815
:100A100015D06A280DD074281CD07A281AD01DE071
:100A200062690B98012190476C2802D045F00405BB
:100A300014E045F002050DE045F020050AE062698A
:100A40000B9801219047682802D045F0080505E081
:100A500045F4006562690B9801219047C4E901578C
:100A600065283DD019DC58287AD00CDC452837D0D1
:100A700004DC252826D041289ED131E046282FD0FD
:100A8000472899D12CE05B2877D0612828D06328AB
:100A90007CD0642823D15AE0F7E06F2848D008DCE6
:100AA00066281DD067281BD0692821D06E2816D152
:100AB00027E0702845D0732868D0752847D078285B
:100AC0000DD14DE0A1690D988847252805463FF4D2
:100AD00069AFE1690D9888476D1C3FF46AAFD9E0B2
:100AE0000D9923466A466FF00100AFF30080C6E01F
:100AF00045F0400023464FF000026060A80736D45E
:100B00003EE0E8077FF447AF2068011D21600068E0
:100B1000290501D506701BE7290701D5068017E7CF
:100B2000A90703D5F117C0E9006111E706600FE7D7
:100B300045F0400023464FF008026060A80716D435
:100B40001EE040F60E0125EA0100606016E045F067
:100B5000400023464FF00A026060A80707D40FE068
:100B600045F040006060A80708D5234610220D9983
:100B70006FF00100AFF3008081E007E01022234610
:100B80000D996FF00100FFF7D9FC78E04FF00009F4
:100B900063284F46C8464B46CB4602D05B2807D059
:100BA00039E02079C00601D40120A060012732E09D
:100BB0006269D4F80CB00B98012190475E2807D1E8
:100BC0004FF0010949466269D4F80CB00B98904780
:100BD000216939B900210A4603AB43F82120491C99
:100BE0000829FADBD8B3216949B308F10108626921
:100BF0000B98012190475D28F4D1B9F1000F09D07D
:100C0000002003A951F82020D24341F82020401CA5
:100C10000828F7DB03AB2069002820794FEA4070F1
:100C20001ED05B462246CDF80080CDE901970D9994
:100C300000286FF0010020DAAFF300801FE0C11739
:100C400003AA00EBD1614B1121F01F0102EB8302DB
:100C5000411A13680120884003431360C7E719E075
:100C60000D99224600286FF00100009702DAAFF3D9
:100C7000008004E0AFF3008001E0AFF300800028C3
:100C80000ADA401C06D10C9820B14FF0FF300FB0AB
:100C9000BDE8F08F5046FAE7E90701D10AF1010AF1
:100CA000064400200C9053E6CCCCCC0C754600F0EA
:100CB00039F8AE4605006946534620F007008546E0
:100CC00018B020B5FFF7A2FABDE820404FF00006AB
:100CD0004FF000074FF000084FF0000B21F0070124
:100CE000AC46ACE8C009ACE8C009ACE8C009ACE867
:100CF000C0098D467047000010B500F005F8001DD2
:100D000010BD00BF9D230000004870476C240020E8
:100D100010B50446AFF300802046BDE81040FFF751
:100D200061BA0000004870474C2400204FF0013C9D
:100D300050F8042B51F8043B9A4221D1A2EB0C034A
:100D4000934313EACC1317D150F8042B51F8043B0A
:100D50009A4215D1A2EB0C03934313EACC130BD1A7
:100D600050F8042B51F8043B9A4209D1A2EB0C0332
:100D7000934313EACC13DBD04FF00000704700BF61
:100D8000D01A01BAB1FA81F101F0180122FA01F08A
:100D9000CB40C1F12001DBB2C0B2C01A2CFA01F382
:100DA000D11A914311EAC311E6D1704730B501461B
:100DB0000846CC1701EB14742411A1EB04140A4665
:100DC000CD1701EB15752D1105EB850504EB4504D9
:100DD000E3B2184630BD00BFFEE7000010B50024A6
:100DE0001548006820F47020134908600846006820
:100DF00040F40020086004E0601CC4B2012001F04F
:100E00004FFC0E48006808B1642CF5DB642C01DB54
:100E1000012010BD002404E0601CC4B2012001F0D8
:100E20003FFC0648006808B9642CF5DB642C01DB44
:100E30000120EEE70020ECE7040C01403081214264
:100E400008B50121082000F0CBFE4FF48050ADF82A
:100E5000000010208DF8030003208DF80200694681
:100E6000064800F023FB4FF48051044800F0F4FBE7
:100E700000F03CF8FFF7B2FF08BD0000000C014095
:100E800010B5002404E0601CC4B2012001F008FC8D
:100E90000D48006808B1642CF5DB002404E0601CF8
:100EA000C4B2012001F0FCFB0748006808B9642CBB
:100EB000F5DB282001F0F4FB0348006808B10120AD
:100EC00010BD0020FCE700003081214270B50024F5
:100ED000002506E06006040EFFF7D2FF0443681CFD
:100EE000C5B2082DF6DB204670BD000010B50C48D9
:100EF000006820F470200A4908600846006840F441
:100F000040300860002007490860142001F0BCFB55
:100F100001200549C1F8B0011E2001F0C1FB10BD40
:100F2000040C0140B0812142008021427047000042
:100F300010B500F0CFFB0020044908600449C1F857
:100F4000B4010021802000F077F810BDBC012242DE
:100F50000000224270B50546012601203349086091
:100F60000A2001F09DFB00241CE000202F490839D5
:100F700008600A2001F094FB05F0010020B1012077
:100F80002A49091F086003E000202849091F08605A
:100F90006D1001202549083908600A2001F080FB06
:100FA000601CC4B2082CE0DB2148406820F070606F
:100FB0001F4948600846406840F0006048600024CF
:100FC00016E0761000201949083908600A2001F05F
:100FD00067FB1848D0F8380108B146F080060120B8
:100FE0001249083908600A2001F05AFB601CC4B29B
:100FF000082CE6DB0E48406820F070600C49486021
:101000000846406840F040704860002007490839B1
:1010100008600A2001F044FB00200649C1F8BC0129
:101020000A2001F03DFB304670BD0000BC012242A9
:10103000001001400000224270B505460E463048BF
:10104000406820F070602E4948600846406840F0D3
:101050004070486001202B4908600A2001F020FB05
:1010600000202949C1F8B4010A2001F019FB00242D
:101070001CE005F0010020B101202249091F086091
:1010800003E000201F49091F08606D1001201D4961
:10109000083908600A2001F003FB00201A49C1F852
:1010A000B4010A2001F0FCFA601CC4B2082CE0DB99
:1010B00000241CE006F0010020B101201149091FA5
:1010C000086003E000200F49091F08607610012026
:1010D0000C49083908600A2001F0E2FA00200A49A8
:1010E000C1F8B4010A2001F0DBFA601CC4B2082C7C
:1010F000E0DB0020034908600A2001F0D1FA70BD4E
:1011000000100140BC0122420000224210B54FF401
:1011100080710348FFF7E9FA00200249088010BDFA
:101120004A2200208220002010B588B00446012108
:10113000042000F055FD0121480400F041FD182075
:101140008DF81F000420ADF81C0003208DF81E0050
:1011500007A97A4800F0AAF904208DF81F0008209A
:10116000ADF81C0003208DF81E0007A9734800F09D
:101170009DF903940020ADF818000C20ADF816007E
:101180000020ADF81400ADF81200ADF8100003A96E
:101190006B4801F06FF90121694801F003F9012260
:1011A00040F22551664801F040F926208DF80800EC
:1011B00001208DF80B008DF8090000208DF80A0041
:1011C00002A800F009FB0121042000F009FD022023
:1011D000ADF8040010208DF8070003208DF80600FC
:1011E00001A9564800F062F90221544800F032FA91
:1011F000C82001F049FA0221504800F02DFAFFF70B
:1012000085FF10234FA206212C2000F0AFFC02E046
:10121000642001F039FA4CA14CA000F0F3F818B1A9
:101220004C4800780028F3D110234BA206212C2033
:1012300000F09CFC02E0642001F026FA42A147A0E5
:1012400000F0E0F818B1434800780028F3D11023EB
:1012500046A206212C2000F089FC02E0642001F067
:1012600013FA39A142A000F0CDF818B1394800783E
:101270000028F3D110233DA206212C2000F076FC9B
:1012800002E0642001F000FA2FA141A000F0BAF8BA
:1012900018B1304800780028F3D1102340A206216D
:1012A0002C2000F063FC02E0642001F0EDF93DA188
:1012B0003EA000F0A7F818B1264800780028F3D126
:1012C000102344A206212C2000F050FC02E06420F0
:1012D00001F0DAF91CA140A000F094F818B11D4803
:1012E00000780028F3D110233FA206212C2000F023
:1012F0003DFC02E0642001F0C7F93CA13E4800F04B
:1013000081F818B1134800780028F3D1032011495F
:101310000870102339A206212C2000F027FC0020A1
:101320000C4908704FF4FA6001F0AEF9FFF7EEFED9
:10133000002000F093FA08B010BD00000008014042
:1013400000440040313025004F4B000041540D0A4D
:1013500000000000310000203230250041542B43B2
:10136000574D4F44453D330D0A00000033302500F2
:1013700041542B43574A41503D2271696469616E63
:10138000222C227164636638383838220D0A000036
:1013900041542B4349504D4F44453D310D0A000007
:1013A00035302500434F4E4E4543540041542B43A6
:1013B000495053544152543D22544350222C2262EE
:1013C000656D66612E636F6D222C383334340D0ADF
:1013D000000000003830250041542B43495053454C
:1013E0004E440D0A0000000039302500636D643D55
:1013F00031267265733D3100F838000831303025F0
:10140000000000002DE9F04104460D46C8262046A4
:10141000FFF74CF987B23A4621460D4801F0A1F892
:101420000FE000F029F848B929460A48FFF72CF9DF
:1014300020B1FFF76BFE0020BDE8F0810A2001F02B
:1014400023F9301EA6F10101CEB2EAD10120F3E763
:10145000004400404A22002070B50446FFF756FEC3
:101460002046FFF723F985B22A462146014801F0BC
:1014700078F870BD004400400A48008808B901208F
:1014800070470848008808490988884203D100202D
:1014900004490880F4E703480088034908800120D4
:1014A000EEE7000082200020842000202DE9F0419A
:1014B000024600250026002000230024002791F882
:1014C00003C00CF00F0591F803C00CF0100CBCF138
:1014D000000F03D091F802C04CEA050591F800C056
:1014E000BCF1000F31D0146800202BE04FF0010C4C
:1014F0000CFA00F3B1F800C00CEA03069E4220D1BA
:1015000083004FF00F0C0CFA03F7BC4305FA03FC01
:101510004CEA040491F803C0BCF1280F06D14FF047
:10152000010C0CFA00FCC2F814C00AE091F803C0E8
:10153000BCF1480F05D14FF0010C0CFA00FCC2F8C9
:1015400010C0401C0828D1D31460B1F800C0BCF111
:10155000FF0F34DD546800202EE000F1080C4FF03E
:10156000010808FA0CF3B1F800C00CEA03069E4229
:1015700021D183004FF00F0C0CFA03F7BC4305FA9E
:1015800003FC4CEA040491F803C0BCF1280F05D118
:1015900000F1080C08FA0CF8C2F8148091F803C0A6
:1015A000BCF1480F07D100F1080C4FF0010808FA10
:1015B0000CF8C2F81080401C0828CED35460BDE857
:1015C000F0810000F0B50A46002300240021002528
:1015D00000F00046B6F1004F02D11D4EF16901E066
:1015E0001B4E7168C0F3034583B200F44016B6F594
:1015F000401F08D121F07061154E766826F07066A4
:10160000134F7E6012E000F48016B6F5801F06D1FD
:10161000032606FA05F4A14341F0706106E0460D89
:10162000360103FA06F6B14341F0706122B1460D6E
:10163000360103FA06F6314300F00046B6F1004FDA
:1016400002D1034EF16101E0014E7160F0BD000076
:1016500000000140416170470161704700BFFEE733
:1016600010B54FF480710948FFF7F6FF4FF4007191
:101670000648FFF7F1FF4FF400710448FFF7EAFF57
:101680004FF480710148FFF7E5FF10BD000C0140E9
:1016900010B54FF480710748FFF7DEFF4FF400717B
:1016A0000448FFF7D7FF4FF400710248FFF7D4FF5B
:1016B00010BD0000000C014010B54FF480710448CB
:1016C000FFF7CAFF4FF480710148FFF7C3FF10BD59
:1016D000000C014008B501211C2000F081FA022015
:1016E0008DF802004FF46040ADF8000010208DF836
:1016F000030069460148FFF7D9FE08BD001001400C
:1017000010B5044614B1012023490870224800781E
:1017100058B32248006858B12048001D006838B10D
:101720001E480830006818B11C480C300068E0B949
:101730000A2000F0A9FF0020174908701748006828
:1017400008B9012010BD1548001D006808B9022025
:10175000F8E712480830006808B90320F2E70F489C
:101760000C300068B0B90420ECE70C480068012890
:1017700010D10A48001D006801280BD10748083025
:101780000068012806D105480C300068012801D105
:10179000014908700020D5E738200020108121423F
:1017A00008B50121082000F01BFA01210648FFF7C7
:1017B00009FF48208DF80300F020ADF800006946CD
:1017C0000248FFF773FE08BD00023000000C014024
:1017D00000BFFEE77047000070B5002100230F2214
:1017E000C47804B3154C246804F4E064C4F5E064E0
:1017F000210AC1F10403CA40447804FA03F1847851
:101800001440214309010E4C0678A155047804F0D8
:101810001F050124AC4005786D11AD0005F1E025F0
:10182000C5F8004109E0047804F01F050124AC402C
:10183000044D0678761145F8264070BD0CED00E0A9
:1018400000E400E080E100E002490143024A116047
:10185000704700000000FA050CED00E070B5064688
:10186000002418E004F1B000002100F09CF90021F0
:10187000084600F098F90021102000F094F90025A6
:1018800005E00121304600F08EF9681CC5B2802DBC
:10189000F7DB601CC4B2082CE4DB70BD08B5012185
:1018A000082000F09DF94FF44070ADF800001020C2
:1018B0008DF8030003208DF8020069463B48FFF7CE
:1018C000F5FD4FF440713948FFF7C6FEC82000F01F
:1018D000DBFE0021AE2000F066F90021084600F092
:1018E00062F90021102000F05EF90021402000F094
:1018F0005AF90021B02000F056F90021812000F0B3
:1019000052F90021FF2000F04EF90021A12000F043
:101910004AF90021A62000F046F90021A82000F095
:1019200042F900213F2000F03EF90021C82000F0DC
:101930003AF90021D32000F036F90021084600F0E2
:1019400032F90021D52000F02EF90021802000F08E
:101950002AF90021D82000F026F90021052000F006
:1019600022F90021D92000F01EF90021F12000F019
:101970001AF90021DA2000F016F90021122000F0F7
:1019800012F90021DB2000F00EF90021302000F0D8
:101990000AF900218D2000F006F90021142000F042
:1019A00002F90021AF2000F0FEF808BD000C014054
:1019B00070B504460D4605F1B000002100F0F3F8C3
:1019C000102141EA1410002100F0EDF804F00F009E
:1019D000002100F0E8F870BD2DE9F04180460E4688
:1019E0001546002731464046FFF7E2FF00240AE093
:1019F000124A02EB8511085D012100F0D4F8781C31
:101A0000C7B2601CC4B2102CF2DB701CC1B24046DD
:101A1000FFF7CEFF00240CE06900491C074A02EBE7
:101A20004111085D012100F0BEF8781CC7B2601CAE
:101A3000C4B2102CF0DBBDE8F081000038000020BB
:101A40002DE9F04707460E469046994600250024AA
:101A5000A8F12000C5B27F2F02DD0027B01CC6B25E
:101A6000B9F1100F24D131463846FFF7A1FF002409
:101A700008E004EB0511194A505C012100F093F8CD
:101A8000601CC4B2082CF4DB701CC1B23846FFF7EE
:101A90008FFF002409E004EB051108310F4A505C68
:101AA000012100F080F8601CC4B2082CF3DB12E0C6
:101AB00031463846FFF77CFF00240AE005EB45017C
:101AC000074A02EB4101085D012100F06CF8601C3F
:101AD000C4B2062CF2DBBDE8F0870000F432000847
:101AE000CC3000082DE9FF5F074691461E460E9D4B
:101AF0004FF0000A002435E0301B401EC1B20A201E
:101B000001F042FAB9FBF0F00A21B0FBF1F201FB5F
:101B10001208BAF1000F14D1701EA04211DDB8F105
:101B2000000F0CD1AB4605EBDB71491001FB0471D2
:101B3000C8B22B4620220199FFF782FF10E04FF038
:101B4000010AAB4605EBDB71491001FB0471C8B219
:101B500008F13001CAB22B460199FFF771FF00BFAF
:101B6000601CC4B2B442C7DBBDE8FF9F2DE9F04161
:101B700004460F461546984600260FE0AA5D4346E8
:101B800039462046FFF75CFF04F10800C4B2782C08
:101B900002DD0024B81CC7B2701CC6B2A85D0028C4
:101BA000ECD1BDE8F08170B504460D461DB1E0B240
:101BB00000F034FD02E0E0B200F01AFD70BD7047A5
:101BC00029B1064AD2690243044BDA6104E0034AB0
:101BD000D2698243014BDA61704700000010024075
:101BE00029B1064A92690243044B9A6104E0034A10
:101BF00092698243014B9A617047000000100240D5
:101C000030B500210022002400232D4D6D6805F021
:101C10000C0121B1042905D0082923D105E0294D63
:101C2000056022E0274D05601FE0254D6D6805F435
:101C30007012234D6D6805F48034022505EB924245
:101C40001CB9214D554305600BE01D4D6D6805F431
:101C500000351DB11C4D5543056002E0194D55433B
:101C6000056002E0174D056000BF00BF144D6D68B0
:101C700005F0F0010909154D6B5C0568DD40456014
:101C80000F4D6D6805F4E061090A104D6B5C456805
:101C9000DD4085600A4D6D6805F46051C90A0B4D41
:101CA0006B5C4568DD40C560054D6D6805F44041DD
:101CB000890B074D6B5CC568B5FBF3F5056130BD5D
:101CC0000010024000127A0000093D006E20002042
:101CD0007E20002010B58D20FFF73CF90446FFF769
:101CE00065F81D4988808920FFF734F90446FFF71D
:101CF0005DF8194988718720FFF72CF90446FFF732
:101D000055F81549C8718520FFF724F90446FFF7F7
:101D10004DF8114908708320FFF71CF90446FFF7BE
:101D200045F80D4948708120FFF714F900F07F0451
:101D30002046FFF73BF8084988708B20FFF70AF927
:101D40000446FFF733F8044908720846808800F516
:101D5000FA6000B2888010BD042200207CB50446E1
:101D6000FFF7C4F8FFF73AF840BB002505E0FFF79E
:101D7000ADF80DF80500681CC5B2052DF7DB9DF820
:101D800000009DF8011008449DF8021008449DF8D9
:101D9000031008449DF80410884211D19DF80000FA
:101DA00020709DF8010060709DF80200A0709DF801
:101DB0000300E0709DF80400207101E001207CBD6B
:101DC000207861780844A1780844E17808442179B2
:101DD000884201D10120F2E70020F0E7704710B5FA
:101DE00000F002F810BD00000CB50020019000903A
:101DF0003348006840F480303149086000BF304803
:101E0000006800F4003000900198401C0190009898
:101E100018B90198B0F5A06FF1D12948006800F415
:101E2000003010B10120009001E0002000900098E7
:101E3000012843D12348006840F010002149086080
:101E40000846006820F0030008600846006840F07B
:101E5000020008601A48406819494860084640680E
:101E600048600846406840F4806048600846406822
:101E700020F47C1048600846406840F4E810486050
:101E80000846006840F08070086000BF0C48006899
:101E900000F000700028F9D00948406820F00300E5
:101EA000074948600846406840F00200486000BFAB
:101EB0000348406800F00C000828F9D10CBD000070
:101EC00000100240002002407047000010B5134887
:101ED000006840F001001149086008464068104958
:101EE00008400E494860084600680E4908400B4902
:101EF00008600846006820F48020086008464068B2
:101F000020F4FE0048604FF41F008860FFF767FF71
:101F10004FF000600449086010BD0000001002404E
:101F20000000FFF8FFFFF6FE08ED00E010B501210C
:101F3000880700F0F9F8012803D10121800700F09B
:101F4000E4F810BD08B5FFF7C5FE61488078614927
:101F50000988884272D05E4880785E4908805C4873
:101F6000007818286BDC5A4840783C28FADC58483E
:101F7000007A0728F6DC5648C0791F28F2DC54485E
:101F800080790C28EEDC5248C07900905048837963
:101F9000B0F9042050A15448FEF74CF91023524ADE
:101FA00002210020FFF7E2FD494880780090484870
:101FB000437802784DA14C48FEF73CF910234A4A79
:101FC00004210020FFF7D2FD4148007A072877D28C
:101FD000DFE800F004142436465666006622042129
:101FE0005020FFF7F9FC5E2204216020FFF7F4FC8B
:101FF000652204217020FFF7EFFC61E066220421D6
:102000005020FFF7E9FC5E2204216020FFF7E4FC8A
:102010005F2204217020FFF7DFFC51E066220421DB
:102020005020FFF7D9FC5E2204216020FFF7D4FC8A
:10203000602204217020FFF7CFFC41E047E040E040
:10204000662204215020FFF7C7FC5E220421602095
:10205000FFF7C2FC612204217020FFF7BDFC2FE0D6
:10206000662204215020FFF7B7FC5E220421602085
:10207000FFF7B2FC622204217020FFF7ADFC1FE0E5
:10208000662204215020FFF7A7FC5E220421602075
:10209000FFF7A2FC632204217020FFF79DFC0FE0F4
:1020A000662204215020FFF797FC5E220421602065
:1020B000FFF792FC642204217020FFF78DFC00BF23
:1020C00005E010230DA206210020FFF74FFD08BDFB
:1020D000042200204E200020253034642D2530328B
:1020E000642D25303264200018220020253032640F
:1020F0003A253032643A25303264000073686962F0
:1021000061690000CA4302827047CA430282704775
:1021100021B1028842F00102028004E002884FF6F9
:10212000FE731A400280704730B50246002000233B
:102130000024158A05EA0103958905EA010413B113
:102140000CB1012000E0002030BD1AB183890B439F
:10215000838102E083898B438381704701894FF635
:10216000F872114001817047002202881D4B98428D
:102170000ED01D4B98420BD0B0F1804F08D01B4BB6
:10218000984205D01A4B984202D01A4B984204D17B
:102190004FF68F731A404B881A43174B984207D05B
:1021A000164B984204D04FF6FF431A40CB881A438F
:1021B00002808B8883850B8803850A4B98420BD05D
:1021C000094B984208D00E4B984205D00D4B9842CF
:1021D00002D00D4B984201D10B7A038601238382F2
:1021E00070470000002C0140003401400004004012
:1021F00000080040000C00400010004000140040A7
:102200000040014000440140004801401FB5012149
:102210000846FFF7D5FC4FF08040FFF79FFF0020F6
:10222000ADF80A00ADF8060044F61F60ADF80800EE
:1022300041F61F40ADF8040000208DF80C0001A904
:102240004FF08040FFF790FF01218807FFF75AFF0A
:10225000012211469007FFF778FF4FF4A060FFF7C7
:10226000F3FA1C208DF8000001208DF803008DF892
:10227000010000208DF802006846FFF7ADFA012149
:102280008807FFF745FF1FBD10B540F225512148D3
:1022900000F0A1F801283CD11E4800F057F9C4B263
:1022A0001D48007858B9402C2DD11C48007850BBEF
:1022B00001201949087000201949087023E01648C8
:1022C000007801280FD10D2C03D10220124908708B
:1022D00019E0144812490978445411480078401C08
:1022E0000F4908700FE00C48007802280BD10A2C27
:1022F00009D10020084908700A49094A127888540F
:1023000001200649087040F22551024800F03BF8D0
:1023100000BF10BD003801404C20002046200020A6
:102320004D200020D221002010B540F225510E484A
:1023300000F051F890B10D480088FF2802D9002024
:102340000A490880084800F001F9C1B2074802882C
:102350000088401C054B1880054881542021024804
:1023600000F008F810BD000000440040822000206A
:102370004A22002001F40072B2F5007F00D100BFB4
:10238000CA430280704710B50022002340F66A1449
:10239000A14200D100BF0A1201249440A3B2DC4341
:1023A000048010BD21B1828942F40052828104E090
:1023B00082894DF6FF731A408281704702460020E1
:1023C000B1F5007F00D100BF13880B400BB1012095
:1023D00000E00020704770B502460024002300256D
:1023E000002040F66A16B14200D100BFC1F3421589
:1023F00001F01F03012606FA03F3012D02D196898D
:10240000334006E0022D02D1168A334001E0968A5D
:1024100033400C12012606FA04F41688344013B136
:102420000CB1012000E0002070BDF0B5034600248F
:1024300000260025002040F66A17B94200D100BFEF
:102440001846C1F3421401F01F06012707FA06F5EA
:10245000012C01D10C3004E0022C01D1103000E03D
:1024600014301AB107682F43076002E00768AF43D2
:102470000760F0BD2DE9F04786B005460E46002402
:10248000A24600BFA1460027B08900B100BF2F4679
:102490002C8A4CF6FF700440F08804432C82AC89EF
:1024A0004EF6F3100440B08831890843718908431F
:1024B0000443AC81AC8A4FF6FF400440B08904432A
:1024C000AC8201A8FFF79CFB1F48874202D1DDF8D0
:1024D00010A001E0DDF80CA0A88900F4004040B194
:1024E0000AEBCA0000EB0A1031684900B0FBF1F8B2
:1024F00007E00AEBCA0000EB0A1031688900B0FB64
:10250000F1F86420B8FBF0F004012009642101FB1C
:102510001089A88900F4004040B1322000EBC900C6
:10252000B0FBF1F000F00700044308E0322000EBBC
:1025300009106421B0FBF1F000F00F0004432C817E
:1025400006B0BDE8F08700000038014001468888E9
:10255000C0F308007047C1F308028280704700BFD3
:10256000FEE72DE9F04107460C46154600260DE032
:1025700014F8011B3846FFF7EEFF00BF4021384634
:10258000FFF71CFF0028F9D0701C86B2AE42EFDBCB
:10259000BDE8F0812DE9F04105462C464FF48071ED
:1025A0001248FFF757F800261CE0274607F080077F
:1025B000802F04D1B9000D48FFF74EF804E04FF426
:1025C00000710A48FFF746F86006040E4FF4807168
:1025D0000648FFF741F84FF480710448FFF73AF8D6
:1025E000701CC6B2082EE0DBBDE8F081000C014093
:1025F00010B50446FFF734F87820FFF7CBFFFFF75C
:102600005BF80020FFF7C6FFFFF756F82046FFF7FC
:10261000C1FFFFF751F8FFF73BF810BD10B50446B6
:10262000FFF71EF87820FFF7B5FFFFF745F84020C9
:10263000FFF7B0FFFFF740F82046FFF7ABFFFFF7CB
:102640003BF8FFF725F810BD30380A2801D20120E9
:1026500070470020704700BF7047000008B5012197
:102660000820FFF7BDFA4FF48060ADF8000010209D
:102670008DF8030003208DF8020069460148FEF73B
:1026800015FF08BD000C014000B5034603E04FF400
:102690007A7000F005F8181EA3F10103F7D100BD10
:1026A00000EBC001C9004FF0E022516100219161AF
:1026B0000521116100BF4FF0E021096901F480316B
:1026C0000029F8D004214FF0E0221161704700008A
:1026D0001FB54FF4A060FFF7B7F8FFF761F8FFF7F9
:1026E000DDF80020FFF7BAF8FEF722FCFEF7A8FBA2
:1026F00000F0AAFC00F0BEFCFFF7B0FF00BF3422E0
:1027000000210846FFF768F9352200211220FFF763
:1027100063F9362200212420FFF75EF937220021D9
:102720003420FFF759F9382200214420FFF754F9EB
:10273000392200215420FFF74FF93A22002164206A
:10274000FFF74AF91023FDA204210820FFF70EFA33
:10275000342204211820FFF73FF91023F8A20421A6
:102760003E20FFF703FA352204214E20FFF734F90B
:102770000020FEF7C5FFF3490870084600780128DD
:1027800038D10020FFF76AF8152203210020FFF757
:1027900023F9162203211220FFF71EF91722032125
:1027A0002420FFF719F9182203213620FFF714F926
:1027B0001023E5A203214820FFF7D8F91023E4A253
:1027C00003216C20FFF7D2F9042206210020FFF735
:1027D00003F9052206211220FFF7FEF80D2206213B
:1027E0002420FFF7F9F84FF4E130FEF79DFCFFF7E6
:1027F0000DFD03E0D3480078022880D100BF0020FF
:10280000FFF72CF88DE3D348FFF7A8FAD2480078F9
:1028100000281BD0D1480078002817D1CE49087075
:10282000CC484078CB490978CA4AD278C94B9B78C2
:10283000CDE90032CDE90210C9480378C9A2D2A17E
:10284000DD48FDF7F7FCDC48FEF706FE0020FEF74A
:1028500057FFBC4908700846007801280ED1D748B8
:102860000068401CD54908600020FEF7F7FFD348F8
:102870000068042802D10120D0490860CF480068D0
:1028800001282ED1CE48006828B90120CC49086023
:102890000020FEF7E3FF00F083FBFFF753FB00F09F
:1028A000B3FBA848007804280BD10220AC4908707B
:1028B0000020C4490860C449C1F88401C149091F06
:1028C0000860A048007803280BD10120A4490870B3
:1028D0000020BC490860BC49C1F88401B949091FFE
:1028E0000860B648006802287ED1B5480068012813
:1028F00005D10220B24908600020FEF7AFFF9148E1
:10290000007802280AD1B1480068401CAF4908602D
:1029100008460068042801D10120086074220021C3
:102920000846FFF759F8752200211020FFF754F8E8
:102930001023A7A200212020FFF718F976220221F8
:102940000020FFF749F8772202211020FFF744F812
:1029500010239FA202212020FFF708F978220421EA
:102960000020FFF739F8792204211020FFF734F80E
:10297000102397A204212020FFF7F8F8934800685D
:10298000012824D1102393A200213C20FFF7EEF868
:10299000102391A202213C20FFF7E8F810238EA219
:1029A00004213C20FFF7E2F86D48007802280ED1A0
:1029B00064480078032803D101208249086006E0BA
:1029C00060480078042802D100207E4908607F48D2
:1029D0000068022828D110237FA200213C20FFF7A5
:1029E000C5F810237BA200E078E002213C20FFF72D
:1029F000BDF8102378A204213C20FFF7B7F858480F
:102A00000078022810D14F480078032804D1012013
:102A10006C492839086007E04A480078042803D147
:102A2000002068492839086068480068032826D1D2
:102A3000102369A200213C20FFF798F8102366A21A
:102A400002213C20FFF792F8102362A204213C20CF
:102A5000FFF78CF842480078022810D139480078F6
:102A6000032804D101205749091F086007E03548B1
:102A70000078042803D100205249091F08605148FA
:102A80000068012805D17A2200212820FEF7A4FF42
:102A900004E07B2200212820FEF79EFF49482838C9
:102AA0000068012805D17A2202212820FEF794FF30
:102AB00004E07B2202212820FEF78EFF4148001F00
:102AC0000068012805D17A2204212820FEF784FF1E
:102AD00004E07B2204212820FEF77EFF37480068AF
:102AE00003287DD136480068022805D101203449E9
:102AF00008600020FEF7B2FE1248007802280AD1D2
:102B000036480068401C35490860084600680428BB
:102B100001D1012008601A2200211F20FEF75CFF6E
:102B20001B2200212F20FEF757FF1C2200213F20EF
:102B3000FEF752FF1D2200214F2052E0312E0000EF
:102B4000322E0000280000205749464900000000AE
:102B50002E2E00002A0000202F000020310000202F
:102B600000000020616536653437626133373366B3
:102B700034366537396462306538636536653530BB
:102B80006561336400000000636D643D3226756941
:102B9000643D257326746F7069633D6461746126BA
:102BA0006D73673D2325642325642E2564232564E6
:102BB0002E2564230D0A0000EC20002004000020D4
:102BC00008000020AC812142008021420C0000203E
:102BD0003A0000003C00000020000000100000202F
:102BE000EBE0FEF7F9FE0A2202210020FEF7F4FED8
:102BF0000C2202211020FEF7EFFE7C220221202071
:102C0000FEF7EAFE7D2202213020FEF7E5FE1023CA
:102C10003A2202214020FEF713FF102002230090E9
:102C2000C048194602684820FEF75CFF0A220421CA
:102C30000020FEF7D1FE0C2204211020FEF7CCFE6E
:102C40007E2204212020FEF7C7FE7F2204213020AF
:102C5000FEF7C2FE10233A2204214020FEF7F0FEC8
:102C6000102002230090B048042102684820FEF79B
:102C700039FF0B2206210020FEF7AEFE0B220621B3
:102C80001020FEF7A9FE7C2206212020FEF7A4FEDC
:102C90007D2206213020FEF79FFE10233A220621D6
:102CA0004020FEF7CDFE1020022300909F48062111
:102CB00002684820FEF716FF9D480068012826D1CB
:102CC0001023AFF2F00202216420FEF74FFF102321
:102CD000AFF2FC0204216420FEF748FF1023AFF29C
:102CE000081206216420FEF741FF9248007803286D
:102CF00004D18C480068401C8A4908608D480078DF
:102D0000042804D187480068401E86490860884826
:102D10000068022826D11023AFF244120221642059
:102D2000FEF724FF1023AFF2541204216420FEF7B3
:102D30001DFF1023AFF2601206216420FEF716FF7C
:102D40007C480078032804D177480068401C764905
:102D5000086078480078042804D173480068401E51
:102D60007149086072480068032826D11023AFF229
:102D7000981202216420FEF7F9FE1023AFF2A81288
:102D800004216420FEF7F2FE1023AFF2B8120621F0
:102D90006420FEF7EBFE67480078032804D16348FF
:102DA0000068401D6149086062480078042804D129
:102DB0005E480068401F5D4908605FA16048FDF7FC
:102DC00063FC041D574A5FA12046FDF799FB08B13B
:102DD000FEF79CF95CA15A48FDF756FCC41C524A08
:102DE00058A12046FDF78CFB08B1FEF78FF957A1DB
:102DF0005348FDF749FC441D4C4A52A12046FDF7BB
:102E00007FFB08B1FEF782F952A14D48FDF73CFC6B
:102E100060B10120504908700020504908605049B5
:102E2000C1F884014D49091F086010E04DA14448D4
:102E3000FDF72AFC58B10220474908700020474995
:102E400008604749C1F884014449091F08604248A5
:102E5000007801282AD1444880783249096888429C
:102E600004DD01203D492839086003E000203B498A
:102E7000283908603C4880782B490968884203DA81
:102E800001203649086002E00020344908603648D5
:102E9000007826490968884204DD01202F49091F6E
:102EA000086003E000202D49091F08602A480078C7
:102EB000022836D12D48007898BB2DA12048FDF777
:102EC000E3FB10B10120254908602AA11C48FDF749
:102ED000DBFB10B100202149086027A11848FDF74D
:102EE000D3FB18B101201D492839086023A11448DB
:102EF000FDF7CAFB18B1002018492839086020A145
:102F00000F48FDF7C1FB18B101201449091F0860E3
:102F10001CA10B48FDF7B8FB18B100200F49091F91
:102F2000086070E414000020180000201C0000203D
:102F30001000002028000020686967680000000079
:102F40004A2200203D2564006C6F75007368696437
:102F5000750000005A44000000000020AC812142AE
:102F600000802142534400002A000020310000204C
:102F70004B4A5200474A52004B5A4C00475A4C00A9
:102F80004B4A5300474A530010B50246012000E067
:102F900050430B1EA1F10104E1B2F9D110BD0000B4
:102FA00010B518480078012813D11F2200210846C7
:102FB000FEF712FD212200211020FEF70DFD6C22EC
:102FC00000212020FEF708FD6D2200213020FEF7B1
:102FD00003FD0C480078022813D120220021084666
:102FE000FEF7FAFC212200211020FEF7F5FC6C22EE
:102FF00000212020FEF7F0FC6D2200213020FEF79A
:10300000EBFC10BD0000002008B5084800780090D7
:1030100006488278002306A10A48FDF70BF9102321
:10302000084A06210020FEF7A1FD08BD2A00002065
:10303000543A25642E2564432020483A25642525EA
:10304000200000008820002008B501210820FEF79C
:10305000C7FD4FF40060ADF8000010208DF80300AC
:1030600003208DF8020069460148FEF71FFA08BDEB
:10307000000C014008B501210820FEF7B1FD022037
:10308000ADF8000010208DF8030003208DF8020039
:1030900069460248FEF70AFA08BD0000000C01402C
:1030A00010B500290AD00878002807D005487844D0
:1030B000FDF73CFE002801D0002010BD02487844F6
:1030C00010BD0000B2080000AA08000000000000C7
:1030D00000000000002F000000000700070000149F
:1030E0007F147F1400242A7F2A12006264081323AD
:1030F00000364955225000000503000000001C2244
:103100004100000041221C000014083E0814000881
:10311000083E0808000000A0600000080808080831
:10312000000060600000002010080402003E5149C9
:10313000453E0000427F4000004261514946002167
:1031400041454B31001814127F1000274545453981
:10315000003C4A49493000017109050300364949DC
:10316000493600064949291E000036360000000095
:1031700056360000000814224100001414141414E0
:103180000000412214080002015109060032495989
:10319000513E007C1211127C007F49494936003EA5
:1031A00041414122007F4141221C007F4949494160
:1031B000007F09090901003E4149497A007F08085A
:1031C000087F0000417F4100002040413F01007F17
:1031D00008142241007F40404040007F020C027FE3
:1031E000007F0408107F003E4141413E007F0909F5
:1031F0000906003E4151215E007F0919294600461B
:10320000494949310001017F0101003F4040403FF1
:10321000001F2040201F003F4038403F006314083B
:103220001463000708700807006151494543000016
:103230007F41410000552A552A55000041417F0039
:10324000000402010204004040404040000001022E
:103250000400002054545478007F48444438003817
:103260004444442000384444487F0038545454189F
:1032700000087E0901020018A4A4A47C007F0804B1
:1032800004780000447D4000004080847D00007F81
:10329000102844000000417F4000007C041804789E
:1032A000007C0804047800384444443800FC24249A
:1032B00024180018242418FC007C08040408004882
:1032C0005454542000043F444020003C4040207CA3
:1032D000001C2040201C003C4030403C0044281092
:1032E0002844001CA0A0A07C004464544C44141446
:1032F000141414140000000000000000000000007E
:1033000000000000000000F8000000000000003392
:103310003000000000100C06100C06000000000039
:103320000000000040C07840C0784000043F040422
:103330003F040400007088FC08300000001820FFE3
:10334000211E0000F008F000E018000000211C031E
:103350001E211E0000F00888700000001E2123249A
:103360001927211010160E000000000000000000B8
:1033700000000000000000E0180402000000000748
:103380001820400000020418E0000000004020184F
:1033900007000000404080F0804040000202010F22
:1033A00001020200000000F0000000000101011F06
:1033B00001010100000000000000000080B070006A
:1033C00000000000000000000000000000010101FA
:1033D0000101010100000000000000000030300089
:1033E0000000000000000000806018040060180663
:1033F0000100000000E010080810E000000F10209D
:1034000020100F00001010F8000000000020203FE6
:103410002020000000700808088870000030282470
:103420002221300000300888884830000018202011
:1034300020110E000000C02010F800000007042436
:10344000243F240000F8088888080800001921207B
:1034500020110E0000E0108888180000000F1120D5
:1034600020110E0000380808C83808000000003F8E
:10347000000000000070880808887000001C2221ED
:1034800021221C0000E010080810E000000031229A
:1034900022110F00000000C0C0000000000000303A
:1034A000300000000000008000000000000080608C
:1034B000000000000000804020100800000102040D
:1034C00008102000404040404040400004040404F4
:1034D00004040400000810204080000000201008B0
:1034E00004020100007048080808F00000000030E5
:1034F00036010000C030C828E810E0000718272473
:1035000023140B000000C038E0000000203C230220
:103510000227382008F8888888700000203F202083
:1035200020110E00C03008080808380007182020B5
:103530002010080008F808080810E000203F2020AC
:1035400020100F0008F88888E8081000203F20208D
:103550002320180008F88888E8081000203F200081
:1035600003000000C03008080838000007182020B9
:10357000221E020008F808000008F808203F210178
:1035800001213F20000808F8080800000020203F23
:103590002020000000000808F8080800C080808093
:1035A0007F00000008F888C028180800203F20018C
:1035B0002638200008F8080000000000203F2020E6
:1035C0002020300008F8F800F8F80800203F003FFD
:1035D000003F200008F830C00008F808203F200015
:1035E00007183F00E01008080810E0000F10202026
:1035F00020100F0008F808080808F000203F2101FB
:1036000001010000E01008080810E0000F18242451
:1036100038504F0008F8888888887000203F2000C4
:10362000030C30200070880808083800003820217A
:1036300021221C00180808F8080818000000203F84
:103640002000000008F808000008F808001F2020EB
:1036500020201F000878880000C8380800000738BC
:103660000E010000F80800F80008F800033C07000D
:10367000073C0300081868808068180820302C0375
:10368000032C30200838C800C83808000000203F4C
:103690002000000010080808C8380800203826213B
:1036A00020201800000000FE020202000000007F3F
:1036B00040404000000C30C000000000000000014D
:1036C0000638C00000020202FE0000000040404038
:1036D0007F0000000000040202020400000000005D
:1036E00000000000000000000000000080808080DA
:1036F00080808080000202040000000000000000C2
:10370000000000000000808080800000001924225A
:1037100022223F2008F8008080000000003F112096
:1037200020110E000000008080800000000E11209B
:1037300020201100000000808088F800000E112079
:1037400020103F200000808080800000001F222287
:1037500022221300008080F0888888180020203FF3
:10376000202000000000808080808000006B949406
:103770009493600008F8008080800000203F2100C2
:1037800000203F2000809898000000000020203F8B
:1037900020200000000000809898000000C0808079
:1037A000807F000008F8000080808000203F240215
:1037B0002D302000000808F8000000000020203F05
:1037C000202000008080808080808000203F2000BA
:1037D0003F20003F8080008080800000203F21004B
:1037E00000203F200000808080800000001F2020FB
:1037F00020201F00808000808000000080FFA1202A
:1038000020110E000000008080808000000E11203A
:1038100020A0FF80808080008080800020203F21C9
:10382000200001000000808080808000003324247C
:1038300024241900008080E0808000000000001F28
:10384000202000008080000000808000001F2020D9
:1038500020103F20808080000080808000010E309A
:103860000806010080800080008080800F300C03FB
:103870000C300F0000808000808080000020312EFE
:103880000E312000808080000080808080818E70DA
:103890001806010000808080808080000021302C8C
:1038A0002221300000000000807C020200000000A5
:1038B000003F404000000000FF000000000000004A
:1038C000FF0000000002027C800000000040403F3A
:1038D00000000000000601010202040400000000D4
:1038E00000000000040000080000000000000002CA
:1038F0000001000010000000636D643D3126756911
:10390000643D646132383637653436386233346644
:1039100033396131326236353334323762303866AA
:10392000343026746F7069633D646174612C636F19
:103930006E74726F6C2C6F6E6C696E650D0A000090
:10394000703A0008000000208820000028010008CC
:103950000C45000888200020280A00008C0100087F
:103960001001000043000000F8FFFFFF004040404E
:103970004040404040404141414141404040404042
:1039800040404040404040404040404040050202EE
:1039900002020202020202020202020202202020AD
:1039A0002020202020202002020202020202909009
:1039B0009090909010101010101010101010101007
:1039C000101010101010101002020202020288885B
:1039D0008888888808080808080808080808080867
:1039E000080808080808080802020202400000004F
:1039F00000000000000000000000000000000000C7
:103A000000000000000000000000000000000000B6
:103A100000000000000000000000000000000000A6
:103A20000000000000000000000000000000000096
:103A30000000000000000000000000000000000086
:103A40000000000000000000000000000000000076
:103A50000000000000000000000000000000000066
:103A60000000000000000000000000000000000056
:103A7000200501000000045200082104122804124D
:103A8000140812320810060F000A00500271014299
:103A9000012E100C080889EA1888000404FC0404AC
:103AA000F20001000F10020100FF018640201807FC
:103AB0004080403F20F0101010F01F10F00040E058
:103AC0005847405060C020100B40221508162100B6
:103AD00000FE42010210FE601006008060F8070739
:103AE000000710FF40201008048011C82008FF00C4
:103AF0000402013F40010211784113F0100122FF3E
:103B0000050211F05F11FA11D92304FF0502110F0C
:103B10007F300A404042CC00808888FF0302118039
:103B200021100B201F2040504C4340405F83011167
:103B3000802009FC242424FC252624080110C1002F
:103B40000F1140308F80844C55252525554C8080A1
:103B5000601200742005E00204188C01117F6006D9
:103B6000100C030000FD0310010EA0000E1014A4A1
:103B7000442434AD6624940444A414FE100C0809B3
:103B80000808090909FD09090B09021108C013FEFB
:103B9000220141050513401307020122FF0502110E
:103BA00007FE1004F212FE02F00AF200844F241401
:103BB000244F845E040F10FF4A49484949FF0040E2
:103BC00049497F49494018051060028C1E22920124
:103BD00009121F100A04047E01407E42427E020345
:103BE00015427E40413F011740040B524448507F2C
:103BF00040407F504844C0011E01031D363621025B
:103C00001DFE41021A331D140A109453321E325203
:103C100010001F0313427E6043FF49010E12FF1E76
:103C2000031708CCA1000B114ACC18007F888884A8
:103C300082E03E000914121252927F00007E202082
:103C40000A20222A2AAA6A3A2E29010B1020208053
:103C50001DBC0333FF55010113803DBC03040B1051
:103C60009000F888898E888888F8C08C0844827F04
:103C70008140300FDA04E51F000B1222322AA6A27F
:103C800062211109811E000F10004222130B428293
:103C90007E02020A1223463E0010102030AC633030
:103CA0000088C8A8998E88A8C8885E300667221246
:103CB0001280811D86030E117121051F02C220038F
:103CC00023FE82010E1202600453407F040E124054
:103CD00040041C07080888C8380C9C0323E8080126
:103CE0000D13800513404101227F050E1440C004CE
:103CF0000C0B140444645C47F444444404C00411B1
:103D00001A200444447F060514800C0911504454C1
:103D100065C644645420032580000A110182824A4A
:103D2000562322524EE12C08060909E6F80C041F1E
:103D3000040C041402041E410430041F3020FE0F42
:103D40001120107F031C07F80122A0A2A281040CFD
:103D50000412AA320220060C0E15FF0010130A4BA3
:103D600020170C133880FF40060C091504E4A4A4A6
:103D7000BFA4A4E440061DFC03224A0107157F40AE
:103D800040140440A09EC00B119EA0C01D02060C52
:103D90000B123F908840432C10284641C005100864
:103DA0001715D55557557D04080414D51517004926
:103DB000FF0F14557F40068208010D142003A10156
:103DC0000D1240040C0613F8888C8A893D035D00AF
:103DD0000435FF0F13444400041F0000FF041D01BD
:103DE000051DFF050F112322800535D934044282B9
:103DF0007FE10A10020018044044C4584E40820774
:103E00000D1181070C0B14103C131014B840300E28
:103E10000140081C0B00202020A06000FF6080648F
:103E20000801121F10041008063B0407127F00014E
:103E3000020408002900080A16109010111610102C
:103E4000D010000C0812415E4040704E41C0076C1B
:103E50000440301E400809129F0C1011818141213D
:103E6000110D0301030D11214181813F071C09023E
:103E7000FA02FE4020D8170A090111A01C0B804746
:103E8000300F10678040211607090D12E1071DFB56
:103E90000411010C08100808FF08090AC8000420D2
:103EA0000880601F0010201F41080512182641F8E5
:103EB0003E12F80405188004071730101F088848C0
:103EC000801D40041C044458C0A4040C0511C050BB
:103ED000484620032680982DA1090E153F80092D04
:103EE000D909040A11FE0042A29E82A2C2BE9F40CE
:103EF0000A6F080828CF00002FC808FD3F050C0EE8
:103F000011E222223E00809E9292F292929E8009BD
:103F10004C074382423E4047C0040F5554E7C00758
:103F2000000415C03FC01A19973D83090C06110003
:103F3000030C1020A1091C049052344105240634BE
:103F40005280708F8AF1201008829A566322528E16
:103F500048080413330C33003DDC090E14FF1E0621
:103F6000511E0D19400629BB10070082BAEABA8318
:103F7000040E1182E0070C0F93180F04484A2AFF21
:103F80008A4A1A2F5A8A88000A1807201808C8383F
:103F9000CF200E1498000A2D43080C075340210629
:103FA0000A1120C0095E7F20090A127F1A1DFF0333
:103FB0001E1DF90323FF89010D120004040D1102D7
:103FC0008282422212FA0622224242801D670D1E80
:103FD000FC7D071E4580050E12FCC0083009201824
:103FE0000AAAAAAA0AFE060E102802050C0E110241
:103FF00002FA0A0A7A0E0A7A0A4A8A7A80051F00A9
:104000000238032D3F0B11040211F21F11A02A9256
:10401000830C0512324A4642A0081202381C04FEE4
:10402000020040050C0411F014135F051D3E040C42
:104030000C1308FF048141310D030D31410005408F
:104040000522428272050D13C0072DC1052E0EC632
:104050000507134E80620C081A38340282C27C387D
:10406000220B0F183737000B1C0A88C433809E9030
:104070009F909E83050E10F080051D3F090C0D15C5
:1040800080403E02023E108867186780800E1C0444
:10409000042424020C0D12000C3D800E3C04000090
:1040A000F9420B0E17F9C00A0C0612FE9180FF8030
:1040B000810C3D40090C0A10008082462A132A46D2
:1040C0008240041F80607E071004A4643F051F2403
:1040D0002409070D1001060C0C144829094D8D7B8D
:1040E0000B09284C983F0C2D7B0A41050D13C20487
:1040F0004D3A0F2D3E0F0E1141C0053D400D7D4242
:104100000F0D14400D0C0C1241E151494543415132
:1041100061C10140061DD90F22C2050F1242426043
:10412000071C062070282423E5070C0515242830D9
:10413000E061050C07121806800007185E0525C00F
:104140001141132621406F3860B410EDA0061C0801
:10415000D00804030408D09F050213805F2C0407D5
:1041600008B0C1100113621D940F43BEA2010E15C9
:10417000BE20041F06051B110C06524484443C005B
:10418000401029C1570040440E134080113D68097A
:104190000D143D038D800511010D11BF117D800FA0
:1041A0002DBF070C0451414070C003100700BE2A08
:1041B0002A2AEA040E133E41073F44425C052D645F
:1041C000050D11BF0C1DE10D1EFF40113FFF0487BF
:1041D000100D1140032C0B88482F090919AF4830E6
:1041E0000F860A0D116008C1010D31A00F0D3D8031
:1041F0000B830484010E1304DF0AA1010D117F104B
:104200005E047C130D1480134F007F3F031F202199
:10421000A1110D12A2062E027F032DFD0F0C041416
:1042200042C202800E7C0440784744080115A00079
:10423000041621222CA06D00091D800B0C041518FA
:10424000600000040F1642FE00045E8041094D3FED
:10425000090E4F80800A0D3E400A1C0708A4A3AA3D
:10426000AAEA8307040412AA2AEA400C0F10048564
:10427000945C6624544C8405000F3040800B40064B
:1042800020104C4754010C041BD40404C8111140E5
:104290000E8FF000091C040848887D091D06130CC8
:1042A0000612061544847C800D1F0C039D142F10EC
:1042B0001307120E1042E3030C0E132020101028D7
:1042C0002422E12224281010400F2E013C072E4FFB
:1042D0003E070D13A0111D811622CAF90E14FF000E
:1042E000064D81164E0686070E5103C00C0D7E400A
:1042F000120DFF00050DBC00056D81090D177F092A
:104300003D80104DE40D0D157D0E0D3B40070D3E1B
:10431000C0031008407C407F484848270C04112304
:10432000CC1060040C0E117F4844432428FF01097F
:104330001121D10D80033DE0051C040804C39D112B
:104340000D13E0057DC6130D1900175222010D1340
:104350001F1A1D3B036E0285120E150000140C0B74
:10436000148040B08E808087986080401A3D800322
:104370000D1442091D36120C0A12FF9014E4AFA46A
:10438000A4A4AF4014130403400C0911894B2A1A4A
:104390000E1A2A4BE0092004101090013D00131D55
:1043A00084120D11000B2C0460203F39083D0107D9
:1043B0000D1040061F8070FA045F100401030D10F9
:1043C000C0051F8060BF0A0E1830000A0D3E40076E
:1043D0004DC00C0118804DC00C0D18800A6E807DF8
:1043E0000C3106061480C1091B033DBB131DC51B00
:1043F0000D137F0E2D80133D81132D7F130D138020
:10440000131D40161806202222A2FA450D1540164B
:104410001D83180C041511201F430B4D3C1C1D98C7
:10442000072D46130A14F88031391E7FA914011193
:10443000401DC0171C04FF484887030213FF3F0CB0
:104440001010008165080720C0080423C003002362
:10445000C4821C100640504E4848422A481C0D1386
:1044600022191DBD0E080714FF12221E000FC13CA9
:1044700004020CC0A4093DBF030D11400C2E0235EF
:104480000B0D17BF032DFF1B1C045A8620C3071EEC
:10449000E3C1070D12A00A0C0F4FFF040827110DEE
:1044A00041817F0105093100801B097F40ADA305D3
:1044B0000D1780136D7F13061440400D19C01C2585
:1044C000402E07DE1E0C0511030C1422C0194DDC12
:1044D000042EFEDF040D1360179D3F052D06090114
:1044E0004F804D062042FF078EEF361F6F0A304087
:1044F0001F8E0D6B1ECDD8092004020304045C0836
:0C45000006070809020406BD18000000B0
:04000005080000ED02
:00000001FF
