:020000040800F2
:10000000C82A0020F1010008311A0008B9180008B8
:100010002D1A0008DB0D0008D3280008000000009E
:100020000000000000000000000000004721000860
:10003000310F000800000000B91E0008312200083E
:100040000B0200080B0200080B0200080B0200085C
:100050000B0200080B0200080B0200080B0200084C
:100060000B0200080B0200080B0200080B0200083C
:100070000B0200080B0200080B0200080B0200082C
:100080000B0200080B0200080B0200080B0200081C
:100090000B0200080B0200080B0200080B0200080C
:1000A0000B0200080B0200080B0200080B020008FC
:1000B000952200080B0200080B0200080B02000842
:1000C0000B0200080B0200080B0200080B020008DC
:1000D0000B020008E1250008812600080B02000839
:1000E0000B0200080B0200080B02000800F002F8E7
:1000F00000F06FF80AA090E8000C82448344AAF153
:100100000107DA4501D100F064F8AFF2090EBAE850
:100110000F0013F0010F18BFFB1A43F0010318473B
:10012000183D0000383D000010F8013B0A4413F070
:10013000030408BF10F8014B1D1108BF10F8015B44
:10014000641E05D010F8016B641E01F8016BF9D133
:10015000002D15D010F8014B03F00C030C2BA1EB74
:1001600004040ABF10F8013BA4EB8314A4EB03249E
:1001700005F1010314F8016B5B1E01F8016BF9D561
:10018000914238BF10F8013BD1D3704700230024BF
:1001900000250026103A28BF78C1FBD8520728BF97
:1001A00030C148BF0B607047642900F0A9807329F3
:1001B00000F07183002070471FB500F0A7FD040018
:1001C0000020002103F0E8F9401C60601FBD10B55D
:1001D00010BD00F06DFD1146FFF7EEFF02F01AFCB6
:1001E00000F098FD03B4FFF7F2FF03BC02F0D5FB6B
:1001F0000948804709480047FEE7FEE7FEE7FEE7BB
:10020000FEE7FEE7FEE7FEE7FEE7FEE704480549F6
:10021000054A064B7047000035220008ED00000833
:10022000C8240020C82A0020C8260020C826002094
:10023000704700000FB41CB5084B06AA7B44694602
:100240000090059800F0FDFA04460020694600F091
:100250000BFB20461CBC5DF814FB000029060000C7
:1002600070B5044685690068C10601D5302600E0F6
:100270002026C00707D070BDD4E901213046904741
:10028000206A401C20626D1EF6D570BD70B5044614
:1002900085690078C00707D170BDD4E9012120200D
:1002A0009047206A401C20626D1EF6D570BD70B567
:1002B0000C460546012A05D02878800600D5EA6953
:1002C000002302E0012305E05B1C934202D2E05CC4
:1002D0000028F9D1A869E618C01AA861286A18444C
:1002E00028622846FFF7BCFF04E0D5E9012114F895
:1002F000010B9047B442F8D32846FFF7C7FF70BD03
:100300002DE9F0410646002410687529314616A5EE
:1003100010D0AFF30080002802DA404213A507E0B6
:1003200031688A0701D512A502E0490704D511A555
:10033000012401E0AFF3008000210A2206F1240726
:1003400009E0B0FBF2FCB0FBF2F302FB1C00303022
:1003500078541846491C0028F3D123462A463046D3
:10036000BDE8F04100F00EBA000000002D000000D2
:100370002B000000200000002DE9F05F89460446B4
:100380004FF0000ADFF874B1FB44C0F820A020460B
:10039000E1688847002874D0252806D0D4E90121D7
:1003A0009047206A401C2062F1E700265F46204605
:1003B000E16888472028054607DB312D05D27819EA
:1003C00010F8200C08B10643F1E7B00701D526F07C
:1003D0000406C4F81CA00027C4F818A02A2D09D0D0
:1003E000284602F0D3FA38B304EB8708303DC8F84A
:1003F000185019E059F8041B204604EB870291615C
:10040000E1688847012F054618D1E069002820DA05
:1004100026F020061DE0D8F8180000EB800005EB60
:1004200040003038C8F818002046E1688847054683
:1004300002F0ACFA0028EED1012F0AD02E2D08D1FF
:100440002046E16888477F1C0546022F46F02006BB
:10045000C4DBA069002803DA404246F00106A0612F
:10046000F00701D026F010066C2D0BD0682D09D0B6
:100470004C2D39D06A2D35D0742D35D07A2D33D00E
:1004800016E038E0E1682F4620468847B842054626
:1004900009D16C2F26D04FF48060E16806432046D6
:1004A0008847054604E06C2F1AD04FF4807006434D
:1004B0000DB3A5F14100192802D8203546F4006695
:1004C0004A462946204626604E46FFF76DFE80B11B
:1004D00001280BD0F61D26F0070000F1080956E7A9
:1004E0004020E4E78020D8E70020D6E706F10409A1
:1004F0004DE7284652E7206ABDE8F09F503A0000D9
:100500000FB400B58DB010A9099000910B904FF079
:10051000FF300A9000200C90064878440690064868
:1005200078446A4607900F9909A800F0CDF90DB0FC
:100530005DF814FBCB030000E30300002DE9FF5F2F
:100540001D464FF0FF3B91464FF000085F46D5E94E
:100550000146A96901987F1C8847296A8246884715
:100560000028F6D1BAF1FF3F0CD0002E24F4C0646D
:1005700019DD600614D5BAF12B0F09D0BAF12D0F91
:100580000ED103E0584604B0BDE8F09F44F4806407
:10059000A96901987F1C8847761E8246002E02DDDD
:1005A000BAF1300F03D0B9F1000F26D032E0A969BB
:1005B000761E01987F1C44F400748847002E824602
:1005C00005DDBAF1780F06D0BAF1580F03D0B9F1B2
:1005D000000F10D01EE0B9F1000F02D0B9F1100FDA
:1005E00018D1A969761E01987F1C24F400748847ED
:1005F0008246102002E0082000E00A20814609E03F
:10060000A96908FB0908761E01987F1C44F4007450
:1006100088478246002E05DD4946504600F03FF9E6
:100620000028EDDAE96901988847A00502D46FF047
:100630000100A8E7E00725D1600613D5600502D5C3
:10064000C8F1000000E0404629680A1D2A600968D8
:10065000220501D5087015E0220701D5088011E0B8
:1006600008600FE02868011D29600068210502D597
:1006700080F8008006E0210702D5A0F8008001E0A4
:10068000C0F8008038467EE730B505460B462A465E
:1006900013F8014B12F8010B08B1A042F8D01CB1BD
:1006A000002802D06D1CF1E7284630BD10B5431C70
:1006B00002E010F8011B71B18107FAD14FF001324D
:1006C00002C88C1A8C4314EAC211F9D0C01A0A0667
:1006D00003D0C01E10BDC01A10BD0A0401D0801E78
:1006E00010BD0902FCD0401E10BD4FF000020429CD
:1006F000C0F0128010F0030C00F01B80CCF1040C51
:10070000BCF1020F18BF00F8012BA8BF20F8022B84
:10071000A1EB0C0100F00DB85FEAC17C24BF00F82A
:10072000012B00F8012B48BF00F8012B70474FF058
:10073000000200B5134694469646203922BFA0E831
:100740000C50A0E80C50B1F12001BFF4F7AF09073D
:1007500028BFA0E80C5048BF0CC05DF804EB89002E
:1007600028BF40F8042B08BF704748BF20F8022B71
:1007700011F0804F18BF00F8012B70477047704789
:10078000704770472DE9F0470D469946924604465A
:1007900000F124080168880604D5E06921F0100101
:1007A000216000E00120A84201DD471B00E0002796
:1007B000A1697A1902EB0900081AA0612078C00625
:1007C00002D42046FFF74CFD002608E0D4E90121C1
:1007D0001AF806009047206A401C761C20624E459D
:1007E000F4DB2078C0060AD52046FFF739FD06E085
:1007F000D4E9012130209047206A401C2062381E35
:10080000A7F10107F4DC07E0D4E9012118F805009D
:100810009047206A401C2062281EA5F10105F3DCE8
:100820002046FFF733FD2078000602D50220BDE800
:10083000F0870120FBE7000001694A1C026108788B
:10084000704700B58FB0CDE9013100210591054910
:100850007944CDE9031011466846FFF78DFD0FB0CE
:1008600000BD0000E5FFFFFF0A6802F8010B0A6007
:10087000704710B5436913B1AFF3008001E0FFF793
:1008800016FD012010BD127800F124010A7000222B
:100890004A700122EDE711684FF0FF32E9E73A288C
:1008A00000D2303820F02002412A01D3A2F13700D3
:1008B000884201D34FF0FF307047000002681144B6
:1008C0001378016018467047D16005497944516139
:1008D00004497944116200211161114600F02EB8DB
:1008E000EDFFFFFF53000000426842B1016811F8BC
:1008F000013B23B1521EC0E9001218467047012186
:10090000C160881E704742685AB1C368016843B924
:1009100083688B4205D0491E521CC0E9001200209A
:1009200070474FF0FF30704710B5044600F0E6F90D
:100930000068005D00F0010010BD00002DE9F34FDC
:100940004FF0000A0C4656468DB001200C9001F184
:100950000C000B9062690B9801219047051E2DD069
:10096000252D2CD0216A8847C0B162690B980121DE
:100970009047216A88470028F7D16269411E0B9889
:10098000904700E0761CA1690D988847216A884746
:100990000028F7D1E1690D988847DBE7A1690D9838
:1009A0008847A842074601D1761CD3E7E1690D9834
:1009B00088477F1C02D1BAF1000F6FD06CE16269E9
:1009C0000B9800273D46394690472A2804D1626992
:1009D0000B98012190470125DFF8D08262690B98BE
:1009E00001219047A0F130010A290AD24745E5DCF0
:1009F00007EB870100EB4107303FDFD445F01005DE
:100A0000ECE7E90601D46FF000476C280AD04C28C7
:100A100014D0682815D06A280DD074281CD07A28E4
:100A20001AD01DE062690B98012190476C2802D012
:100A300045F0040514E045F002050DE045F0200501
:100A40000AE062690B9801219047682802D045F0BE
:100A5000080505E045F4006562690B98012190479F
:100A6000C4E9015765283DD019DC58287AD00CDC40
:100A7000452837D004DC252826D041289ED131E0F6
:100A800046282FD0472899D12CE05B2877D06128C1
:100A900028D063287CD0642823D15AE0F7E06F285F
:100AA00048D008DC66281DD067281BD0692821D0D3
:100AB0006E2816D127E0702845D0732868D0752895
:100AC00047D078280DD14DE0A1690D988847252899
:100AD00005463FF469AFE1690D9888476D1C3FF406
:100AE0006AAFD9E00D9923466A466FF00100AFF373
:100AF0000080C6E045F0400023464FF000026060F1
:100B0000A80736D43EE0E8077FF447AF2068011D10
:100B100021600068290501D506701BE7290701D56A
:100B2000068017E7A90703D5F117C0E9006111E7AF
:100B300006600FE745F0400023464FF00802606072
:100B4000A80716D41EE040F60E0125EA01006060F9
:100B500016E045F0400023464FF00A026060A80707
:100B600007D40FE045F040006060A80708D5234691
:100B700010220D996FF00100AFF3008081E007E0D3
:100B8000102223460D996FF00100FFF7D7FC78E0A3
:100B90004FF0000963284F46C8464B46CB4602D06B
:100BA0005B2807D039E02079C00601D40120A0607D
:100BB000012732E06269D4F80CB00B98012190470C
:100BC0005E2807D14FF0010949466269D4F80CB09C
:100BD0000B989047216939B900210A4603AB43F8C5
:100BE0002120491C0829FADBD8B3216949B308F14F
:100BF000010862690B98012190475D28F4D1B9F191
:100C0000000F09D0002003A951F82020D24341F859
:100C10002020401C0828F7DB03AB2069002820793E
:100C20004FEA40701ED05B462246CDF80080CDE9E9
:100C300001970D9900286FF0010020DAAFF30080D2
:100C40001FE0C11703AA00EBD1614B1121F01F0176
:100C500002EB8302411A13680120884003431360AA
:100C6000C7E719E00D99224600286FF001000097B0
:100C700002DAAFF3008004E0AFF3008001E0AFF3ED
:100C8000008000280ADA401C06D10C9820B14FF0F1
:100C9000FF300FB0BDE8F08F5046FAE7E90701D109
:100CA0000AF1010A064400200C9053E6CCCCCC0C8F
:100CB000754600F039F8AE4605006946534620F007
:100CC0000700854618B020B5FFF7A0FABDE8204020
:100CD0004FF000064FF000074FF000084FF0000BF8
:100CE00021F00701AC46ACE8C009ACE8C009ACE8AB
:100CF000C009ACE8C0098D467047000010B500F08F
:100D000005F8001D10BD00BF912800000048704785
:100D10008824002010B50446AFF300802046BDE8CB
:100D20001040FFF75FBA00000048704768240020B9
:100D30004FF0013C50F8042B51F8043B9A4221D16A
:100D4000A2EB0C03934313EACC1317D150F8042BF6
:100D500051F8043B9A4215D1A2EB0C03934313EADA
:100D6000CC130BD150F8042B51F8043B9A4209D113
:100D7000A2EB0C03934313EACC13DBD04FF000003B
:100D8000704700BFD01A01BAB1FA81F101F0180121
:100D900022FA01F0CB40C1F12001DBB2C0B2C01A8F
:100DA0002CFA01F3D11A914311EAC311E6D170472D
:100DB00030B501460846CC1701EB14742411A1EBA1
:100DC00004140A46CD1701EB15752D1105EB8505A9
:100DD00004EB4504E3B2184630BD00BFFEE7000057
:100DE00010B500241548006820F4702013490860ED
:100DF0000846006840F40020086004E0601CC4B2AB
:100E0000012001F0EFFD0E48006808B1C82CF5DBA9
:100E1000C82C01DB012010BD002404E0601CC4B21A
:100E2000012001F0DFFD0648006808B9C82CF5DB99
:100E3000C82C01DB0120EEE70020ECE7040C0140A8
:100E40003081214208B50121082001F047F84FF414
:100E50008050ADF8000010208DF8030003208DF8BD
:100E600002006946064800F039FC4FF480510448FE
:100E700000F00AFD00F03CF8FFF7B2FF08BD0000EB
:100E8000000C014010B5002404E0601CC4B2012035
:100E900001F0A8FD0D48006808B1C82CF5DB00245E
:100EA00004E0601CC4B2012001F09CFD074800680A
:100EB00008B9C82CF5DB282001F094FD0348006830
:100EC00008B1012010BD0020FCE700003081214264
:100ED00070B50024002506E06006040EFFF7D2FF7F
:100EE0000443681CC5B2082DF6DB204670BD000027
:100EF00010B50C48006820F470200A4908600846C4
:100F0000006840F440300860002007490860032072
:100F100001F05CFD01200549C1F8B0011E2001F07F
:100F200061FD10BD040C0140B081214200802142CE
:100F30007047000010B500F0FBFC00200449086079
:100F40000449C1F8B4010021802000F077F810BDF9
:100F5000BC0122420000224270B505460126012054
:100F6000334908600A2001F03DFD00241CE0002008
:100F70002F49083908600A2001F034FD05F001000E
:100F800020B101202A49091F086003E000202849F8
:100F9000091F08606D1001202549083908600A20E2
:100FA00001F020FD601CC4B2082CE0DB2148406841
:100FB00020F070601F4948600846406840F00060BB
:100FC0004860002416E076100020194908390860AE
:100FD0000A2001F007FD1848D0F8380108B146F0A2
:100FE000800601201249083908600A2001F0FAFC45
:100FF000601CC4B2082CE6DB0E48406820F070602C
:101000000C4948600846406840F040704860002045
:101010000749083908600A2001F0E4FC002006496D
:10102000C1F8BC010A2001F0DDFC304670BD0000B3
:10103000BC012242001001400000224270B505466A
:101040000E463048406820F070602E4948600846DF
:10105000406840F04070486001202B4908600A2039
:1010600001F0C0FC00202949C1F8B4010A2001F0B8
:10107000B9FC00241CE005F0010020B10120224948
:10108000091F086003E000201F49091F08606D1058
:1010900001201D49083908600A2001F0A3FC002046
:1010A0001A49C1F8B4010A2001F09CFC601CC4B2CA
:1010B000082CE0DB00241CE006F0010020B1012038
:1010C0001149091F086003E000200F49091F08604B
:1010D000761001200C49083908600A2001F082FCD2
:1010E00000200A49C1F8B4010A2001F07BFC601C11
:1010F000C4B2082CE0DB0020034908600A2001F09C
:1011000071FC70BD00100140BC012242000022426F
:1011100010B54FF480710548FFF7E7FA0020044945
:10112000088001200349087010BD000066220020DD
:101130008A2000208C2000202DE9F84381460121DF
:10114000042000F0CBFE0220ADF8000010208DF846
:10115000030003208DF802006946864800F0BEFABD
:101160000221844800F08EFB4FF4FA7001F02EFC4F
:101170000221804800F088FB4FF47A7001F026FCD1
:10118000484600F059FA4FF480717B48FFF7ADFAFA
:1011900000207A490880FFF7BBFF0326DDE04FF40B
:1011A0007A7277A177A000F087F900287ED140F607
:1011B000B83273A175A000F07FF90327BCE04FF4AB
:1011C0007A726FA175A000F077F900286FD14FF403
:1011D0007A726BA175A000F06FF94FF0030898E0E8
:1011E000002407E0204600F049FE4FF4967001F01D
:1011F000EDFB0A341E2CF5DD42F210726FA173A0D4
:1012000000F05AF900287DD14FF4FA6278A17AA053
:1012100000F052F907E0204600F030FE4FF49670DF
:1012200001F0D4FB0A34282CF5DD032561E007E04A
:10123000204600F023FE4FF4967001F0C7FB0A34FD
:101240003C2CF5DD41F288326EA170A000F034F93B
:10125000002849D107E0204600F010FE4FF49670B8
:1012600001F0B4FB0A34462CF5DD724800F05AF95F
:1012700006E0204600F002FEC82001F0A7FB0A3479
:10128000642CF6DD002000F017FC00221146104609
:1012900000F0D0FC01220021122000F0CBFC022241
:1012A0000021242000F0C6FC262201E050E03EE0B0
:1012B0000021362000F0BEFC27220021482000F04B
:1012C000B9FC10235CA20321002000F0B9FD10231B
:1012D0005DA20621002000F0B3FD40F2DC5001F0D9
:1012E00075FBBDE8F8830DE005215BA000F028FD4B
:1012F0006D1E002D9BDC04DC052157A000F020FDB5
:101300000BE005E005215AA000F01AFDA8F1010844
:1013100000BFB8F1000F3FF763AF00BFB8F1000F97
:1013200004DC052152A000F00BFD08E004E00521DB
:1013300054A000F005FD7F1E002F3FF740AF00BF17
:10134000002F04DC05214FA000F0FAFC08E004E0C7
:10135000052153A000F0F4FC761E002E3FF71FAFCE
:1013600000BF002E03DC05214DA000F0E9FC00BF0A
:10137000B7E7000000080140662300208E2000200F
:101380004F4B000041540D0A0000000041542B5205
:101390004553544F52450D0A0000000041542B4361
:1013A000574D4F44453D310D0A00000041542B4339
:1013B00049504D55583D300D0A00000057494649E7
:1013C00020434F4E4E4543544544000041542B4367
:1013D000574A41503D22626F636368693435372252
:1013E0002C2232303230363235363633220D0A0076
:1013F000535441495000000041542B434946535235
:101400000D0A0000434F4E4E4543540041542B43B8
:10141000495053544152543D22544350222C22628D
:10142000656D66612E636F6D222C383334340D0A7E
:1014300000000000F03D00085769466920636F6EA8
:101440006E6563746564000042656D666120636F5C
:101450006E6E65637465640042656D666120636FDE
:101460006E6E656374206661696C656400000000DF
:101470005769466920636F6E6E65637420666169A3
:101480006C65640057694669206D6F6465207365FB
:101490007474696E67206661696C656400000000A1
:1014A000415420636F6D6D616E64207465737420A8
:1014B0006661696C6564000070B504460E461546A9
:1014C0000020154908804FF480711448FFF70DF98A
:1014D000FFF71EFE0BE014F8011B114801F0F5F9AF
:1014E00000BF80210E4801F022F90028F9D02078B1
:1014F0000028F0D109E0012001F068FA31460748E0
:10150000FFF7C2F808B1002070BD281EA5F1010543
:10151000F1D10120F8E700008E2000206623002092
:101520000044004030B589B00446202101A8FFF7EF
:10153000FEF82046FFF7BAF885B24FF47A7225A17B
:1015400025A0FFF7B9FF10B1012009B030BD2A4630
:1015500023A101A8FEF76EFE4FF4FA6224A101A8B0
:10156000FFF7AAFF90B141F2883222A123A0FFF732
:10157000A3FF4FF4FA7001F029FA4FF4FA621CA1AC
:1015800001A8FFF799FF08B10120DEE700202549F7
:1015900008804FF480712448FFF7A7F80BE014F897
:1015A000011B224801F091F900BF80211F4801F082
:1015B000BEF80028F9D020780028F0D140F6B832E3
:1015C0001BA106A0FFF778FF08B10120BDE70020AE
:1015D000BBE700004F4B000041540D0A0000000023
:1015E00041542B43495053454E443D25640D0A0058
:1015F0003E000000434F4E4E4543540041542B43A0
:10160000495053544152543D22544350222C22629B
:10161000656D66612E636F6D222C383334340D0A8C
:10162000000000008E2000206623002000440040BF
:1016300053454E44204F4B0010B586B0044601215F
:10164000042000F04BFC0121480400F037FC04208A
:10165000ADF8140018208DF8170003208DF816003F
:1016600005A91C4800F03AF80820ADF81400042041
:101670008DF8170005A9174800F030F801940020F4
:10168000ADF80800ADF80A00ADF80C00ADF8100098
:101690000C20ADF80E0001A90F4801F0A5F8262096
:1016A0008DF8000003208DF801008DF80200012064
:1016B0008DF80300684600F0BDF9012240F2255183
:1016C000054801F06BF80121034801F024F806B049
:1016D00010BD000000080140004400402DE9F04129
:1016E000024600250026002000230024002791F850
:1016F00003C00CF00F0591F803C00CF0100CBCF106
:10170000000F03D091F802C04CEA050591F800C023
:10171000BCF1000F31D0146800202BE04FF0010C19
:101720000CFA00F3B1F800C00CEA03069E4220D187
:1017300083004FF00F0C0CFA03F7BC4305FA03FCCF
:101740004CEA040491F803C0BCF1280F06D14FF015
:10175000010C0CFA00FCC2F814C00AE091F803C0B6
:10176000BCF1480F05D14FF0010C0CFA00FCC2F897
:1017700010C0401C0828D1D31460B1F800C0BCF1DF
:10178000FF0F34DD546800202EE000F1080C4FF00C
:10179000010808FA0CF3B1F800C00CEA03069E42F7
:1017A00021D183004FF00F0C0CFA03F7BC4305FA6C
:1017B00003FC4CEA040491F803C0BCF1280F05D1E6
:1017C00000F1080C08FA0CF8C2F8148091F803C074
:1017D000BCF1480F07D100F1080C4FF0010808FADE
:1017E0000CF8C2F81080401C0828CED35460BDE825
:1017F000F0810000F0B50A460023002400210025F6
:1018000000F00046B6F1004F02D11D4EF16901E033
:101810001B4E7168C0F3034583B200F44016B6F561
:10182000401F08D121F07061154E766826F0706671
:10183000134F7E6012E000F48016B6F5801F06D1CB
:10184000032606FA05F4A14341F0706106E0460D57
:10185000360103FA06F6B14341F0706122B1460D3C
:10186000360103FA06F6314300F00046B6F1004FA8
:1018700002D1034EF16101E0014E7160F0BD000044
:101880000000014041617047016170474FF0E02066
:10189000816907480068814204D206480068401CFC
:1018A000044A106002480160024800687047000066
:1018B000640000206000002000BFFEE710B54FF478
:1018C00080710948FFF7E0FF4FF400710648FFF709
:1018D000DBFF4FF400710448FFF7D4FF4FF4807131
:1018E0000148FFF7CFFF10BD000C014010B54FF4C9
:1018F00080710748FFF7C8FF4FF400710448FFF7F5
:10190000C1FF4FF400710248FFF7BEFF10BD000099
:10191000000C014010B54FF480710448FFF7B4FF8C
:101920004FF480710148FFF7ADFF10BD000C01407E
:1019300008B501211C2000F0D1FA02208DF8020028
:101940004FF46040ADF8000010208DF803006946A8
:101950000148FFF7C3FE08BD0010014010B5044662
:1019600014B10120234908702248007858B3224856
:10197000006858B12048001D006838B11E48083082
:10198000006818B11C480C300068E0B90A2001F06A
:101990001DF80020174908701748006808B9012091
:1019A00010BD1548001D006808B90220F8E712486C
:1019B0000830006808B90320F2E70F480C300068CF
:1019C000B0B90420ECE70C480068012810D10A489F
:1019D000001D006801280BD1074808300068012865
:1019E00006D105480C300068012801D10149087072
:1019F0000020D5E7682000201081214208B5012190
:101A0000082000F06BFA01210648FFF7F3FE48209A
:101A10008DF80300F020ADF8000069460248FFF79A
:101A20005DFE08BD00023000000C014000BFFEE773
:101A30007047000070B5002100230F22C47804B362
:101A4000154C246804F4E064C4F5E064210AC1F193
:101A50000403CA40447804FA03F184781440214313
:101A600009010E4C0678A155047804F01F050124E5
:101A7000AC4005786D11AD0005F1E025C5F80041D9
:101A800009E0047804F01F050124AC40044D0678F9
:101A9000761145F8264070BD0CED00E000E400E052
:101AA00080E100E002490143024A116070470000F2
:101AB0000000FA050CED00E070B50646002418E0C1
:101AC00004F1B000002100F0EBF90021084600F01D
:101AD000E7F90021102000F0E3F9002505E00121DD
:101AE000304600F0DDF9681CC5B2802DF7DB601CC4
:101AF000C4B2082CE4DB70BD08B50121082000F059
:101B0000EDF94FF44070ADF8000010208DF803009F
:101B100003208DF8020069463B48FFF7DFFD4FF4D4
:101B200040713948FFF7B0FEC82000F04FFF002198
:101B3000AE2000F0B5F90021084600F0B1F900210F
:101B4000102000F0ADF90021402000F0A9F900219B
:101B5000B02000F0A5F90021812000F0A1F90021BA
:101B6000FF2000F09DF90021A12000F099F900214B
:101B7000A62000F095F90021A82000F091F900219D
:101B80003F2000F08DF90021C82000F089F90021E4
:101B9000D32000F085F90021084600F081F90021EA
:101BA000D52000F07DF90021802000F079F9002196
:101BB000D82000F075F90021052000F071F900210E
:101BC000D92000F06DF90021F12000F069F9002121
:101BD000DA2000F065F90021122000F061F90021FF
:101BE000DB2000F05DF90021302000F059F90021E0
:101BF0008D2000F055F90021142000F051F900214A
:101C0000AF2000F04DF908BD000C014070B504464E
:101C10000D4605F1B000002100F042F9102141EA23
:101C20001410002100F03CF904F00F00002100F036
:101C300037F970BD2DE9F04180460E461546002764
:101C400031464046FFF7E2FF00240AE0124A02EB69
:101C50008511085D012100F023F9781CC7B2601CD2
:101C6000C4B2102CF2DB701CC1B24046FFF7CEFFAD
:101C700000240CE06900491C074A02EB4111085D91
:101C8000012100F00DF9781CC7B2601CC4B2102C01
:101C9000F0DBBDE8F0810000680000202DE9F0478E
:101CA00007460E469046994600250024A8F12000DC
:101CB000C5B27F2F02DD0027B01CC6B2B9F1100FEC
:101CC00024D131463846FFF7A1FF002408E004EB99
:101CD0000511194A505C012100F0E2F8601CC4B201
:101CE000082CF4DB701CC1B23846FFF78FFF0024CC
:101CF00009E004EB051108310F4A505C012100F0A6
:101D0000CFF8601CC4B2082CF3DB12E03146384631
:101D1000FFF77CFF00240AE005EB4501074A02EBD0
:101D20004101085D012100F0BBF8601CC4B2062C23
:101D3000F2DBBDE8F0870000EC370008C43500088E
:101D4000FEB505460E460020FFF7B6FE00221146FE
:101D50001046FFF76FFF012200211220FFF76AFFF4
:101D6000022200212420FFF765FF242200213620D3
:101D7000FFF760FF252200214820FFF75BFF1023BB
:101D80002A460321002000F05BF834460FE022468B
:101D900008A16846FEF74EFA10236A4606215A202B
:101DA00000F04EF84FF47A7000F010FE641E002C24
:101DB000EDDCFEBD256473002DE9FF5F074691460B
:101DC0001E460E9D4FF0000A002435E0301B401ED9
:101DD000C1B20A2001F016FBB9FBF0F00A21B0FBFA
:101DE000F1F201FB1208BAF1000F14D1701EA042EB
:101DF00011DDB8F1000F0CD1AB4605EBDB714910DA
:101E000001FB0471C8B22B4620220199FFF746FF5F
:101E100010E04FF0010AAB4605EBDB71491001FB06
:101E20000471C8B208F13001CAB22B460199FFF71C
:101E300035FF00BF601CC4B2B442C7DBBDE8FF9FE2
:101E40002DE9F04104460F461546984600260FE05E
:101E5000AA5D434639462046FFF720FF04F10800FB
:101E6000C4B2782C02DD0024B81CC7B2701CC6B204
:101E7000A85D0028ECD1BDE8F08100003EB5044625
:101E8000224605A16846FEF7D5F910236A460621C9
:101E90003C20FFF7D5FF3EBD25642525000000004E
:101EA00070B504460D461DB1E0B200F059FD02E0E8
:101EB000E0B200F03FFD70BD7047000029B1064A56
:101EC000D2690243044BDA6104E0034AD2698243D7
:101ED000014BDA61704700000010024029B1064A48
:101EE00092690243044B9A6104E0034A9269824377
:101EF000014B9A61704700000010024030B500218C
:101F00000022002400232D4D6D6805F00C0121B145
:101F1000042905D0082923D105E0294D056022E0D8
:101F2000274D05601FE0254D6D6805F47012234DA7
:101F30006D6805F48034022505EB92421CB9214DF1
:101F4000554305600BE01D4D6D6805F400351DB16E
:101F50001C4D5543056002E0194D5543056002E0F4
:101F6000174D056000BF00BF144D6D6805F0F0010E
:101F70000909154D6B5C0568DD4045600F4D6D68C6
:101F800005F4E061090A104D6B5C4568DD40856031
:101F90000A4D6D6805F46051C90A0B4D6B5C4568CC
:101FA000DD40C560054D6D6805F44041890B074D66
:101FB0006B5CC568B5FBF3F5056130BD00100240F0
:101FC00000127A0000093D0090200020A02000208F
:101FD00010B58D20FEF7C0FF0446FEF7E9FE1D494F
:101FE00088808920FEF7B8FF0446FEF7E1FE194914
:101FF00088718720FEF7B0FF0446FEF7D9FE154929
:10200000C8718520FEF7A8FF0446FEF7D1FE1149EE
:1020100008708320FEF7A0FF0446FEF7C9FE0D49B5
:1020200048708120FEF798FF00F07F042046FEF7FD
:10203000BFFE084988708B20FEF78EFF0446FEF72E
:10204000B7FE044908720846808800F5FA6000B2BD
:10205000888010BD202200202DE9FC4104464FF06D
:10206000030867E0002000900190FEF741FFFEF7B3
:10207000B7FE00285AD1002605E0FEF729FF0DF82B
:102080000600701CC6B2052EF7DB9DF800009DF817
:10209000011008449DF8021008449DF803100844FC
:1020A0009DF80410884241D19DF801009DF8001070
:1020B00040EA01270A2097FBF0F020700A2097FBE6
:1020C000F0F100FB117060709DF803009DF80210A4
:1020D00040EA012505F4004048B1E843401C85B2C0
:1020E0000A2095FBF0F0404240B2A07004E00A20C4
:1020F00095FBF0F040B2A0700A2095FBF0F100FBD8
:102100001150E0709DF8040020712078642800DBF5
:1021100010E094F9020010F1280F03DB94F902009B
:10212000502800DD06E00020BDE8FC81642000F0BE
:102130004DFC00BFB8F10000A8F1010101F0FF085B
:1021400090D10120F0E7704710B500F001F810BD04
:102150000CB50020019000903348006840F48030B6
:102160003149086000BF3048006800F4003000903A
:102170000198401C0190009818B90198B0F5A06F23
:10218000F1D12948006800F4003010B1012000901E
:1021900001E0002000900098012843D12348006806
:1021A00040F01000214908600846006820F0030054
:1021B00008600846006840F0020008601A4840685D
:1021C000194948600846406848600846406840F43D
:1021D000806048600846406820F47C1048600846EB
:1021E000406840F4E81048600846006840F080709D
:1021F000086000BF0C48006800F000700028F9D0AB
:102200000948406820F003000749486008464068D4
:1022100040F00200486000BF0348406800F00C0036
:102220000828F9D10CBD0000001002400020024037
:102230007047000010B51348006840F001001149D4
:10224000086008464068104908400E494860084642
:1022500000680E4908400B4908600846006820F4F1
:10226000802008600846406820F4FE0048604FF473
:102270001F008860FFF768FF4FF0006004490860A6
:1022800010BD0000001002400000FFF8FFFFF6FE46
:1022900008ED00E010B50121880700F0F1F80128F1
:1022A00005D1034908700121800700F0DAF810BD5C
:1022B0003500002008B5FFF78BFE5C480078182831
:1022C0007ADC5A4840783C28FADC5848007A0728DB
:1022D000F6DC5648C0791F28F2DC544880790C2877
:1022E000EEDC5248C079009050488379B0F9042060
:1022F0004FA15348FDF79EFF0C23514A03210020B4
:10230000FFF79EFD4948807800904848437802785E
:102310004CA14B48FDF78EFF0C23494A04210020B5
:10232000FFF78EFD4148007A072876D2DFE800F0FB
:102330000414243445556500662203215020FFF71C
:1023400079FC5E2203216020FFF774FC65220321E3
:102350007020FFF76FFC60E0662203215020FFF73A
:1023600069FC5E2203216020FFF764FC5F220321E9
:102370007020FFF75FFC50E0662203215020FFF73A
:1023800059FC5E2203216020FFF754FC60220321E8
:102390007020FFF74FFC40E0662203215020FFF73A
:1023A00049FC5E2203216020FFF744FC61220321E7
:1023B0007020FFF73FFC30E030E066220321502020
:1023C000FFF738FC5E2203216020FFF733FC622216
:1023D00003217020FFF72EFC1FE06622032150200E
:1023E000FFF728FC5E2203216020FFF723FC632215
:1023F00003217020FFF71EFC0FE06622032150200E
:10240000FFF718FC5E2203216020FFF713FC642213
:1024100003217020FFF70EFC00BF05E010230DA282
:1024200006210020FFF70CFD08BD0000202200203F
:10243000253034642D253032642D2530326400007F
:1024400034220020253032643A253032643A253077
:10245000326400007368696261690000CA430282E5
:102460007047CA430282704721B1028842F00102DC
:10247000028004E002884FF6FE731A400280704723
:1024800030B50246002000230024158A05EA010326
:10249000958905EA010413B10CB1012000E0002088
:1024A00030BD1AB183890B43838102E083898B435A
:1024B0008381704701894FF6F8721140018170479E
:1024C000002202881D4B98420ED01D4B98420BD023
:1024D000B0F1804F08D01B4B984205D01A4B984260
:1024E00002D01A4B984204D14FF68F731A404B8892
:1024F0001A43174B984207D0164B984204D04FF618
:10250000FF431A40CB881A4302808B8883850B884F
:1025100003850A4B98420BD0094B984208D00E4BCA
:10252000984205D00D4B984202D00D4B984201D1F4
:102530000B7A03860123838270470000002C014040
:10254000003401400004004000080040000C00403E
:1025500000100040001400400040014000440140D1
:10256000004801401FB501210846FFF7A7FC4FF0C6
:102570008040FFF79FFF0020ADF80A00ADF806008D
:1025800044F61F60ADF8080041F61F40ADF80400A6
:1025900000208DF80C0001A94FF08040FFF790FF5C
:1025A00001218807FFF75AFF012211469007FFF724
:1025B00078FF4FF4A060FFF775FA1C208DF800003B
:1025C00001208DF803008DF8010000208DF8020035
:1025D0006846FFF72FFA01218807FFF745FF1FBD67
:1025E00010B540F22551214800F0AEF801283CD149
:1025F0001E4800F065F9C4B21D48007858B9402C57
:102600002DD11C48007850BB0120194908700020CA
:102610001949087023E01648007801280FD10D2CC5
:1026200003D102201249087019E0144812490978B0
:10263000445411480078401C0F4908700FE00C48C2
:10264000007802280BD10A2C09D100200849087013
:102650000A49094A1278885401200649087040F254
:102660002551024800F048F800BF10BD0038014075
:102670007C200020762000207D200020EE210020FC
:1026800010B540F22551164800F05EF830B31448FA
:1026900000F016F9C4B213480088FF2807DC11487F
:1026A00001880088401C0F4A10800F4844540F488E
:1026B0000088FF2807DC0D4801880088401C0B4A71
:1026C00010800B4844540A2C02D10020094908709C
:1026D00040F22551024800F00FF800BF10BD000085
:1026E000004400408A200020662200208E20002026
:1026F000662300208C20002010B50022002340F625
:102700006A14A14200D100BF0A1201249440A3B26E
:10271000DC43048010BD21B1828942F400528281E1
:1027200004E082894DF6FF731A40828170470246A9
:102730000020B1F5007F00D100BF13880B400BB122
:10274000012000E00020704770B5024600240023FD
:102750000025002040F66A16B14200D100BFC1F347
:10276000421501F01F03012606FA03F3012D02D1E1
:102770009689334006E0022D02D1168A334001E0EB
:10278000968A33400C12012606FA04F41688344067
:1027900013B10CB1012000E0002070BDF0B503467C
:1027A000002400260025002040F66A17B94200D117
:1027B00000BF1846C1F3421401F01F06012707FAB3
:1027C00006F5012C01D10C3004E0022C01D11030AF
:1027D00000E014301AB107682F43076002E0076871
:1027E000AF430760F0BD00002DE9F04786B0054615
:1027F0000E460024A24600BFA1460027B08900B1C2
:1028000000BF2F462C8A4CF6FF700440F08804432A
:102810002C82AC894EF6F3100440B088318908430D
:10282000718908430443AC81AC8A4FF6FF400440F1
:10283000B0890443AC8201A8FFF760FB1F488742C0
:1028400002D1DDF810A001E0DDF80CA0A88900F4A9
:10285000004040B10AEBCA0000EB0A1031684900A1
:10286000B0FBF1F807E00AEBCA0000EB0A10316890
:102870008900B0FBF1F86420B8FBF0F004012009F6
:10288000642101FB1089A88900F4004040B1322086
:1028900000EBC900B0FBF1F000F00700044308E0D2
:1028A000322000EB09106421B0FBF1F000F00F00C2
:1028B00004432C8106B0BDE8F087000000380140D9
:1028C00001468888C0F308007047C1F3080282807F
:1028D000704700BFFEE700002DE9F04105462C4699
:1028E0004FF480711248FEF7CDFF00261CE027460A
:1028F00007F08007802F04D1B9000D48FEF7C4FF10
:1029000004E04FF400710A48FEF7BCFF6006040EB5
:102910004FF480710648FEF7B7FF4FF4807104480A
:10292000FEF7B0FF701CC6B2082EE0DBBDE8F081F8
:10293000000C014010B50446FEF7C0FF7820FFF7F9
:10294000CBFFFEF7E7FF0020FFF7C6FFFEF7E2FF31
:102950002046FFF7C1FFFEF7DDFFFEF7C7FF10BD02
:1029600010B50446FEF7AAFF7820FFF7B5FFFEF783
:10297000D1FF4020FFF7B0FFFEF7CCFF2046FFF766
:10298000ABFFFEF7C7FFFEF7B1FF10BD30380A28D6
:1029900001D2012070470020704700BF704700003F
:1029A00008B501210820FFF799FA4FF48060ADF8CF
:1029B000000010208DF8030003208DF80200694606
:1029C0000148FEF78BFE08BD000C014000B5034630
:1029D00003E04FF47A7000F005F8181EA3F101032C
:1029E000F7D100BD00EBC001C9004FF0E0225161FA
:1029F000002191610521116100BF4FF0E0210969BB
:102A000001F480310029F8D004214FF0E022116157
:102A1000704700001FB54FF4A060FFF743F8FEF7C2
:102A2000EDFFFFF769F80020FFF746F8FEF782FA9E
:102A300000F086FD00F09AFDFFF7B2FF00BF3422E0
:102A400000210846FFF7F6F8352200211220FFF793
:102A5000F1F8362200212420FFF7ECF8372200217C
:102A60003420FFF7E7F8382200214420FFF7E2F88E
:102A7000392200215420FFF7DDF83A22002164209A
:102A8000FFF7D8F81023FEA204210820FFF7D8F999
:102A9000342204211820FFF7CDF81023F9A20421D5
:102AA0003E20FFF7CDF9352204214E20FFF7C2F872
:102AB0000020FEF753FFF44908700846007801280B
:102AC0003DD10020FEF7F8FF152203210020FFF77B
:102AD000B1F8162203211220FFF7ACF817220321C8
:102AE0002420FFF7A7F8182203213620FFF7A2F8C9
:102AF0001023E6A203214820FFF7A2F91023E5A244
:102B000003216C20FFF79CF9042206210020FFF727
:102B100091F8052206211220FFF78CF80D220621DC
:102B20002420FFF787F84FF4E130FEF705FBFFF7AD
:102B300019FD0120D8490870FEF784F904E0D24855
:102B4000007802287FF47BAF00BF0020FEF7B4FFBF
:102B5000D148007828B94FF4FA60FFF737FFFEF745
:102B600071F9F5E3FEF792FECC490968401AB0F519
:102B7000FA6F1CD3CA48FFF76FFA58B9C948C84959
:102B80000A680260097901710120C7490870C749C4
:102B9000087008E0C448007828B1C148C1490A68F3
:102BA000026009790171FEF771FEBC490860C048F6
:102BB0000078002860D0B848007801285CD1002057
:102BC000BB490870B6484078B5490978B44AD2780C
:102BD000B34B93F90230CDE90032CDE90210B5488C
:102BE0000378B5A2BDA1CC48FDF724FBCA48FEF787
:102BF00099FC28B90020C9490860C949086016E055
:102C0000C7480068401CC649086008460068032899
:102C100006D34FF4E130FEF78FFA0020C049086078
:102C20004FF4FA60FFF7D2FE0020FEF745FFBB48E5
:102C30000068401CB9490860084600681E2819D37E
:102C40009748407896490978954AD278944B93F9F9
:102C50000230CDE90032CDE902109648037896A201
:102C60009EA1AD48FDF7E6FAAB48FEF75BFC0020FD
:102C7000AA490860FEF74CFA0020FEF76FFE824971
:102C800008700846007801280ED1A6480068401C4C
:102C9000A44908600020FEF70FFFA248006804283E
:102CA00002D101209F4908609E480068012835D163
:102CB0009D48006840B901209B4908600020FEF74C
:102CC000FBFE01207949087000F0A8FBFFF7F2FA3B
:102CD00000F0D8FB6C48007804280DD1022075491B
:102CE00008700020914908609149C1F884018F491A
:102CF000091F086000F092FB6348007803280DD19B
:102D000001206C4908700020884908608849C1F892
:102D100084018649091F086000F080FB8148006833
:102D200002287DD180480068012805D102207E4913
:102D300008600020FEF7C0FE5348007802280AD140
:102D40007C480068401C7B490860084600680428ED
:102D500001D101200860742200210846FEF76AFFB5
:102D6000752200211020FEF765FF102372A20021BA
:102D70002020FFF765F8762202210020FEF75AFF97
:102D8000772202211020FEF755FF10236AA20221AC
:102D90002020FFF755F8782204210020FEF74AFF93
:102DA000792204211020FEF745FF102362A204219E
:102DB0002020FFF745F85F480068012824D1102340
:102DC0005EA200213C20FFF73BF810235CA2022109
:102DD0003C20FFF735F8102359A204213C20FFF7CF
:102DE0002FF83448007802280ED1274800780328AD
:102DF00003D101204D49086006E0234800780428EB
:102E000002D10020494908604A480068022828D1B8
:102E100010234BA200213C20FFF712F8102300E002
:102E2000DCE046A202213C20FFF70AF8102344A26E
:102E300004213C20FFF704F81E480078022810D136
:102E400011480078032804D1012038492839086046
:102E500007E00D480078042803D1002033492839C1
:102E600008603448006803286CD1102334A2002184
:102E70003C20FEF7E5FF102331A202213C2062E056
:102E8000312E0000322E000028000020574946490C
:102E9000000000002E2E000037000020440000201B
:102EA0002A0000202F0000203400002058000020BD
:102EB000350000200000002061653665343762610E
:102EC0003337336634366537396462306538636565
:102ED000366535306561336400000000636D643D24
:102EE00032267569643D257326746F7069633D648D
:102EF000617461266D73673D4D6F64653A2564208A
:102F000074656D703A25642E25642068756D693A84
:102F100025642E25640D0A000821002038000020B9
:102F20003C0000200400002008000020AC81214269
:102F3000008021420C0000203A0000003C0000000C
:102F40002000000013E0FEF77BFF1023AFF2140215
:102F500004213C20FEF774FFFE48007802280ED1C1
:102F6000FD480078032803D10120FC49086006E0F1
:102F7000F9480078042802D10020F8490860F74891
:102F8000001D0068012805D17A2200212820FEF7C3
:102F900051FE04E07B2200212820FEF74BFEEF4883
:102FA00024380068012805D17A2202212820FEF762
:102FB00041FE04E07B2202212820FEF73BFEE74889
:102FC0000068012805D17A2204212820FEF732FE6C
:102FD00004E07B2204212820FEF72CFEE048006854
:102FE00003287DD1DF480068022805D10120DD4992
:102FF00008600020FEF760FDD748007802280AD15B
:10300000D9480068401CD849086008460068042870
:1030100001D1012008601A2200211F20FEF70AFEBC
:103020001B2200212F20FEF705FE1C2200213F203D
:10303000FEF700FE1D2200214F20FEF7FBFD0A22B5
:1030400002210020FEF7F6FD0C2202211020FEF7DF
:10305000F1FD7C2202212020FEF7ECFD7D220221E1
:103060003020FEF7E7FD10233A2202214020FEF730
:1030700015FE102002230090BC4819460268482023
:10308000FEF79AFE0A2204210020FEF7D3FD0C224F
:1030900004211020FEF7CEFD7E2204212020FEF721
:1030A000C9FD7F2204213020FEF7C4FD10233A22FF
:1030B00004214020FEF7F2FD102002230090AC48CE
:1030C000042102684820FEF777FE0B22062100202B
:1030D000FEF7B0FD0B2206211020FEF7ABFD00E04D
:1030E00099E07C2206212020FEF7A4FD7D22062106
:1030F0003020FEF79FFD10233A2206214020FEF7E4
:10310000CDFD1020022300909A4806210268482035
:10311000FEF752FE94480068012826D11023AFF232
:10312000E41202216420FEF78BFE1023AFF2F012AE
:1031300004216420FEF784FE1023AFF2FC12062166
:103140006420FEF77DFE84480078032804D1874878
:103150000068401C854908607F480078042804D135
:1031600082480068401E814908607F480068022844
:1031700026D11023AFF2382202216420FEF760FE30
:103180001023AFF2482204216420FEF759FE1023D9
:10319000AFF2542206216420FEF752FE6E480078FA
:1031A000032804D172480068401C714908606A48CD
:1031B0000078042804D16E480068401E6C490860FD
:1031C00069480068032826D11023AFF28C2202211F
:1031D0006420FEF735FE1023AFF29C220421642008
:1031E000FEF72EFE1023AFF2AC2206216420FEF77C
:1031F00027FE59480078032804D15E480068401D26
:103200005C49086054480078042804D15948006893
:10321000401F5849086058A15948FDF735FA041D68
:10322000524A58A12046FDF76BF908B1FDF770FF2F
:1032300055A15348FDF728FAC41C4D4A51A1204618
:10324000FDF75EF908B1FDF763FF50A14C48FDF7AB
:103250001BFA441D474A4BA12046FDF751F908B11E
:10326000FDF756FF4BA14648FDF70EFA60B101206D
:103270003849087000203949091D08604649C1F8DD
:1032800084013649086010E044A13D48FDF7FCF98F
:1032900058B102202F49087000203049091D0860EC
:1032A0003D49C1F884012D4908602A480078012869
:1032B0002CD13B4890F902002C490968884204DD72
:1032C000012026492439086003E0002023492439DD
:1032D0000860334890F9020025490968884204DAF9
:1032E00001201E49091D086003E000201B49091D3B
:1032F00008602B4800781F490968884203DD0120D7
:103300001649086002E0002014490860114800785E
:1033100002286BD123480078012867D122A11848E0
:10332000FDF7B2F918B101200C49091D08601FA171
:103330001348FDF7A9F918B100200849091D0860D4
:103340001BA10F48FDF7A0F918B10120034931E096
:103350004CE031E00000002028000020A88121423C
:1033600004000020080000201000002014000020AD
:10337000180000201C000020686967680000000039
:10338000662200203D2564006C6F750073686964D7
:10339000750000005A4400000080214253440000A0
:1033A0002A000020370000204B4A5200474A5200B2
:1033B0004B5A4C00243908600DA10E48FDF764F902
:1033C00010B100200C4908600CA10A48FDF75CF917
:1033D00018B1012008492431086009A10548FDF70A
:1033E00053F918B10020044924310860FFF7BABB33
:1033F000475A4C0066220020848121424B4A5300E8
:10340000474A530010B50246012000E050430B1E0E
:10341000A1F10104E1B2F9D110BD000010B51848C6
:103420000078012813D11F2200210846FEF702FC74
:10343000212200211020FEF7FDFB6C22002120201C
:10344000FEF7F8FB6D2200213020FEF7F3FB0C485D
:103450000078022813D1202200210846FEF7EAFB5B
:10346000212200211020FEF7E5FB6C220021202004
:10347000FEF7E0FB6D2200213020FEF7DBFB10BDE4
:10348000000000201CB522480078C0B9214890F9FE
:10349000020021490968884211D11E48C0781F499D
:1034A000096888420BD11B4800781D490968884289
:1034B00005D1184840781B490968884227D015482B
:1034C00090F90200144908601248C0781349086056
:1034D00010480078124908600E4840781149086089
:1034E00000200B4908700B4840780A490978CDE95B
:1034F00000100848C37890F902200BA10F48FCF790
:1035000099FE10230D4A06210020FEF799FC1CBDF0
:10351000580000202A000020480000204C00002015
:103520005000002054000020543A25642E256443A6
:103530002020483A25642E2564252500A42000205B
:1035400008B501210820FEF7C9FC4FF40060ADF872
:10355000000010208DF8030003208DF8020069465A
:103560000148FEF7BBF808BD000C014008B5012179
:103570000820FEF7B3FC0220ADF8000010208DF803
:10358000030003208DF8020069460248FEF7A6F802
:1035900008BD0000000C014010B500290AD00878D1
:1035A000002807D005487844FDF7C2FB002801D069
:1035B000002010BD0248784410BD0000B208000091
:1035C000AA0800000000000000000000002F00001A
:1035D00000000700070000147F147F1400242A7FD6
:1035E0002A12006264081323003649552250000055
:1035F0000503000000001C224100000041221C00C5
:103600000014083E08140008083E0808000000A046
:103610006000000808080808000060600000002042
:1036200010080402003E5149453E0000427F400020
:10363000004261514946002141454B3100181412A6
:103640007F10002745454539003C4A494930000173
:103650007109050300364949493600064949291EC2
:103660000000363600000000563600000008142224
:103670004100001414141414000041221408000224
:103680000151090600324959513E007C1211127C49
:10369000007F49494936003E41414122007F414176
:1036A000221C007F49494941007F09090901003E68
:1036B0004149497A007F0808087F0000417F4100A6
:1036C000002040413F01007F08142241007F40401C
:1036D0004040007F020C027F007F0408107F003E04
:1036E0004141413E007F09090906003E4151215EEA
:1036F000007F091929460046494949310001017FE7
:103700000101003F4040403F001F2040201F003F7C
:103710004038403F0063140814630007087008072E
:1037200000615149454300007F41410000552A5541
:103730002A55000041417F000004020102040040BC
:1037400040404040000001020400002054545478DE
:10375000007F4844443800384444442000384444FE
:10376000487F00385454541800087E09010200189C
:10377000A4A4A47C007F080404780000447D4000D9
:10378000004080847D00007F102844000000417FBD
:103790004000007C04180478007C08040478003899
:1037A0004444443800FC242424180018242418FC21
:1037B000007C0804040800485454542000043F448A
:1037C0004020003C4040207C001C2040201C003C4D
:1037D0004030403C004428102844001CA0A0A07C9D
:1037E000004464544C4414141414141400000000D5
:1037F000000000000000000000000000000000F8D1
:1038000000000000000000333000000000100C0633
:10381000100C0600000000000000000040C07840CE
:10382000C0784000043F04043F040400007088FC9A
:1038300008300000001820FF211E0000F008F000F2
:10384000E018000000211C031E211E0000F0088863
:10385000700000001E2123241927211010160E00CD
:10386000000000000000000000000000000000E078
:10387000180402000000000718204000000204188D
:10388000E00000000040201807000000404080F0E9
:10389000804040000202010F01020200000000F01F
:1038A000000000000101011F0101010000000000F3
:1038B0000000000080B07000000000000000000068
:1038C00000000000000101010101010100000000F1
:1038D0000000000000303000000000000000000088
:1038E00080601804006018060100000000E0100865
:1038F0000810E000000F102020100F00001010F83A
:10390000000000000020203F202000000070080878
:1039100008887000003028242221300000300888F8
:10392000884830000018202020110E000000C02020
:1039300010F8000000070424243F240000F8088841
:10394000880808000019212020110E0000E01088CE
:1039500088180000000F112020110E000038080800
:10396000C83808000000003F000000000070880810
:1039700008887000001C222121221C0000E0100891
:103980000810E0000000312222110F00000000C0EA
:10399000C000000000000030300000000000008087
:1039A0000000000000008060000000000000804077
:1039B0002010080000010204081020004040404090
:1039C00040404000040404040404040000081020E3
:1039D0004080000000201008040201000070480828
:1039E0000808F0000000003036010000C030C82890
:1039F000E810E0000718272423140B000000C0384B
:103A0000E0000000203C23020227382008F88888C4
:103A100088700000203F202020110E00C0300808D0
:103A200008083800071820202010080008F80808A7
:103A30000810E000203F202020100F0008F88888A0
:103A4000E8081000203F20202320180008F888886C
:103A5000E8081000203F200003000000C0300808E4
:103A60000838000007182020221E020008F808006D
:103A70000008F808203F210101213F20000808F834
:103A8000080800000020203F202000000000080857
:103A9000F8080800C08080807F00000008F888C017
:103AA00028180800203F20012638200008F80800C8
:103AB00000000000203F20202020300008F8F800FF
:103AC000F8F80800203F003F003F200008F830C011
:103AD0000008F808203F200007183F00E010080801
:103AE0000810E0000F10202020100F0008F8080830
:103AF0000808F000203F210101010000E010080843
:103B00000810E0000F18242438504F0008F8888867
:103B100088887000203F2000030C30200070880847
:103B2000080838000038202121221C00180808F855
:103B3000080818000000203F2000000008F80800D6
:103B40000008F808001F202020201F0008788800A7
:103B500000C83808000007380E010000F80800F817
:103B60000008F800033C0700073C030008186880C1
:103B70008068180820302C03032C30200838C80037
:103B8000C83808000000203F200000001008080886
:103B9000C83808002038262120201800000000FE28
:103BA000020202000000007F40404000000C30C0D4
:103BB00000000000000000010638C0000002020200
:103BC000FE000000004040407F00000000000402B2
:103BD00002020400000000000000000000000000DD
:103BE00000000000808080808080808000020204CD
:103BF00000000000000000000000000000008080C5
:103C0000808000000019242222223F2008F8008032
:103C100080000000003F112020110E0000000080F5
:103C200080800000000E1120202011000000008084
:103C30008088F800000E112020103F2000008080B6
:103C400080800000001F222222221300008080F0CA
:103C5000888888180020203F2020000000008080F5
:103C600080808000006B94949493600008F800803A
:103C700080800000203F210000203F200080989895
:103C8000000000000020203F2020000000000080F5
:103C90009898000000C08080807F000008F8000035
:103CA00080808000203F24022D302000000808F88A
:103CB000000000000020203F202000008080808045
:103CC00080808000203F20003F20003F80800080D7
:103CD00080800000203F210000203F2000008080E5
:103CE00080800000001F202020201F008080008096
:103CF0008000000080FFA12020110E000000008045
:103D000080808000000E112020A0FF808080800035
:103D10008080800020203F21200001000000808062
:103D2000808080000033242424241900008080E057
:103D3000808000000000001F202000008080000024
:103D400000808000001F202020103F208080800005
:103D50000080808000010E30080601008080008015
:103D6000008080800F300C030C300F00008080003A
:103D7000808080000020312E0E3120008080800065
:103D80000080808080818E70180601000080808015
:103D9000808080000021302C2221300000000000B3
:103DA000807C020200000000003F40400000000054
:103DB000FF00000000000000FF0000000002027C85
:103DC000800000000040403F0000000000060101AC
:103DD00002020404000000000000000004000008CB
:103DE00000000000000000020001000010000000C0
:103DF000636D643D31267569643D616536653437B0
:103E0000626133373366343665373964623065381A
:103E10006365366535306561336426746F70696338
:103E20003D646174612C636F6E74726F6C2C6F6E85
:103E30006C696E650D0A0000683F000800000020F4
:103E4000A420000028010008084A0008A42000203F
:103E5000240A00008C01000810010000430000004B
:103E6000F8FFFFFF0040404040404040404041419B
:103E7000414141404040404040404040404040403F
:103E800040404040400502020202020202020202D9
:103E900002020202022020202020202020202002D6
:103EA0000202020202029090909090901010101066
:103EB0001010101010101010101010101010101002
:103EC0000202020202028888888888880808080896
:103ED0000808080808080808080808080808080862
:103EE000020202024000000000000000000000008A
:103EF00000000000000000000000000000000000C2
:103F000000000000000000000000000000000000B1
:103F100000000000000000000000000000000000A1
:103F20000000000000000000000000000000000091
:103F30000000000000000000000000000000000081
:103F40000000000000000000000000000000000071
:103F50000000000000000000000000000000000061
:103F600000000000000000002005010000000452D5
:103F700000082104120F04120A0832500C120A0819
:103F80000316500001613CD2FF01D20128100C0839
:103F90000889EA1888000404FC0404011048000F92
:103FA00010020100FF0186402018074080403F209A
:103FB000F0101010F01F10F00040E0584740506023
:103FC000C020100B4022150816210000FE420102FD
:103FD00011FEA920058060F807A8000613402010F4
:103FE0000804C82008FF000402013F4001021178C4
:103FF0004113F0100122FF050613F00A120FD92316
:1040000004FF0502110F7F300A404042CC00808837
:1040100088FF0302118021100B201F2040504C43C9
:1040200040405F830111802009FC242424FC2526C4
:1040300024080110C1000F1140308F80844C552599
:104040002525554C8080601200742005E00204187C
:104050008C01117F6006100C030000FD0310010E9F
:10406000A0000E1014A4442434AD6624940444A487
:1040700014FE100C08090808090909FD09090B09B3
:10408000021108C013FE2201410505134013070267
:104090000122FF05021107FE1004F212FE02F00ACF
:1040A000F200844F2414244F845E040F10FF4A4909
:1040B000484949FF004049497F4949401805106077
:1040C000028C1E22920109121F100A04047E014074
:1040D0007E42427E020315427E40413F011740046A
:1040E0000B524448507F40407F504844C0011E015D
:1040F000031D363621021DFE41021A331D140A101B
:104100009453321E325210001F0313427E6043FF4D
:1041100049010E12FF1E031708CCA1000B114ACC57
:1041200018007F88888482E03E000914121252929F
:104130007F00007E20200A20222A2AAA6A3A2E29FD
:10414000010B102020801DBC0333FF55010113809B
:104150003DBC03040B109000F888898E888888F88D
:10416000C0CC0844827F8140300FD604A51F000BCD
:104170001222322AA6A262211109811E000F10000C
:104180004222130B42827E02020A1223463E001094
:10419000102030AC63300088C8A8998E88A8C888E1
:1041A0005E30066722121280811D86030E11712176
:1041B000051F02C2200323FE82010E120260045377
:1041C000407F040E124040041C07080888C8380CC1
:1041D0009C0323E808010D13800513404101227F51
:1041E000050E1440C0040C0B140444645C47F444F2
:1041F000444404C004111A200444447F060514807A
:104200000C091150445465C64464542003258000B1
:104210000A110182824A562322524EE12C080609D5
:1042200009E6F80C041F040C041402041E410430B7
:10423000041F3020FE0F1120107F031C07F80122FD
:10424000A0A2A281040C0412AA320220060C0E15B0
:10425000FF0010130A4B20170C133880FF40060C88
:10426000091504E4A4A4BFA4A4E440061DFC032291
:104270004A0107157F4040140440A09EC00B119EC8
:10428000A0C01D02060C0B123F908840432C102842
:104290004641C00510081715D55557557D0408042B
:1042A00014D515170049FF0F14557F4006820801E9
:1042B0000D142003A1010D1240040C0613F8888C84
:1042C0008A893D035D000435FF0F13444400041F39
:1042D0000000FF041D01051DFF050F1123228005AD
:1042E00035D9340442827FE10A10020018044044A8
:1042F000C4584E4082070D1181070C0B14103C135B
:104300001014B840300E0140081C0B00202020A0E3
:104310006000FF6080640801121F10041008063B53
:104320000407127F0001020408002900080A161081
:10433000901011161010D010000C0812415E404071
:10434000704E41C0076C0440301E400809129F0C9B
:10435000101181814121110D0301030D11214181B2
:10436000813F071C0902FA02FE4020D8170A090102
:1043700011A01C0B8047300F1067804021160709E1
:104380000D12E1071DFB0411010C08100808FF08BD
:10439000090AC80004200880601F0010201F41087F
:1043A0000512182641F83E12F80405188004071774
:1043B00030101F088848801D40041C044458C0A4C5
:1043C000040C0511C050484620032680982DA109F1
:1043D0000E153F80092DD909040A11FE0042A29E44
:1043E00082A2C2BE9F400A6F080828CF00002FC8D3
:1043F00008FD3F050C0E11E222223E00809E9292A3
:10440000F292929E80094C074382423E4047C0048C
:104410000F5554E7C007000415C03FC01A19973D57
:1044200083090C061100030C1020A1091C049052F2
:104430003441052406345280708F8AF1201008829E
:104440009A566322528E48080413330C33003DDC25
:10445000090E14FF1E06511E0D19400629BB100738
:104460000082BAEABA83040E1182E0070C0F931897
:104470000F04484A2AFF8A4A1A2F5A8A88000A18C3
:1044800007201808C838CF200E1498000A2D4308BA
:104490000C07534021060A1120C0095E7F20090A3B
:1044A000127F1A1DFF031E1DF90323FF89010D1240
:1044B0000004040D11028282422212FA06222242D4
:1044C00042801C05010100FC7D071E4580050E127F
:1044D000FCC008300920180AAAAAAA0AFE060E1073
:1044E0002802050C0E110202FA0A0A7A0E0A7A0A4A
:1044F0004A8A7A80051F000238032D3F0B110402FF
:1045000011F21F11A02A92830C0512324A4642A0D2
:10451000081202381C04FE020040050C0411F014BD
:10452000135F051D3E040C0C1308FF048141310D7F
:10453000030D31410005400522428272050D13C072
:10454000072DC1052E0EC60507134E80620C081AF2
:1045500038340282C27C38220B0F183737000B1C0C
:104560000A88C433809E909F909E83050E10F08031
:10457000051D3F090C0D1580403E02023E10886764
:10458000186780800E1C04042424020C0D12000CF9
:104590003D800E3C040000F9420B0E17F9C00A0CD6
:1045A0000612FE9180FF80810C3D40090C0A10002C
:1045B0008082462A132A468240041F80607E0710AC
:1045C00004A4643F051F242409070D1001060C0CE8
:1045D000144829094D8D7B0B09284C983F0C2D7BE5
:1045E0000A41050D13C2044D3A0F2D3E0F0E114125
:1045F000C0053D400D7D420F0D14400D0C0C1241C5
:10460000E151494543415161C10140061DD90F2285
:10461000C2050F12424260071C062070282423E5C1
:10462000070C0515242830E061050C0712180680D8
:104630000007185E0525C01141132621402F386060
:104640004D030D12A0061C08D00804030408D09FD7
:10465000050213805F2C040708B0C1100113621D0E
:10466000940F43BEA2010E15BE20041F06051B11A8
:104670000C06524484443C00401029C15700404479
:104680000E134080113D68090D143D038D80051106
:10469000010D11BF117D800F2DBF070C045141404A
:1046A00070C003100700BE2A2A2AEA040E133E41F6
:1046B000073F44425C052D64050D11BF0C1DE10D43
:1046C0001EFF40113FFF0487100D1140032C0B8883
:1046D000482F090919AF48300F860A0D116008C12B
:1046E000010D31A00F0D3D800B830484010E1304D6
:1046F000DF0AA1010D117F105E047C130D148013DD
:104700004F007F3F031F2021A1110D12A2062E0290
:104710007F032DFD0F0C041442C202800E7C044066
:10472000784744080115A000041621222CA06D0032
:10473000091D800B0C041518600000040F1642FEC2
:1047400000045E8041094D3F090E4F80800A0D3EF6
:10475000400A1C0708A4A3AAAAEA8307040412AA11
:104760002AEA400C0F100485945C6624544C84059E
:10477000000F3040800B400620104C4754010C04C1
:104780001BD40404C81111400E8FF000091C04084A
:1047900048887D091D06130C0612061544847C808A
:1047A0000D1F0C039D142F101307120E1042E3036C
:1047B0000C0E1320201010282422E122242810108F
:1047C000400F2E013C072E4F3E070D13A0111D81F7
:1047D0001622CAF90E14FF00064D81164E068607F2
:1047E0000E5103C00C0D7E40120DFF00050DBC00E4
:1047F000056D81090D177F093D80104DE40D0D15E4
:104800007D0E0D3B40070D3EC0031008407C407FED
:10481000484848270C041123CC1060040C0E117F6B
:104820004844432428FF01091121D10D80033DE0B4
:10483000051C040804C39D110D13E0057DC6130D6E
:104840001900175222010D131F1A1D3B036E02851A
:10485000120E150000140C0B148040B08E8080875F
:10486000986080401A3D80030D1442091D36120CD9
:104870000A12FF9014E4AFA4A4A4AF4014130403DD
:10488000400C0911894B2A1A0E1A2A4BE009200400
:10489000101090013D00131D84120D11000B2C040B
:1048A00060203F39083D01070D1040061F8070FA57
:1048B000045F100401030D10C0051F8060BF0A0EC5
:1048C0001830000A0D3E40074DC00C0118804DC045
:1048D0000C0D18800A6E807D0C3106061480C1090B
:1048E0001B033DBB131DC51B0D137F0E2D80133DF8
:1048F00081132D7F130D1380131D401618062022DF
:1049000022A2FA450D1540161D83180C041511201E
:104910001F430B4D3C1C1D98072D46130A14F880AD
:1049200031391E7FA9140111401DC0171C04FF4816
:104930004887030213FF3F0C101000816508072011
:10494000C0080423C0030023C4821C100640504E3C
:104950004848422A481C0D1322191DBD0E08071491
:10496000FF12221E000FC13C04020CC0A4093DBF6F
:10497000030D11400C2E02350B0D17BF032DFF1B2D
:104980001C045A8620C3071EE3C1070D12A00A0C9F
:104990000F4FFF040827110D41817F0105093100E8
:1049A000801B097F40ADA3050D1780136D7F130693
:1049B0001440400D19C01C25402E07DE1E0C0511A9
:1049C000030C1422C0194DDC042EFEDF040D13600D
:1049D000179D3F052D0609014F804D28205D1720AA
:1049E0006EEF731CAC0B3132333435363738393017
:1049F0004C202005010203040400090006070809F1
:084A000002040608000000009A
:04000005080000ED02
:00000001FF
