:020000040800F2
:10000000B82A00207D020008DD2E0008652D0008BA
:10001000D92E0008172200082F3F0008000000001A
:100020000000000000000000000000007136000821
:100030009D23000800000000D53300086138000847
:10004000970200089702000897020008970200082C
:10005000970200089702000897020008970200081C
:10006000970200089702000897020008970200080C
:1000700097020008970200089702000897020008FC
:1000800097020008970200089702000897020008EC
:1000900097020008970200089702000897020008DC
:1000A00097020008970200089702000897020008CC
:1000B000C538000897020008970200089702000858
:1000C00097020008970200089702000897020008AC
:1000D000970200083D3C0008DD3C0008970200083C
:1000E00097020008970200089702000800F002F843
:1000F00000F0B4F80AA090E8000C82448344AAF10E
:100100000107DA4501D100F0A9F8AFF2090EBAE80B
:100110000F0013F0010F18BFFB1A43F0010318473B
:10012000905B0000B05B000010F8013B0A4413F044
:10013000030408BF10F8014B1D1108BF10F8015B44
:10014000641E05D010F8016B641E01F8016BF9D133
:10015000002D15D010F8014B03F00C030C2BA1EB74
:1001600004040ABF10F8013BA4EB8314A4EB03249E
:1001700005F1010314F8016B5B1E01F8016BF9D561
:10018000914238BF10F8013BD1D3704700230024BF
:1001900000250026103A28BF78C1FBD8520728BF97
:1001A00030C148BF0B6070476E2900F0AE837029E4
:1001B00000F00785662905F0A280652905F09F807B
:1001C000672905F09C80612905F09B8003681B0A64
:1001D00028BF41F08001692900F0EA80642900F01D
:1001E000E780752900F0E4806F2900F09484782975
:1001F00000F0D384E92900F02F84E42900F02C8456
:10020000F52900F02984EF2900F09184F82900F005
:10021000D2840368DB0928BF41F08001632900F024
:10022000B083732900F0B583E32901F0FF80F3293F
:1002300001F00481002070471FB501F00BFB0400A2
:100240000020002104F004FE401C6060002000211A
:1002500004F0E8FDE0601FBD10B510BD01F0CCFA60
:100260001146FFF7E9FF03F017FF01F0A9FB03B404
:10027000FFF7F2FF03BC03F0D2FE000009488047FD
:1002800009480047FEE7FEE7FEE7FEE7FEE7FEE778
:10029000FEE7FEE7FEE7FEE704480549054A064B90
:1002A0007047000065380008ED000008B824002001
:1002B000B82A0020B8260020B82600207047000089
:1002C0001CB50C46064B7B4469460090204600F066
:1002D00036FB04460020694600F044FB20461CBD66
:1002E0009B0600000FB41CB5084B06AA7B44694668
:1002F0000090059800F023FB04460020694600F0BA
:1003000031FB20461CBC5DF814FB000075060000A4
:1003100070B5044685690068C10601D5302600E045
:100320002026C00707D070BDD4E901213046904790
:10033000206A401C20626D1EF6D570BD70B5044663
:1003400085690078C00707D170BDD4E9012120205C
:100350009047206A401C20626D1EF6D570BD70B5B6
:100360000C460546012A05D02878800600D5EA69A2
:10037000002302E0012305E05B1C934202D2E05C13
:100380000028F9D1A869E618C01AA861286A18449B
:1003900028622846FFF7BCFF04E0D5E9012114F8E4
:1003A000010B9047B442F8D32846FFF7C7FF70BD52
:1003B0002DE9F0410646002410687529314616A53E
:1003C00010D000F037FA002802DA404213A507E007
:1003D00031688A0701D512A502E0490704D511A5A5
:1003E000012401E000F02FFA00210A2206F124077F
:1003F00009E0B0FBF2FCB0FBF2F302FB1C00303072
:1004000078541846491C0028F3D123462A46304622
:10041000BDE8F04100F020BA000000002D0000000F
:100420002B000000200000002DE9F05F8946044603
:100430004FF0000ADFF874B1FB44C0F820A020465A
:10044000E1688847002874D0252806D0D4E9012126
:100450009047206A401C2062F1E700265F46204654
:10046000E16888472028054607DB312D05D2781939
:1004700010F8200C08B10643F1E7B00701D526F0CB
:100480000406C4F81CA00027C4F818A02A2D09D01F
:10049000284603F0BDFD38B304EB8708303DC8F8AB
:1004A000185019E059F8041B204604EB87029161AB
:1004B000E1688847012F054618D1E069002820DA55
:1004C00026F020061DE0D8F8180000EB800005EBB0
:1004D00040003038C8F818002046E16888470546D3
:1004E00003F096FD0028EED1012F0AD02E2D08D161
:1004F0002046E16888477F1C0546022F46F020060B
:10050000C4DBA069002803DA404246F00106A0617E
:10051000F00701D026F010066C2D0BD0682D09D005
:100520004C2D39D06A2D35D0742D35D07A2D33D05D
:1005300016E038E0E1682F4620468847B842054675
:1005400009D16C2F26D04FF48060E1680643204625
:100550008847054604E06C2F1AD04FF4807006439C
:100560000DB3A5F14100192802D8203546F40066E4
:100570004A462946204626604E46FFF715FE80B1C2
:1005800001280BD0F61D26F0070000F1080956E7F8
:100590004020E4E78020D8E70020D6E706F10409F0
:1005A0004DE7284652E7206ABDE8F09FE25600007A
:1005B0000FB400B58DB010A9099000910B904FF0C9
:1005C000FF300A9000200C900648784406900648B8
:1005D00078446A4607900F9909A800F011FB0DB006
:1005E0005DF814FB530600006B0600002DE9FF5F69
:1005F0001D464FF0FF3B91464FF000085F46D5E99E
:100600000146A96901987F1C8847296A8246884764
:100610000028F6D1BAF1FF3F0CD0002E24F4C064BC
:1006200019DD600614D5BAF12B0F09D0BAF12D0FE0
:100630000ED103E0584604B0BDE8F09F44F4806456
:10064000A96901987F1C8847761E8246002E02DD2C
:10065000BAF1300F03D0B9F1000F26D032E0A9690A
:10066000761E01987F1C44F400748847002E824651
:1006700005DDBAF1780F06D0BAF1580F03D0B9F101
:10068000000F10D01EE0B9F1000F02D0B9F1100F29
:1006900018D1A969761E01987F1C24F4007488473C
:1006A0008246102002E0082000E00A20814609E08E
:1006B000A96908FB0908761E01987F1C44F40074A0
:1006C00088478246002E05DD4946504600F084FAF0
:1006D0000028EDDAE96901988847A00502D46FF097
:1006E0000100A8E7E00725D1600613D5600502D513
:1006F000C8F1000000E0404629680A1D2A60096828
:10070000220501D5087015E0220701D5088011E007
:1007100008600FE02868011D29600068210502D5E6
:1007200080F8008006E0210702D5A0F8008001E0F3
:10073000C0F8008038467EE730B505460B462A46AD
:1007400013F8014B12F8010B08B1A042F8D01CB10C
:10075000002802D06D1CF1E7284630BD10B5431CBF
:1007600002E010F8011B71B18107FAD14FF001329C
:1007700002C88C1A8C4314EAC211F9D0C01A0A06B6
:1007800003D0C01E10BDC01A10BD0A0401D0801EC7
:1007900010BD0902FCD0401E10BD4FF0000204291C
:1007A000C0F0128010F0030C00F01B80CCF1040CA0
:1007B000BCF1020F18BF00F8012BA8BF20F8022BD4
:1007C000A1EB0C0100F00DB85FEAC17C24BF00F87A
:1007D000012B00F8012B48BF00F8012B70474FF0A8
:1007E000000200B5134694469646203922BFA0E881
:1007F0000C50A0E80C50B1F12001BFF4F7AF09078D
:1008000028BFA0E80C5048BF0CC05DF804EB89007D
:1008100028BF40F8042B08BF704748BF20F8022BC0
:1008200011F0804F18BF00F8012B704770477047D8
:100830007047704709684A0501D540B27047C9053D
:10084000FCD500B2704709684A0501D5C0B27047AF
:10085000C905FCD580B270472DE9F0470D46994691
:100860009246044600F124080168880604D5E06930
:1008700021F01001216000E00120A84201DD471BAA
:1008800000E00027A1697A1902EB0900081AA061AB
:100890002078C00602D42046FFF73AFD002608E083
:1008A000D4E901211AF806009047206A401C761C02
:1008B00020624E45F4DB2078C0060AD52046FFF7BB
:1008C00027FD06E0D4E9012130209047206A401C32
:1008D0002062381EA7F10107F4DC07E0D4E901210A
:1008E00018F805009047206A401C2062281EA5F1D8
:1008F0000105F3DC2046FFF721FD2078000602D534
:100900000220BDE8F0870120FBE711680268006A59
:10091000530501D508700AE0D30501D5088006E02B
:10092000130603D5C217C1E9000200E008600120E8
:100930007047000001694A1C02610878704700B5E1
:100940008FB0CDE901310021059105497944CDE908
:10095000031011466846FFF767FD0FB000BD0000A9
:10096000E5FFFFFF0A6802F8010B0A60704710B547
:10097000436913B1AFF3008001E0FFF7F0FC012001
:1009800010BD127800F124010A7000224A70012281
:10099000EDE711684FF0FF32E9E700002DE9FF5F56
:1009A00015468A460446DFF8AC80F8440027D8E9AB
:1009B00000103E46CDE9001010E03AF816106A46E5
:1009C00002A800F0F9FE411C07D02178890603D562
:1009D000E269391891420DD80744761C20788006C8
:1009E00002D5E069B84205DDAE42E6DB3AF8160012
:1009F0000028E2D1A069C01BA0612046FFF788FC57
:100A0000D8E90010CDE90010002017E03AF81810DE
:100A10006A4602A800F0D0FEB0F1FF3F81460BD03D
:100A200000250DF1080B05E0D4E901211BF80500B4
:100A300090476D1C4D45F7D308F10100B042804648
:100A4000E4DB206A384420622046FFF777FCBDE8EB
:100A5000FF9F0000825100002DE9F0418046D21D29
:100A600022F007020025D2E90002F52915A614D0CC
:100A7000011E72F1000106DA0023D0EB030063EBE4
:100A8000020211A608E0D8F800108B0701D50FA6C6
:100A900002E0490701D50EA601251146002408F100
:100AA000240704E000F0DCF830323A55641C50EAC8
:100AB0000102F7D12B46324621464046BDE8F041BF
:100AC000FFF7CABE000000002D0000002B00000050
:100AD0002000000030B4002100F1240408E002F0FE
:100AE0000705D208303542EA4372DB086554491CD9
:100AF00052EA0305F3D10468002310A2250707D5A5
:100B0000A40600D421B1C46901230DA2641EC461EE
:100B100030BCFFF7A1BE10B5044621461068FFF7B0
:100B200092FE02462046BDE810400023D2E7D21DC7
:100B300022F00701D1E90023CCE70000000000000B
:100B400030000000F0B40D460188090502D5214CA3
:100B50007C4402E01F4C7C440E34002100F124064A
:100B600008E002F00F071209E75D42EA03721B0971
:100B70007754491C52EA0307F3D102780023120785
:100B800004D5702D06D009B1022311342246F0BCE1
:100B9000FFF762BE01231034F8E770B504460D4636
:100BA00021461068FFF74FFE024629462046BDE861
:100BB00070400023C6E7D21D22F00703D3E90023CB
:100BC000C0E70368126843F0200303600823C36191
:100BD0000023B7E7E44F00003A2800D2303820F075
:100BE0002002412A01D3A2F13700884201D34FF0FD
:100BF000FF3070470268114413780160184670474F
:100C0000D160054979445161044979441162002158
:100C10001161114600F016BCEDFFFFFFDD00000082
:100C2000426842B1016811F8013B23B1521EC0E98C
:100C30000012184670470121C160881E7047426843
:100C40005AB1C368016843B983688B4205D0491E15
:100C5000521CC0E90012002070474FF0FF3070476F
:100C600030B5B0F10A024FEA900E71F100034EEA7E
:100C7000817EB0EB0E0061EB91014FEA101E4EEA4F
:100C8000017E10EB0E0041EB11114FEA102E4EEADF
:100C9000016E10EB0E0041EB11214FEA104E4EEAAF
:100CA000014E10EB0E0041EB1141401841F10001E3
:100CB0004FEAD00040EA41704FEAD10110EB8005C5
:100CC0004FEA810444EA907444EB01046D1944EB4B
:100CD0000404521BA3414FF0000348BF0A3200D561
:100CE00030BD401C41F1000130BD10B5044600F09C
:100CF000A9FD0068005D00F0010010BD70472DE9FE
:100D0000FF4F0C461E464FF0FF378BB0D2E9000173
:100D1000DDF860800A908A46C1F30A5505B93D4660
:100D2000002108464FF00000BAF1000F00F4400027
:100D300005DA00EB80004FF4400101EA50004FEA71
:100D40009059B9F1010F00DDB9460A9850EA4A00FE
:100D50000ED044F61050A5F2FF3545432F14B8F1DC
:100D6000000F1ED07542291E1EDDC9F100021CE0D5
:100D7000B8F1010F4FF0000001D0302103E0F24341
:100D800005E02154401CB042FBDB3046002200212C
:100D900021540B99C1F80880C1E900200FB0BDE8CB
:100DA000F08FBD1B6D1CDEE74A4600DA694206A8DB
:100DB00000F094FD06AB93E8070003AB83E807005F
:100DC00050460A9900F04AFE8DE80700A0F5005051
:100DD0001F3800900398002D0ADD42F21F014A4699
:100DE0000844002303A90390684601F0B3F809E022
:100DF000A0F500504A461F38002303A90390684617
:100E000001F0BDF88DE807000004000C03D04FF09E
:100E1000FF30410800E01046B8F1000F03D0002277
:100E2000009215461EE0751E05D4FFF719FF3032FB
:100E300062556D1EF9D5B3460122084302D0002247
:100E40007F1C04E02078302801D100227F1E002A78
:100E5000099784D01DE0112D07DAFFF701FF30322A
:100E600062556D1C50EA0102F5D1084302D000988A
:100E7000C8B10EE00021681E05E0235C625C63548B
:100E80002254401E491C8142F7DBAB46A81B401E82
:100E90000990002004F80B000B98099AC0F808800C
:100EA000C0E9002B7AE711264FF0000857E72DE93B
:100EB000F04F88460446D21D22F0070191B0D1E9D7
:100EC0000001CDE90A0103F08FF802460B98C00F2C
:100ED00001D02D2007E02068810701D52B2002E0FA
:100EE000202101EAC000032A099001D0072A05DB6E
:100EF00003464146204600F0B1FC0BE12078800615
:100F000001D5E06900E00620B8F1650F814606D002
:100F1000B8F1660F18D0B8F1670F70D131E000203A
:100F2000B9F1110F009001DB112301E009F1010378
:100F30000AAA01A90CA8FFF7E2FEDDE90C70002661
:100F400009F10105834647E001204B4600904FF030
:100F500000470AAA01A90CA8FFF7D1FEDDE90DB0F0
:100F60000C995D46002610B909F101000D18B9EB86
:100F7000050003D4C0F1FF3609F10105A5EB090016
:100F80002BE0B9F1010F01DA4FF001090020B9F1AE
:100F9000110F0090484601DD112300E003460AAA24
:100FA00001A90CA8FFF7ABFEDDE90C704D46002649
:100FB0008346207800070AD4AB4500DA5D4601A8D5
:100FC000012D04DD411911F8011C302907D04F45CE
:100FD00002DA17F1040F04DA012082460FE06D1ED9
:100FE000EEE7002F02DCED1B3E4403E0781CA84234
:100FF00000DD7D1CB81B00F1010A4FF0004720788E
:10100000000703D4AA4501DB4FF0FF3A0021B7F1F6
:10101000004F0DF143088DF8431024D002202B23FC
:10102000002F01DA7F422D230A21021EA0F10100C8
:1010300000DC5FB197FBF1FC97FBF1F201FB1C7C3C
:1010400017460CF1300C08F801CDEEE7A8F10100CD
:1010500003702188090501D5452100E06521A0F133
:10106000010800F8011C09980FA9A1EB0807FF1D52
:1010700000B10120411901EBEA70A1693844081A56
:10108000401EA0612078C00602D42046FFF740F938
:10109000099828B1D4E901219047206A401C2062B8
:1010A0002078C00622D52046FFF732F91EE0002E38
:1010B00004DBB34502DD01A8805D00E03020D4E907
:1010C00001219047206A401C2062761CAAF1010091
:1010D0005FEA000A0AD100F0BDFBC0680168405C0D
:1010E000D4E901219047206A401C2062281EA5F106
:1010F0000105DCDC07E0D4E9012118F8010B904779
:10110000206A401C2062381EA7F10107F3DC20464C
:10111000FFF714F9032011B041E600002DE9F04F6C
:1011200004460D46D21D22F0070089B0D0E9009791
:101130004846394602F058FF0246F80F01D02D23E9
:1011400007E02068810701D52B2302E0202101EA76
:10115000C0038DF820300BB1012000E00020032AED
:10116000824601D0072A04DB2946204600F076FBA0
:101170003FE12078800601D40D2500E0E569C7F342
:101180000A560D2D49DA00214FEA175B08464FF049
:101190000000002F00F4400007DA00EB80004FF45D
:1011A000400100EBD07001EA60008115012901DDEA
:1011B0004FF0FF3100224FEA850CBCF1180F06D327
:1011C0001346ACF118004FF08052C24003E04FF4D8
:1011D000801323FA0CF30CF10C0CBCF1200F04D398
:1011E000ACF1200C09FA0CF001E007FA0CF0002930
:1011F0004FF0004801DD18B90FE00ED140450CD387
:1012000019EB02095F4121B9404502D19F4329EA08
:101210000209BBEB175F00D0761C2088000502D5C1
:101220007B48784402E07A487844193808AA302389
:1012300002F80A30037C0AF10101002E0AF1020AC9
:1012400053546A4602DC4FF0300101E04FF03101A7
:101250004FF001088DF8001002D0A6F2FF3603E02F
:1012600059EA470100D06B4E002D02DC21780907B6
:1012700004D54FF002082E218DF80110C44600213C
:101280000BE0C7F303433F01C35C491C6D1E02F82A
:101290000830052908F1010801DA002DF1DC0021F0
:1012A0000CE000EB1973491C1B786D1E082902F82D
:1012B00008304FEA091908F1010801DA002DF0DCC5
:1012C00021688B0602D516E0A8F10108E04505DD8E
:1012D00002EB080313F8013C302BF5D0B8F1000FF6
:1012E00009DD02EB080313F8013C2E2B03D109079B
:1012F00001D4A8F10108002D05DD3E2102F80810F7
:101300006D1E08F10108407C002E02F8080008F16B
:10131000010804DA2D20764202F8080002E02B20B2
:1013200002F808000A214FF47A70864208F1010899
:101330000BDB96FBF0F3303302F8083096FBF0F34A
:1013400008F1010800FB136601E0642E0CDB642049
:1013500096FBF0F3303302F8083096FBF0F308F117
:10136000010800FB136601E00A2E06DB96FBF1F094
:10137000303002F8080008F1010896FBF1F001FB9B
:101380001060303002F80800A16908F1010808EB8C
:10139000050202EB0A00081AA0612078C00602D4F8
:1013A0002046FEF7B5FF216A08AE01EB0A00206275
:1013B00004E0D4E9012116F8010B9047BAF1010AC3
:1013C000F7D22078C00602D52046FEF7A1FF6E4670
:1013D00009E016F8010B3E280FD0D4E9012190470F
:1013E000206A401C2062B8F10108F2D22046FEF7C4
:1013F000A5FF09B00320BDE8F08F206A28442062D1
:1014000003E0D4E90121302090476D1EEBD3F8E7CB
:101410004D49000002FCFFFF10B5436913B1AFF363
:10142000008001E0FFF7BAFA012010BD128800F138
:10143000240182840022C2840122EDE711684FF06A
:10144000FF32E9E72DE9F34F4FF0000A0C4656460C
:101450008DB001200C9001F10C000B9062690B988B
:1014600001219047051E2DD0252D2CD0216A8847BB
:10147000C0B162690B9801219047216A8847002812
:10148000F7D16269411E0B98904700E0761CA16974
:101490000D988847216A88470028F7D1E1690D989F
:1014A0008847DBE7A1690D988847A842074601D124
:1014B000761CD3E7E1690D9888477F1C02D1BAF109
:1014C000000F6FD06CE162690B9800273D463946EA
:1014D00090472A2804D162690B9801219047012581
:1014E000DFF8D08262690B9801219047A0F13001AA
:1014F0000A290AD24745E5DC07EB870100EB4107E3
:10150000303FDFD445F01005ECE7E90601D46FF079
:1015100000476C280AD04C2814D0682815D06A28B7
:101520000DD074281CD07A281AD01DE062690B985F
:10153000012190476C2802D045F0040514E045F0E5
:1015400002050DE045F020050AE062690B980121D3
:101550009047682802D045F0080505E045F400658D
:1015600062690B9801219047C4E9015765283DD075
:1015700019DC58287AD00CDC452837D004DC252823
:1015800026D041289ED131E046282FD0472899D136
:101590002CE05B2877D0612828D063287CD0642891
:1015A00023D15AE0F7E06F2848D008DC66281DD028
:1015B00067281BD0692821D06E2816D127E0702813
:1015C00045D0732868D0752847D078280DD14DE0D4
:1015D000A1690D988847252805463FF469AFE16960
:1015E0000D9888476D1C3FF46AAFD9E00D992346EA
:1015F0006A466FF00100AFF30080C6E045F040009E
:1016000023464FF000026060A80736D43EE0E807AA
:101610007FF447AF2068011D21600068290501D5CE
:1016200006701BE7290701D5068017E7A90703D530
:10163000F117C0E9006111E706600FE745F04000CF
:1016400023464FF008026060A80716D41EE040F65B
:101650000E0125EA0100606016E045F040002346D7
:101660004FF00A026060A80707D40FE045F0400081
:101670006060A80708D5234610220D996FF001007D
:10168000AFF3008081E007E0102223460D996FF050
:101690000100FEF7ABFF78E04FF0000963284F46EA
:1016A000C8464B46CB4602D05B2807D039E02079AC
:1016B000C00601D40120A060012732E06269D4F89D
:1016C0000CB00B98012190475E2807D14FF001091B
:1016D00049466269D4F80CB00B989047216939B932
:1016E00000210A4603AB43F82120491C0829FADBF4
:1016F000D8B3216949B308F1010862690B98012147
:1017000090475D28F4D1B9F1000F09D0002003A95A
:1017100051F82020D24341F82020401C0828F7DB54
:1017200003AB2069002820794FEA40701ED05B4649
:101730002246CDF80080CDE901970D9900286FF081
:10174000010020DAAFF300801FE0C11703AA00EB0D
:10175000D1614B1121F01F0102EB8302411A136882
:101760000120884003431360C7E719E00D99224622
:1017700000286FF00100009702DAAFF3008004E068
:10178000AFF3008001E0AFF3008000280ADA401CCC
:1017900006D10C9820B14FF0FF300FB0BDE8F08FAC
:1017A0005046FAE7E90701D10AF1010A0644002090
:1017B0000C9053E6CCCCCC0C70B516460C460546C6
:1017C00000F040F8036893F80101012806D0FF2CCF
:1017D0000FD8185D68B101202C7070BDD3F80701D7
:1017E0003246214603F2071303442846BDE8704001
:1017F00018474FF0FF3070BD754600F0EBF8AE466D
:1018000005006946534620F00700854618B020B50C
:10181000FEF742FDBDE820404FF000064FF0000704
:101820004FF000084FF0000B21F00701AC46ACE888
:10183000C009ACE8C009ACE8C009ACE8C0098D46F5
:101840007047000010B500F005F8001D10BD00BF86
:101850000136000000487047782400202DE9F0414F
:101860001F46044603260168072A01F4006004DBD2
:1018700008B116A505E016A503E008B115A500E01E
:1018800015A521F010002060A069C01EA0610FB155
:10189000401EA0612046FEF73BFD4FB1D4E9012177
:1018A00038469047206A401C2062C01C206206E037
:1018B000206AFAE7D4E9012115F8010B9047761E5A
:1018C000F8D22046FEF73AFDBDE8F0814E414E00C9
:1018D0006E616E00494E4600696E66002DE9F04764
:1018E000814616468AB0354878440DC88DE80D000B
:1018F00032487844801C03AC0DC884E80D0041F6E2
:101900009B300844372190FBF1F290FBF1F5A5F1F3
:10191000800501FB12041B3C02D56442012000E05B
:101920000020DFF898A080460027FA44AAF1BE0AFA
:101930000EE0E0070AD03246684607EB4701012374
:101940000AEB810100F01BFB8DE8070064107F1C8F
:10195000002CEED1194F7F44AE3F19E0E80715D0B7
:1019600007EB04100DF1180A90E80E008AE80E004B
:10197000C068F04201D1981908903246012306A9A7
:1019800003A800F0FCFA03AB83E807006D10641CA9
:10199000002DE3D14FF0010332466946B8F1000F44
:1019A00003A802D000F0D6FA01E000F0E8FAC9E995
:1019B0000001C9F808200AB0BDE8F087184300000C
:1019C00010B50446AFF300802046BDE81040FEF796
:1019D0004EBC000000487047582400204FF0013CE6
:1019E00050F8042B51F8043B9A4221D1A2EB0C038E
:1019F000934313EACC1317D150F8042B51F8043B4E
:101A00009A4215D1A2EB0C03934313EACC130BD1EA
:101A100050F8042B51F8043B9A4209D1A2EB0C0375
:101A2000934313EACC13DBD04FF00000704700BFA4
:101A3000D01A01BAB1FA81F101F0180122FA01F0CD
:101A4000CB40C1F12001DBB2C0B2C01A2CFA01F3C5
:101A5000D11A914311EAC311E6D170475FEA400CF5
:101A600008BF91F0000F4FEA8C234FEAC12243EAEE
:101A700051514FEA1C5018BF00F5F0404FEA3000BA
:101A800018BF41F000415FEA6C5C00F02980BCF1B6
:101A9000FF3F08BF40F080407047130C06BF1204A0
:101AA0004FF0100C4FF0000C130E04BF12020CF19B
:101AB000080C130F04BF12010CF1040C930F04BFA8
:101AC00092000CF1020CD30F04BF52000CF1010C78
:101AD00011464FF00002A0F11F00A0EB0C00704770
:101AE00011F0004F08BF704731F000413FF4D5AF0F
:101AF0000B0C06BF09044FF0100C4FF0000C0B0E3E
:101B000004BF09020CF1080C0B0F04BF09010CF112
:101B1000040C8B0F04BF89000CF1020CCB0F04BF27
:101B200049000CF1010CCCF12003A0EB0C0022FACF
:101B300003F302FA0CF241EA030100F101007047DD
:101B400020F07F4C80EA030023F07F47ACEB0703D3
:101B500003F57C5300F0004003F1FF032DE98049B9
:101B60004FEA154B09B44FEA144325EA0B4E24EA19
:101B700003480FF2042606EB132749083E785FEA74
:101B8000320203FB0667C7F5000707FB06F64FEABC
:101B900054374FEAD64606F1020607FB066CCCF135
:101BA000005C4FEA1C472CEA074C07FB06F40CFBD1
:101BB00006F504EB15464FEA961634BF00204FF0A9
:101BC00000404FEAD13706FB07FC4FEA1C4C0CFBE8
:101BD0000BF7D21B03FB0CF761EB07010CFB0EF7B5
:101BE000B0EB074072EB17420CFB08F734BFA2EBD7
:101BF0000742B2EB074261EB17414FEA0C444FEA50
:101C0000910706FB07FC4FEA1C4C0CFB0BF7B0EBF3
:101C1000C74072EB573203FB0CF734BFA2EBC7424D
:101C2000B2EBC74261EB57310CFB0EF7B0EBC700CC
:101C300072EB57720CFB08F734BFA2EBC702B2EB92
:101C4000C70261EB5771039F4FEA816141EA92112C
:101C500004EBCC044FEAD1374FEA826206FB07FC63
:101C600042EA90124FEA80604FEA1C4C0CFB0BF7E3
:101C7000D21B03FB0CF761EB07010CFB0EF7B0EB7B
:101C8000074072EB17420CFB08F734BFA2EB074288
:101C9000B2EB074261EB17414FEA8C554FEA9107CF
:101CA00004EB9C2406FB07FC4FEA1C4C0CFB0BF7D7
:101CB000B0EBC74072EB573203FB0CF734BFA2EB1B
:101CC000C742B2EBC74261EB57310CFB0EF7B0EBEA
:101CD000C70072EB57720CFB08F734BFA2EBC702C8
:101CE000B2EBC70261EB577115EB4C254FEA8161EE
:101CF00041EA92114FEA82624FEAD13742EA9012EA
:101D000006FB07FC44F100044FEA80604FEA1C4CDC
:101D10000CFB0BF7D21B03FB0CF761EB07010CFB71
:101D20000EF7B0EB074072EB17420CFB08F734BF1D
:101D3000A2EB0742B2EB074261EB174115EB1C1512
:101D40004FEA813141EA92414FEA823242EA9042BF
:101D50004FEA80304FEA0C7644F1000448EA03432E
:101D60004EEA0B484FF0000EB2EB080C71EB030784
:101D700024BF624639464EEB0E0E4FF0000B0018A2
:101D8000524149414BEB0B0BB2EB080C71EB0307D3
:101D90007BF1000B24BF624639464EEB0E0E4FF02E
:101DA000000B0018524149414BEB0B0BB2EB080CF6
:101DB00071EB03077BF1000B24BF624639464EEB03
:101DC0000E0E51EA020718BF46F0010616EB0E761A
:101DD00055F1000254F1000103D5BDE88901BDE8C9
:101DE0000088BDE88901BDE80048B619524141EBC1
:101DF0000101A3F10103704780807F7E7D7C7B7AA7
:101E00007978777676757473727171706F6E6E6DA6
:101E10006C6C6B6A6A69686867666665646463634C
:101E200062616160605F5F5E5E5D5D5C5C5B5B5AD2
:101E30005A5959585857575656555555545453533F
:101E400052525251515050504F4F4F4E4E4D4D4D9A
:101E50004C4C4C4B4B4B4A4A4A49494948484847E5
:101E60004747474646464545454444444443434323
:101E70004342424242414141002B9C4630D47700CC
:101E80002BD01CB54FEA370703B44FF010004FF0CA
:101E90001001BAF1000F06D0BCF1000FDCBF40F01A
:101EA000080040F008014FF000000FBCBDE81040F2
:101EB0000BF1010BBBF1010F08BF5FEA170722BF4F
:101EC00012F1010211F101014FF0004143F1000351
:101ED00000F0004043EA00007047F9D35708D0E70C
:101EE00046EA064613F1400F4FEA16461FDD13F18E
:101EF000200FDFBF16430A46002120335B42BED0CD
:101F0000C3F1200746EA064602FA07F74FEA1646EB
:101F100046EA0706C3F1200722FA03F201FA07F79F
:101F200021FA03F14FF0000342EA0702A7E746EA6D
:101F3000020646EA06464FEA164646EA0106BCBFD6
:101F400046EA0646360C4FF000034FF000024FF011
:101F5000000194E72DE9804C9A46934670B491E8CD
:101F6000380007C831EA400C48BF34EA430C03D5B7
:101F7000FFF7E6FDFFF780FFF0BCBDE8008C2DE920
:101F8000804C9A46934670B491E8380007C810F028
:101F9000804F08BF13F0804F03D100F005F8FFF722
:101FA0006BFFF0BCBDE8008C20F07F4780EA0300A7
:101FB00023F07F4C07EB0C03A3F57C5300F00040AB
:101FC000A3F1FE0392F0000F00F0B38095F0000F34
:101FD00000F077802DE901494FEA11404FEA14469D
:101FE00021EA004800FB06FC24EA064708FB06F647
:101FF00007FB08F800FB07F718EB06484CEB164CFC
:102000004FEA124B18EB07484FEA15464CEB1740C6
:1020100022EA0B4E0BFB06FC25EA06470EFB06F6F2
:1020200007FB0EFE0BFB07F71EEB064E4CEB164CA8
:102030004FF000061EEB074E4CEB174B18EB0B084E
:1020400040F1000018EB0E0B58EB000840F10000C7
:102050008F1A4FF000013CBFC943661B14BFB5EB9C
:10206000040C00213CBFC943F61B4FEA17444EEA5B
:102070008E0E27EA04454FEA1C4704FB07622CEA50
:10208000074C05FB07F70CFB05F604FB0CFC16EBF5
:10209000074642EB174216EB0C4642EB1C421BEB89
:1020A000060658EB0202414146EA9E0601D5BDE80C
:1020B0000189B619524141EB0101A3F10103BDE8C9
:1020C00001894FEA14454FEA114724EA054621EAFF
:1020D000074C05FB07F406FB07F70CFB06F105FBB5
:1020E0000CFC11EB074144EB17444FEA124711EB8C
:1020F0000C4144EB1C4422EA074C05FB07F206FBAB
:1021000007F70CFB06F605FB0CFC16EB074642EB4B
:10211000174216EB0C4642EB1C456A1854F10001BD
:1021200048BF7047B619524141EB0101A3F10103C9
:10213000704795F0000F37D04FEA11424FEA14472D
:1021400021EA024624EA074C02FB07F106FB07F7E7
:102150000CFB06F402FB0CFC14EB074441EB1741AB
:102160004FEA154714EB0C4441EB1C4125EA074CA0
:1021700002FB07F506FB07F70CFB06F602FB0CFC5F
:1021800016EB074645EB174516EB0C4645EB1C4294
:10219000121951F1000148BF7047B619524141EB85
:1021A0000101A3F1010370474FEA14454FEA1147BB
:1021B00024EA054621EA074C05FB07F106FB07F771
:1021C0000CFB06F24FF0000605FB0CFC12EB07427D
:1021D00041EB174112EB0C4251EB1C4148BF7047D9
:1021E000921841EB0101A3F10103704730B501469C
:1021F0000846CC1701EB14742411A1EB04140A4611
:10220000CD1701EB15752D1105EB850504EB450484
:10221000E3B2184630BD00BFFEE7000010B5002451
:102220001548006820F470201349086008460068CB
:1022300040F48020086004E0601CC4B2012001F07A
:1022400013FF0E48006808B1C82CF5DBC82C01DB71
:10225000012010BD002404E0601CC4B2012001F084
:1022600003FF0648006808B9C82CF5DBC82C01DB61
:102270000120EEE70020ECE7040C01403081214210
:1022800008B50121082001F0B7F84FF48050ADF8EF
:10229000000014208DF8030003208DF80200694629
:1022A000064800F081FC4FF48051044800F052FDD4
:1022B00000F048F8FFF7B2FF08BD0000000C014035
:1022C00010B5002404E0601CC4B2012001F0CCFE73
:1022D0001148006808B1642CF5DB642C01DBFF2099
:1022E00010BD002404E0601CC4B2012001F0BCFE5B
:1022F0000948006808B9642CF5DB642C01DBFF2079
:10230000EEE7232001F0B0FE0348006808B1012089
:10231000E6E70020E4E700003081214270B50025A7
:1023200000260AE06806050EFFF7CAFF0446FF2CE8
:1023300000D170BD2543701CC6B2082EF2DB2846C2
:10234000F7E7000010B51248006820F4702010492B
:1023500008600846006840F4E020086000200D494D
:102360000860012001F074FE01200B49C1F8B001A2
:102370001E2001F079FE0648006820F47020044910
:1023800008600846006840F48020086010BD000026
:10239000040C0140B08121420080214270470000BE
:1023A00010B500F01BFD0020044908600449C1F885
:1023B000B4010021802000F077F810BDBC0122425A
:1023C0000000224270B5054601260120334908600D
:1023D0000A2001F049FE00241CE000202F490839A2
:1023E00008600A2001F040FE05F0010020B1012044
:1023F0002A49091F086003E000202849091F0860D6
:102400006D1001202549083908600A2001F02CFED2
:10241000601CC4B2082CE0DB2148406820F07060EA
:102420001F4948600846406840F00060486000244A
:1024300016E0761000201949083908600A2001F0DA
:1024400013FE1848D0F8380108B146F08006012084
:102450001249083908600A2001F006FE601CC4B267
:10246000082CE6DB0E48406820F070600C4948609C
:102470000846406840F0407048600020074908392D
:1024800008600A2001F0F0FD00200649C1F8BC01F7
:102490000A2001F0E9FD304670BD0000BC01224277
:1024A000001001400000224270B505460E4630483B
:1024B000406820F070602E4948600846406840F04F
:1024C0004070486001202B4908600A2001F0CCFDD3
:1024D00000202949C1F8B4010A2001F0C5FD0024FB
:1024E0001CE005F0010020B101202249091F08600D
:1024F00003E000201F49091F08606D1001201D49DD
:10250000083908600A2001F0AFFD00201A49C1F81F
:10251000B4010A2001F0A8FD601CC4B2082CE0DB65
:1025200000241CE006F0010020B101201149091F20
:10253000086003E000200F49091F086076100120A1
:102540000C49083908600A2001F08EFD00200A4974
:10255000C1F8B4010A2001F087FD601CC4B2082C48
:10256000E0DB0020034908600A2001F07DFD70BD1A
:1025700000100140BC0122420000224210B54FF47D
:1025800080710548FEF709F9002004490880012000
:102590000349087010BD0000562200207A20002058
:1025A0007C2000202DE9F8438146152203210020DC
:1025B00000F096FD16220321122000F091FD172253
:1025C0000321242000F08CFD18220321362000F086
:1025D00087FD102397A20321482000F0BFFE10239F
:1025E00096A203216C2000F0B9FE042206210020EF
:1025F00000F076FD05220621122000F071FD0D226B
:102600000621242000F06CFD0121042000F0F4FEDE
:102610000220ADF8000010208DF8030003208DF893
:1026200002006946864800F0BFFA0221844800F0A3
:102630008FFB4FF4FA7001F00BFD0221804800F08F
:1026400089FB4FF47A7001F003FD484600F05AFA16
:102650004FF480717B48FEF7A0F800207A4908808B
:10266000FFF78CFF0326D9E04FF47A7277A178A0A8
:1026700000F088F900287CD140F6B83273A176A02A
:1026800000F080F90327B8E04FF47A726FA176A0CA
:1026900000F078F900286DD14FF47A726BA176A022
:1026A00000F070F94FF0030894E0002406E02046A3
:1026B00000F072FE142001F0CBFC641C1E2CF6DD31
:1026C00042F2107270A174A000F05CF900287AD177
:1026D0004FF4FA6279A17BA000F054F906E020469D
:1026E00000F05AFE1E2001F0B3FC641C282CF6DD1D
:1026F00003255EE006E0204600F04EFE142001F0C7
:10270000A7FC641C3C2CF6DD41F2883270A172A05B
:1027100000F038F9002847D106E0204600F03CFEE2
:10272000142001F095FC641C462CF6DD744800F082
:102730005FF906E0204600F02FFE0F2001F088FC34
:10274000641C642CF6DD002000F00CFC0022114615
:10275000104600F0C5FC01220021122000F0C0FC50
:1027600002220021242000F0BBFC2622002136207A
:1027700001E04EE03CE000F0B3FC272200214820BD
:1027800000F0AEFC10235FA20321002000F0E6FD64
:10279000102360A20621002000F0E0FD40F2DC5092
:1027A00001F056FCBDE8F88305215EA000F01EFD97
:1027B0006D1E002D9EDC05DC05215AA000F016FDE3
:1027C0000CE000E005E005215CA000F00FFDA8F1A1
:1027D000010800BFB8F1000F3FF767AF00BFB8F1C5
:1027E000000F04DC052155A000F000FD08E004E026
:1027F000052157A000F0FAFC7F1E002F3FF744AFE1
:1028000000BF002F04DC052151A000F0EFFC08E020
:1028100004E0052155A000F0E9FC761E002E3FF7EC
:1028200023AF00BF002E03DC052150A000F0DEFC2A
:1028300000BFB7E757494649000000002E2E0000B0
:1028400000080140562300207E2000204F4B00004E
:1028500041540D0A0000000041542B524553544F7F
:1028600052450D0A0000000041542B43574D4F4480
:10287000453D310D0A00000041542B4349504D5550
:10288000583D300D0A0000005749464920434F4E3D
:102890004E4543544544000041542B43574A415050
:1028A0003D22626F63636869343537222C223230EF
:1028B0003230363235363633220D0A005354414910
:1028C0005000000041542B43494653520D0A00006A
:1028D000434F4E4E4543540041542B4349505354AB
:1028E0004152543D22544350222C2262656D666150
:1028F0002E636F6D222C383334340D0A0000000033
:10290000685C00085769466920636F6E6E65637482
:102910006564000042656D666120636F6E6E65637D
:102920007465640042656D666120636F6E6E6563F9
:1029300074206661696C656400000000576946692F
:1029400020636F6E6E656374206661696C656400F8
:1029500057694669206D6F64652073657474696E8C
:1029600067206661696C6564000000004154206363
:102970006F6D6D616E642074657374206661696C3F
:102980006564000070B504460E46154600201549E2
:1029900008804FF480711448FDF7FFFEFFF7EEFD4D
:1029A0000BE014F8011B114801F0BDFA00BF8021B3
:1029B0000E4801F0EAF90028F9D020780028F0D17B
:1029C00009E0012001F044FB31460748FDF7B4FE61
:1029D00008B1002070BD281EA5F10105F1D101202C
:1029E000F8E700007E20002056230020004400402D
:1029F00030B589B00446202101A8FDF7F0FE20463D
:102A0000FDF7ACFE85B24FF47A7225A125A0FFF741
:102A1000B9FF10B1012009B030BD2A4623A101A899
:102A2000FDF760FC4FF4FA6224A101A8FFF7AAFFAA
:102A300090B141F2883222A123A0FFF7A3FF4FF407
:102A4000FA7001F005FB4FF4FA621CA101A8FFF730
:102A500099FF08B10120DEE70020254908804FF4E6
:102A600080712448FDF799FE0BE014F8011B224801
:102A700001F059FA00BF80211F4801F086F90028B3
:102A8000F9D020780028F0D140F6B8321BA106A07A
:102A9000FFF778FF08B10120BDE70020BBE7000089
:102AA0004F4B000041540D0A0000000041542B43DD
:102AB000495053454E443D25640D0A003E00000038
:102AC000434F4E4E4543540041542B4349505354B9
:102AD0004152543D22544350222C2262656D66615E
:102AE0002E636F6D222C383334340D0A0000000041
:102AF0007E200020562300200044004053454E44D1
:102B0000204F4B0010B586B004460121042000F090
:102B100073FC0121480400F05FFC0420ADF81400B0
:102B200018208DF8170003208DF8160005A91C4801
:102B300000F03AF80820ADF8140004208DF81700D2
:102B400005A9174800F030F801940020ADF80800FE
:102B5000ADF80A00ADF80C00ADF810000C20ADF88F
:102B60000E0001A90F4801F06DF926208DF8000034
:102B700003208DF801008DF8020001208DF803007C
:102B8000684600F0ADF9012240F22551054801F0F8
:102B900033F90121034801F0ECF806B010BD000044
:102BA00000080140004400402DE9F04102460025A4
:102BB0000026002000230024002791F803C00CF019
:102BC0000F0591F803C00CF0100CBCF1000F03D0FE
:102BD00091F802C04CEA050591F800C0BCF1000F65
:102BE00031D0146800202BE04FF0010C0CFA00F3F8
:102BF000B1F800C00CEA03069E4220D183004FF0DA
:102C00000F0C0CFA03F7BC4305FA03FC4CEA04046E
:102C100091F803C0BCF1280F06D14FF0010C0CFA5B
:102C200000FCC2F814C00AE091F803C0BCF1480FE0
:102C300005D14FF0010C0CFA00FCC2F810C0401C8A
:102C40000828D1D31460B1F800C0BCF1FF0F34DD07
:102C5000546800202EE000F1080C4FF0010808FA3B
:102C60000CF3B1F800C00CEA03069E4221D18300A8
:102C70004FF00F0C0CFA03F7BC4305FA03FC4CEAC7
:102C8000040491F803C0BCF1280F05D100F1080C31
:102C900008FA0CF8C2F8148091F803C0BCF1480F90
:102CA00007D100F1080C4FF0010808FA0CF8C2F83F
:102CB0001080401C0828CED35460BDE8F08100008D
:102CC000F0B50A46002300240021002500F000464C
:102CD000B6F1004F02D11D4EF16901E01B4E716843
:102CE000C0F3034583B200F44016B6F5401F08D187
:102CF00021F07061154E766826F07066134F7E6085
:102D000012E000F48016B6F5801F06D1032606FAFD
:102D100005F4A14341F0706106E0460D360103FA67
:102D200006F6B14341F0706122B1460D360103FA57
:102D300006F6314300F00046B6F1004F02D1034ED3
:102D4000F16101E0014E7160F0BD00000000014042
:102D50004161704701617047014800687047000099
:102D60002C00002000BFFEE710B54FF48071094829
:102D7000FFF7F0FF4FF400710648FFF7EBFF4FF449
:102D800000710448FFF7E4FF4FF480710148FFF73A
:102D9000DFFF10BD000C014010B54FF480710748F3
:102DA000FFF7D8FF4FF400710448FFF7D1FF4FF44D
:102DB00000710248FFF7CEFF10BD0000000C01407B
:102DC00010B54FF480710448FFF7C4FF4FF48071D1
:102DD0000148FFF7BDFF10BD000C014008B50121FF
:102DE0001C2000F009FB02208DF802004FF4604027
:102DF000ADF8000010208DF8030069460148FFF788
:102E0000D3FE08BD0010014010B5044614B10120E6
:102E1000234908702248007858B32248006858B106
:102E20002048001D006838B11E480830006818B1FD
:102E30001C480C300068E0B90A2001F009F90020B4
:102E4000174908701748006808B9012010BD1548D7
:102E5000001D006808B90220F8E712480830006831
:102E600008B90320F2E70F480C300068B0B904201D
:102E7000ECE70C480068012810D10A48001D0068E2
:102E800001280BD1074808300068012806D1054801
:102E90000C300068012801D1014908700020D5E7F5
:102EA000582000201081214208B50121082000F09F
:102EB000A3FA01210648FFF703FF48208DF803001D
:102EC000F020ADF8000069460248FFF76DFE08BD2E
:102ED00000023000000C014000BFFEE77047000018
:102EE00070B5002100230F22C47804B3154C246868
:102EF00004F4E064C4F5E064210AC1F10403CA40AB
:102F0000447804FA03F184781440214309010E4CFB
:102F10000678A155047804F01F050124AC4005781B
:102F20006D11AD0005F1E025C5F8004109E0047818
:102F300004F01F050124AC40044D0678761145F8D5
:102F4000264070BD0CED00E000E400E080E100E010
:102F500002490143024A1160704700000000FA056F
:102F60000CED00E070B50646002418E004F1B00056
:102F7000002100F023FA0021084600F01FFA00218A
:102F8000102000F01BFA002505E00121304600F07A
:102F900015FA681CC5B2802DF7DB601CC4B2082C82
:102FA000E4DB70BD08B50121082000F025FA4FF4DC
:102FB0004070ADF8000010208DF8030003208DF85C
:102FC000020069463B48FFF7EFFD4FF44071394876
:102FD000FFF7C0FEC82001F03BF80021AE2000F052
:102FE000EDF90021084600F0E9F90021102000F079
:102FF000E5F90021402000F0E1F90021B02000F0C7
:10300000DDF90021812000F0D9F90021FF2000F036
:10301000D5F90021A12000F0D1F90021A62000F06F
:10302000CDF90021A82000F0C9F900213F2000F0CF
:10303000C5F90021C82000F0C1F90021D32000F01B
:10304000BDF90021084600F0B9F90021D52000F0B3
:10305000B5F90021802000F0B1F90021D82000F05E
:10306000ADF90021052000F0A9F90021D92000F0D8
:10307000A5F90021F12000F0A1F90021DA2000F0EB
:103080009DF90021122000F099F90021DB2000F0C9
:1030900095F90021302000F091F900218D2000F0F9
:1030A0008DF90021142000F089F90021AF2000F0F3
:1030B00085F908BD000C014070B504460D4605F1C8
:1030C000B000002100F07AF9102141EA141000212B
:1030D00000F074F904F00F00002100F06FF970BDEA
:1030E0002DE9F04180460E46154600273146404600
:1030F000FFF7E2FF00240AE0124A02EB8511085DA7
:10310000012100F05BF9781CC7B2601CC4B2102C1E
:10311000F2DB701CC1B24046FFF7CEFF00240CE08A
:103120006900491C074A02EB4111085D012100F0CA
:1031300045F9781CC7B2601CC4B2102CF0DBBDE8A6
:10314000F0810000580000202DE9F04707460E46A8
:103150009046994600250024A8F12000C5B27F2F93
:1031600002DD0027B01CC6B2B9F1100F24D13146E0
:103170003846FFF7A1FF002408E004EB0511194AC7
:10318000505C012100F01AF9601CC4B2082CF4DB79
:10319000701CC1B23846FFF78FFF002409E004EB32
:1031A000051108310F4A505C012100F007F9601C3D
:1031B000C4B2082CF3DB12E031463846FFF77CFF3F
:1031C00000240AE005EB4501074A02EB4101085DD6
:1031D000012100F0F3F8601CC4B2062CF2DBBDE85C
:1031E000F08700002E55000806530008FEB505467E
:1031F0000E460020FFF7B6FE002211461046FFF7EC
:103200006FFF012200211220FFF76AFF0222002136
:103210002420FFF765FF242200213620FFF760FFFE
:10322000252200214820FFF75BFF10232A460321B7
:10323000002000F093F834460FE0224621A16846B2
:10324000FDF750F810236A4606215A2000F086F850
:103250004FF47A7000F0FCFE641E002CEDDC0020C0
:10326000FFF780FE152203210020FFF739FF162209
:1032700003211220FFF734FF172203212420FFF738
:103280002FFF182203213620FFF72AFF10230EA25A
:103290000321482000F062F810230DA203216C20C6
:1032A00000F05CF8042206210020FFF719FF052238
:1032B00006211220FFF714FF0D2206212420FFF71C
:1032C0000FFFFEBD2564730057494649000000000A
:1032D0002E2E00002DE9FF5F074691461E460E9DEB
:1032E0004FF0000A002435E0301B401EC1B20A2016
:1032F00001F0CEFCB9FBF0F00A21B0FBF1F201FBCA
:103300001208BAF1000F14D1701EA04211DDB8F1FD
:10331000000F0CD1AB4605EBDB71491001FB0471CA
:10332000C8B22B4620220199FFF70EFF10E04FF0A4
:10333000010AAB4605EBDB71491001FB0471C8B211
:1033400008F13001CAB22B460199FFF7FDFE00BF1C
:10335000601CC4B2B442C7DBBDE8FF9F2DE9F04159
:1033600004460F461546984600260FE0AA5D4346E0
:1033700039462046FFF7E8FE04F10800C4B2782C75
:1033800002DD0024B81CC7B2701CC6B2A85D0028BC
:10339000ECD1BDE8F08100003EB50446224605A10F
:1033A0006846FCF79FFF10236A4606213C20FFF782
:1033B000D5FF3EBD256425250000000070B50446FC
:1033C0000D461DB1E0B200F0F9FD02E0E0B200F000
:1033D000DFFD70BD7047000029B1064AD269024383
:1033E000044BDA6104E0034AD2698243014BDA619B
:1033F000704700000010024029B1064A926902435A
:10340000044B9A6104E0034A92698243014B9A613A
:10341000704700000010024030B500210022002457
:1034200000232D4D6D6805F00C0121B1042905D054
:10343000082923D105E0294D056022E0274D0560CC
:103440001FE0254D6D6805F47012234D6D6805F47D
:103450008034022505EB92421CB9214D554305608D
:103460000BE01D4D6D6805F400351DB11C4D554335
:10347000056002E0194D5543056002E0174D0560F7
:1034800000BF00BF144D6D6805F0F0010909154D2E
:103490006B5C0568DD4045600F4D6D6805F4E061CB
:1034A000090A104D6B5C4568DD4085600A4D6D680A
:1034B00005F46051C90A0B4D6B5C4568DD40C56081
:1034C000054D6D6805F44041890B074D6B5CC5687F
:1034D000B5FBF3F5056130BD0010024000127A0023
:1034E00000093D00802000209020002010B58D2094
:1034F000FEF768FF0446FEF779FE1D4988808920A3
:10350000FEF760FF0446FEF771FE194988718720B7
:10351000FEF758FF0446FEF769FE1549C87185207D
:10352000FEF750FF0446FEF761FE11490870832044
:10353000FEF748FF0446FEF759FE0D49487081200A
:10354000FEF740FF00F07F042046FEF74FFE0849DB
:1035500088708B20FEF736FF0446FEF747FE0449CD
:1035600008720846808800F5FA6000B2888010BDB5
:103570001022002010B50446204600F001F810BDCE
:103580002DE9FC410446002000900190FEF7DAFE90
:10359000FEF744FE10B10120BDE8FC8100260BE0DF
:1035A000FEF7BCFE0DF806001DF80600FF2801D14D
:1035B0000120F1E7701CC6B2052EF1DB9DF800007A
:1035C0009DF8011008449DF8021008449DF803106E
:1035D00008449DF80410884201D00120DCE79DF8E2
:1035E00001009DF8001040EA0127B7F57A7F01DB62
:1035F0000120D1E70A2097FBF0F020700A2097FB0A
:10360000F0F100FB117060709DF803009DF802104E
:1036100040EA0125C5F30E00B0F5487F01DD012029
:10362000BAE705F4004078B1C5F30E00B0F5C87FE5
:1036300001DD0120B0E7C5F30E000A2190FBF1F097
:10364000404240B2A07006E0C5F30E000A2190FB94
:10365000F1F040B2A070C5F30E000A2190FBF1F228
:1036600001FB1200E0709DF804002071002093E738
:103670007047000010B586B00446012144F20400F2
:10368000FFF7BAFE4FF40070ADF8140003208DF878
:10369000160018208DF8170005A91D48FFF784FAB9
:1036A0004FF48060ADF8140004208DF8170005A9D0
:1036B0001748FFF779FA25208DF8000001208DF8D2
:1036C000010000208DF8020001208DF803006846FB
:1036D000FFF706FC01940020ADF80800ADF80A00E1
:1036E000ADF80C00ADF810000C20ADF80E0001A9EB
:1036F000084800F0A7FB012240F22551054800F0E0
:103700007BFB0121034800F034FB06B010BD000034
:1037100000080140003801400FB400B59BB01DA85F
:10372000019002A8019A1C99FCF7CAFD00200190A3
:1037300002A800F013F81BB05DF814FB10B50446A6
:103740002146054800F0EFFB00BF8021024800F051
:103750001CFB0028F9D010BD0038014070B50446AC
:10376000002504E0605DFFF7E9FF681CC5B2605DFD
:103770000028F7D170BD10B500F002F810BD0000B0
:103780000CB50020019000903348006840F4803070
:103790003149086000BF3048006800F400300090F4
:1037A0000198401C0190009818B90198B0F5A06FDD
:1037B000F1D12948006800F4003010B101200090D8
:1037C00001E0002000900098012843D123480068C0
:1037D00040F01000214908600846006820F003000E
:1037E00008600846006840F0020008601A48406817
:1037F000194948600846406848600846406840F4F7
:10380000806048600846406820F47C1048600846A4
:10381000406840F4E81048600846006840F0807056
:10382000086000BF0C48006800F000700028F9D064
:103830000948406820F0030007494860084640688E
:1038400040F00200486000BF0348406800F00C00F0
:103850000828F9D10CBD00000010024000200240F1
:103860007047000010B51348006840F0010011498E
:10387000086008464068104908400E4948600846FC
:1038800000680E4908400B4908600846006820F4AB
:10389000802008600846406820F4FE0048604FF42D
:1038A0001F008860FFF767FF4FF000600449086061
:1038B00010BD0000001002400000FFF8FFFFF6FE00
:1038C00008ED00E010B50121880700F007F9012894
:1038D00017D10C480068401C0A4908600A48008853
:1038E000401C0949088008460088B0F5FA6F04DBDF
:1038F000002008800120054908700121880700F098
:10390000DEF810BD2C0000205600002035000020FD
:1039100008B5FFF7EBFD5C48007818287ADC5A48B8
:1039200040783C28FADC5848007A0728F6DC5648EC
:10393000C0791F28F2DC544880790C28EEDC52480C
:10394000C079009050488379B0F904204FA15348C2
:10395000FCF7C8FC0C23514A03210020FFF7FEFCB2
:103960004948807800904848437802784CA14B48F9
:10397000FCF7B8FC0C23494A04210020FFF7EEFCB9
:103980004148007A072876D2DFE800F00414243496
:1039900045556500662203215020FFF7A1FB5E22FA
:1039A00003216020FFF79CFB652203217020FFF7B5
:1039B00097FB60E0662203215020FFF791FB5E2217
:1039C00003216020FFF78CFB5F2203217020FFF7AB
:1039D00087FB50E0662203215020FFF781FB5E2227
:1039E00003216020FFF77CFB602203217020FFF79A
:1039F00077FB40E0662203215020FFF771FB5E2237
:103A000003216020FFF76CFB612203217020FFF788
:103A100067FB30E030E0662203215020FFF760FBB7
:103A20005E2203216020FFF75BFB622203217020EE
:103A3000FFF756FB1FE0662203215020FFF750FBE3
:103A40005E2203216020FFF74BFB632203217020DD
:103A5000FFF746FB0FE0662203215020FFF740FBF3
:103A60005E2203216020FFF73BFB642203217020CC
:103A7000FFF736FB00BF05E010230DA20621002052
:103A8000FFF76CFC08BD00001022002025303464D4
:103A90002D253032642D2530326400002422002090
:103AA000253032643A253032643A253032640000E1
:103AB0007368696261690000CA4302827047CA4341
:103AC0000282704721B1028842F00102028004E0C4
:103AD00002884FF6FE731A400280704730B50246E6
:103AE000002000230024158A05EA0103958905EAD0
:103AF000010413B10CB1012000E0002030BD1AB167
:103B000083890B43838102E083898B4383817047E0
:103B100001894FF6F8721140018170470022028836
:103B20001D4B98420ED01D4B98420BD0B0F1804FE8
:103B300008D01B4B984205D01A4B984202D01A4B22
:103B4000984204D14FF68F731A404B881A43174B93
:103B5000984207D0164B984204D04FF6FF431A40C4
:103B6000CB881A4302808B8883850B8803850A4B98
:103B700098420BD0094B984208D00E4B984205D082
:103B80000D4B984202D00D4B984201D10B7A03861F
:103B90000123838270470000002C01400034014063
:103BA0000004004000080040000C004000100040ED
:103BB0000014004000400140004401400048014022
:103BC0001FB501210846FFF707FC4FF08040FFF7C3
:103BD0009FFF0020ADF80A00ADF8060040F2E73084
:103BE000ADF808004720ADF8040000208DF80C0067
:103BF00001A94FF08040FFF791FF01218807FFF7EF
:103C00005BFF012211469007FFF779FF4FF4A06098
:103C1000FFF79EF91C208DF8000001208DF80300AD
:103C20008DF8010000208DF802006846FFF758F972
:103C300001218807FFF746FF1FBD000010B540F2C5
:103C40002551214800F0AEF801283CD11E4800F073
:103C500065F9C4B21D48007858B9402C2DD11C48D4
:103C6000007850BB012019490870002019490870DC
:103C700023E01648007801280FD10D2C03D1022033
:103C80001249087019E0144812490978445411483F
:103C90000078401C0F4908700FE00C48007802289B
:103CA0000BD10A2C09D10020084908700A49094A99
:103CB0001278885401200649087040F225510248C4
:103CC00000F048F800BF10BD003801406C20002013
:103CD000662000206D200020DE21002010B540F27B
:103CE0002551164800F05EF830B3144800F016F97C
:103CF000C4B213480088FF2807DC114801880088F7
:103D0000401C0F4A10800F4844540F480088FF2879
:103D100007DC0D4801880088401C0B4A10800B48C6
:103D200044540A2C02D100200949087040F2255160
:103D3000024800F00FF800BF10BD00000044004032
:103D40007A200020562200207E20002056230020CA
:103D50007C20002010B50022002340F66A14A14206
:103D600000D100BF0A1201249440A3B2DC430480B6
:103D700010BD21B1828942F40052828104E082891F
:103D80004DF6FF731A408281704702460020B1F55C
:103D9000007F00D100BF13880B400BB1012000E071
:103DA0000020704770B50246002400230025002043
:103DB00040F66A16B14200D100BFC1F3421501F0CE
:103DC0001F03012606FA03F3012D02D19689334021
:103DD00006E0022D02D1168A334001E0968A334074
:103DE0000C12012606FA04F41688344013B10CB103
:103DF000012000E0002070BDF0B50346002400263D
:103E00000025002040F66A17B94200D100BF1846CD
:103E1000C1F3421401F01F06012707FA06F5012C31
:103E200001D10C3004E0022C01D1103000E014303C
:103E30001AB107682F43076002E00768AF430760C5
:103E4000F0BD00002DE9F04786B005460E4600247F
:103E5000A24600BFA1460027B08900B100BF2F468F
:103E60002C8A4CF6FF700440F08804432C82AC8905
:103E70004EF6F3100440B088318908437189084335
:103E80000443AC81AC8A4FF6FF400440B089044340
:103E9000AC8201A8FFF7C0FA1F48874202D1DDF8C3
:103EA00010A001E0DDF80CA0A88900F4004040B1AA
:103EB0000AEBCA0000EB0A1031684900B0FBF1F8C8
:103EC00007E00AEBCA0000EB0A1031688900B0FB7A
:103ED000F1F86420B8FBF0F004012009642101FB33
:103EE0001089A88900F4004040B1322000EBC900DD
:103EF000B0FBF1F000F00700044308E0322000EBD3
:103F000009106421B0FBF1F000F00F0004432C8194
:103F100006B0BDE8F08700000038014001468888FF
:103F2000C0F308007047C1F308028280704700BFE9
:103F3000FEE700002DE9F04105462C464FF4807164
:103F40001248FEF705FF00261CE0274607F0800711
:103F5000802F04D1B9000D48FEF7FCFE04E04FF4B9
:103F600000710A48FEF7F4FE6006040E4FF48071FB
:103F70000648FEF7EFFE4FF480710448FEF7E8FEB6
:103F8000701CC6B2082EE0DBBDE8F081000C0140D9
:103F900010B50446FEF7E8FE7820FFF7CBFFFEF7EA
:103FA0000FFF0020FFF7C6FFFEF70AFF2046FFF7CE
:103FB000C1FFFEF705FFFEF7EFFE10BD10B504468A
:103FC000FEF7D2FE7820FFF7B5FFFEF7F9FE40209E
:103FD000FFF7B0FFFEF7F4FE2046FFF7ABFFFEF75A
:103FE000EFFEFEF7D9FE10BD490050EAC12018BF10
:103FF00004204A0D18BF40F0010040F2FF72B2EBFE
:10400000515F08BF40F00200012808BF052070473B
:1040100030380A2801D2012070470020704700BFC5
:104020007047000008B501210820FFF7E5F94FF4BB
:104030008060ADF8000010208DF8030003208DF89B
:10404000020069460148FEF7AFFD08BD000C0140C3
:1040500000B5034603E04FF47A7000F005F8181E2F
:10406000A3F10103F7D100BD00EBC001C9004FF07F
:10407000E0225161002191610521116100BF4FF0E3
:10408000E021096901F480310029F8D004214FF0C2
:10409000E0221161704700001FB54FF4A060FEF7E9
:1040A00057FFFEF701FFFEF77DFF0020FEF75AFFE6
:1040B0004FF4E130FFF7DEFAFEA0FFF72DFBFEF72D
:1040C0006FF900F083FE00F097FEFFF7ABFFFFF7FC
:1040D00077FD132203210020FFF702F814220321A9
:1040E0001220FEF7FDFF152203212420FEF7F8FF22
:1040F000162203213620FEF7F3FF00220321482079
:10410000FEF7EEFF012203215A20FEF7E9FF02220B
:1041100003216C20FEF7E4FF4FF4FA60FFF798FFED
:10412000EAA0FFF7F9FAFEF7ABF8002826D1ECA0D9
:10413000FFF7F2FAF0A0FFF7EFFAF648FFF720FAE0
:104140004FF4FA60FFF784FFF248FFF719FA0028EE
:1041500017D1F148EF490A6802600979017101201D
:10416000EE490870EB4840780090EA480378C2783E
:1041700090F90210EAA0FFF7CFFA02E0F3A0FFF7F0
:10418000CBFA0020FEF7EEFE00BF342200210846E5
:10419000FEF7A6FF352200211220FEF7A1FF3622EE
:1041A00000212420FEF79CFF372200213420FEF757
:1041B00097FF382200214420FEF792FF3922002188
:1041C0005420FEF78DFF3A2200216420FEF788FF7D
:1041D0001023E9A204210820FFF7C0F834220421AB
:1041E0001820FEF77DFF1023E4A204213E20FFF7F4
:1041F000B5F8352204214E20FEF772FF0020FEF7AD
:1042000003FEDF4908700846007801280DD1002020
:10421000FEF7A8FEDBA0FFF77FFA4FF4E130FEF7D0
:10422000C1F90120DE49087003E0D5480078022872
:10423000ABD100BF0020FEF795FEFEF78DFDD949FA
:1042400008600020FEF78EFEFDE3FEF785FDD549F0
:104250000968401AB0F5FA6F35D3AE48FFF78AF90E
:10426000B0B9AD48AB490A68026009790171012013
:10427000AA490870CC490870A64840780090A54823
:104280000378C27890F90210C8A0FFF745FA16E04B
:10429000A248007880B19F489F490A680260097966
:1042A0000171407800909B480378C27890F9021021
:1042B000CA48FFF731FA02E0C9A0FFF72DFAFEF76E
:1042C0004BFDB8490860CF48007800285FD0B4485B
:1042D000007801285BD10020CA4908708D484178D8
:1042E00000788C4AD2788B4B93F90230CDE90032BA
:1042F000CDE90201C4480378C4A2CDA1DB48FBF795
:10430000F1FFDA48FEF774FB28B90020D8490860AD
:10431000D849086016E0D7480068401CD5490860B5
:1043200008460068032806D34FF4E130FEF73AF957
:104330000020D04908604FF4FA60FFF789FE0020A2
:10434000FEF710FECA480068401CC94908600846CC
:1043500000681E2819D36F4840786E4909786D4A65
:10436000D2786C4B93F90230CDE90032CDE90210DE
:10437000A5480378A5A2AEA1BC48FBF7B3FFBB4894
:10438000FEF736FB0020BA490860FEF7F7F8002078
:10439000FEF73AFD7A4908700846007801280ED1E8
:1043A000B5480068401CB44908600020FEF7DAFDFB
:1043B000B1480068042802D10120AF490860AE4826
:1043C0000068012835D1AD48006840B90120AB49EB
:1043D00008600020FEF7C6FD01207349087000F058
:1043E00063FCFFF795FA00F093FC65480078042819
:1043F0000DD10220844908700020A1490860A1491C
:10440000C1F884019E49091F086000F04DFC5C481A
:10441000007803280DD101207B49087000209849BD
:1044200008609849C1F884019549091F086000F0A7
:104430003BFC9148006802283AD190480068012866
:1044400005D102208D4908600020FEF78BFD4C4805
:10445000007802280AD18C480068401C8A4908600C
:1044600008460068042801D1012008607422002158
:104470000846FEF735FE752200211020FEF730FEBB
:10448000102382A200212020FEF768FF762202215D
:104490000020FEF725FE772202211020FEF720FEE5
:1044A00010237AA202212020FEF758FF7822EFE0A5
:1044B000ACE10000E7B3BBE7BB9FE5889DE5A78BB8
:1044C000E58C96E4B8AD2E2E2E0A0D00E5889DE50C
:1044D000A78BE58C9644485432322E2E2E0A0D00BE
:1044E0004448543232E5889DE5A78BE58C96E688F2
:1044F00090E58A9F5C6E0D00E7B3BBE7BB9FE58844
:104500009DE5A78BE58C96E5AE8CE688905C6E0DFC
:104510000000000020000020250000202A000020CC
:10452000E5889DE5A78BE695B0E68DAEE8AFBBE5E7
:104530008F96E68890E58A9F3A20543D25642E2583
:10454000642C20483D25642E25640A0044485432DA
:1045500032E5889DE5A78BE58C96E5A4B1E8B4A586
:10456000EFBC8CE8AFB7E6A380E69FA5E68EA5E793
:10457000BABF5C6E0D000000312E0000322E00002C
:1045800034000020E5889DE5A78BE58C96455350C7
:1045900038323636E6A8A1E59D972E2E2E0A0D005C
:1045A000370000203000002054000020E8AFBBE5B9
:1045B0008F96E68890E58A9F3A20E6B8A9E5BAA6E4
:1045C0003D25642E2564E284832C20E6B9BFE5BA3C
:1045D000A63D25642E256425250A0D001C5C0008D7
:1045E000E8AFBBE58F96E5A4B1E8B4A5EFBC8CE6D7
:1045F00097A0E69C89E69588E695B0E68DAE0A0D13
:1046000000000000350000200000002061653665D4
:104610003437626133373366343665373964623034
:1046200065386365366535306561336400000000C8
:10463000636D643D32267569643D257326746F7021
:1046400069633D64617461266D73673D4D6F646598
:104650003A25642074656D703A25642E25642068BF
:10466000756D693A25642E25640D0A00F820002036
:10467000380000203C00002004000020080000203A
:10468000AC812142008021420C0000203A00000051
:1046900004210020FEF724FD792204211020FEF7DA
:1046A0001FFD1023AFF21C0204212020FEF756FE4E
:1046B000FE480068012824D11023FDA200213C20DF
:1046C000FEF74CFE1023FBA202213C20FEF746FE23
:1046D0001023F8A204213C20FEF740FEF6480078A3
:1046E00002280ED1F5480078032803D10120F449AF
:1046F000086006E0F1480078042802D10020F04963
:104700000860EA480068022826D11023E9A20021A7
:104710003C20FEF723FE1023E5A202213C20FEF7F9
:104720001DFE1023E3A204213C20FEF717FEE24801
:104730000078022810D1E1480078032804D1012034
:10474000DF492839086007E0DC480078042803D1F5
:104750000020DB4928390860D4480068032826D1A6
:104760001023D4A200213C20FEF7F8FD1023D1A293
:1047700002213C20FEF7F2FD1023CDA204213C20B3
:10478000FEF7ECFDCC480078022810D1CB48007829
:10479000032804D10120CA49091F086007E0C7485F
:1047A0000078042803D10020C549091F0860C448C7
:1047B0000068012805D17A2200212820FEF790FC0C
:1047C00004E07B2200212820FEF78AFCBC48283820
:1047D0000068012805D17A2202212820FEF780FCFA
:1047E00004E07B2202212820FEF77AFCB448001F57
:1047F0000068012805D17A2204212820FEF770FCE8
:1048000004E07B2204212820FEF76AFCAD48006802
:1048100003287DD1AC480068022805D10120AA49AF
:1048200008600020FEF79EFBA448007802280AD109
:10483000A6480068401CA54908600846006804288E
:1048400001D1012008601A2200211F20FEF748FC38
:104850001B2200212F20FEF743FC1C2200213F20B9
:10486000FEF73EFC1D2200214F20FEF739FC0A22F4
:1048700002210020FEF734FC0C2202211020FEF75A
:104880002FFC7C2202212020FEF72AFC7D2202211F
:104890003020FEF725FC10233A2202214020FEF7AB
:1048A00053FC1020022300908948194602684820D2
:1048B000FEF710FD0A2204210020FEF711FC0C2255
:1048C00004211020FEF70CFC7E2204212020FEF79C
:1048D00007FC7F2204213020FEF702FC10233A223D
:1048E00004214020FEF730FC10200223009079487C
:1048F000042102684820FEF7EDFC0B22062100206F
:10490000FEF7EEFB0B2206211020FEF7E9FB00E08C
:1049100090E07C2206212020FEF7E2FB7D2206218A
:104920003020FEF7DDFB10233A2206214020FEF75F
:104930000BFC1020022300906748062102684820E3
:10494000FEF7C8FC61480068012823D1102358A253
:1049500002216420FEF702FD102356A204216420E8
:10496000FEF7FCFC102353A206216420FEF7F6FCA0
:1049700052480078032804D155480068401C544927
:1049800008604E480078042804D151480068401E51
:104990004F4908604D480068022823D1102345A2E2
:1049A00002216420FEF7DAFC102341A204216420D6
:1049B000FEF7D4FC10233FA206216420FEF7CEFCB4
:1049C0003E480078032804D142480068401C414911
:1049D00008603A480078042804D13E480068401E28
:1049E0003C49086039480068032823D1102331A2CC
:1049F00002216420FEF7B2FC10232EA204216420C1
:104A0000FEF7ACFC10232AA206216420FEF7A6FCC8
:104A10002A480078032804D12F480068401D2E49F9
:104A2000086026480078042804D12B480068401FFD
:104A30002949086029A12B48FBF77EFE041D244A62
:104A400029A1204600E0FEE0FBF7B2FD08B1FDF72A
:104A500095FD26A12348FBF76FFEC41C1D4A22A129
:104A60002046FBF7A5FD08B1FDF788FD20A11D48F4
:104A7000FBF762FE441D184A1BA12046FBF798FD78
:104A800008B1FDF77BFD1CA11648FBF755FE60B190
:104A90000120094908700020094908601749C1F838
:104AA00084010749091F08603BE029E00C00002051
:104AB0003C00000020000000000000203400002026
:104AC000AC812142040000200800002010000020DA
:104AD00014000020180000201C000020686967688E
:104AE00000000000562200203D2564006C6F750018
:104AF00073686964750000005A4400000080214218
:104B000052A15348FBF718FE58B1022051490870D2
:104B10000020514908605149C1F884014E49091FDC
:104B200008604C480078012851D14D49C87800F000
:104B30002BFA80464B4900F06FFA0646484991F936
:104B4000020000F009FA0746314600F097F90446E2
:104B50004349487800F018FA8046424900F05CFA70
:104B600006463F49087800F00FFA0746314600F044
:104B700085F905463C48006800F0EEF906462146F6
:104B800000F016FA01D2012000E000203249283955
:104B900008603648006800F0DFF90646214600F05C
:104BA00007FB01D2012000E000202B4908603048BB
:104BB000006800F0D1F90646294600F0F9F901D263
:104BC000012000E000202449091F086000BF21489F
:104BD0000078022837D127480078012833D126A150
:104BE0001B48FBF7A9FD10B101201B49086023A158
:104BF0001748FBF7A1FD10B100201749086020A15C
:104C00001348FBF799FD18B10120134928390860B2
:104C10001CA10F48FBF790FD18B100200E49283960
:104C2000086019A10A48FBF787FD18B101200A495D
:104C3000091F086015A10648FBF77EFD18B100208A
:104C40000549091F0860FFF700BB0000534400003E
:104C50005622002000000020AC8121420080214229
:104C600020000020CDCCCC3D1400002018000020F6
:104C70001C000020370000204B4A5200474A5200D7
:104C80004B5A4C00475A4C004B4A5300474A53007A
:104C900010B50246012000E050430B1EA1F10104B3
:104CA000E1B2F9D110BD000010B518480078012814
:104CB00013D11F2200210846FEF712FA21220021FB
:104CC0001020FEF70DFA6C2200212020FEF708FAD2
:104CD0006D2200213020FEF703FA0C4800780228EC
:104CE00013D1202200210846FEF7FAF921220021E3
:104CF0001020FEF7F5F96C2200212020FEF7F0F9D4
:104D00006D2200213020FEF7EBF910BD00000020DD
:104D10001CB522480078C0B9214890F90200214909
:104D20000968884211D11E48C0781F490968884225
:104D30000BD11B4800781D490968884205D11848E5
:104D400040781B490968884227D0154890F902002D
:104D5000144908601248C078134908601048007868
:104D6000124908600E4840781149086000200B493C
:104D700008700B4840780A490978CDE900100848C6
:104D8000C37890F902200BA10F48FBF7ABFA102370
:104D90000D4A06210020FEF7E1FA1CBD5400002058
:104DA0002000002044000020480000204C0000208B
:104DB00050000020543A25642E2564432020483AB0
:104DC00025642E25642525009420002008B50121A6
:104DD0000820FEF711FB4FF40060ADF80000102032
:104DE0008DF8030003208DF8020069460148FDF7A5
:104DF000DBFE08BD000C014008B501210820FEF7CC
:104E0000FBFA0220ADF8000010208DF8030003200B
:104E10008DF8020069460248FDF7C6FE08BD000095
:104E2000000C014010B500290AD00878002807D0EE
:104E300005487844FCF7D2FD002801D0002010BDC1
:104E40000248784410BD00009E0E0000960E00003F
:104E500010B500290AD00878002807D00548784402
:104E6000FCF7BCFD002801D0002010BD02487844AA
:104E700010BD00008E0E0000860E000090EA010FAB
:104E800048BF81F0004100F1CC81421A3CBF801A3A
:104E900089184FEAD0524FF07F4C1CEA410FA2EB29
:104EA000D15318BF9CEA026F00F03B804FF0004CDA
:104EB0004CEA00204CEA012121FA03FC10EB0C0C17
:104EC0001ED202F1FF325FEA1C2040EBC25038BF15
:104ED00070471CF07F0F4FEA400C18BFBCF17F4FAA
:104EE00038BF7047C3F12003994008BF20F001008C
:104EF000BCF17F4F38BF7047A0F1C04000F053B9FC
:104F00004FEA3C00000A40EBC25028BF1CF0FF0FE4
:104F10004FEA400CE6D018BFBCF17F4F38BF704756
:104F2000EAE79CEA026F05D010EA5C0F08BF00F0C8
:104F30000040704710B500F0F0F800BF64FBBE3EC3
:104F4000401058BFC0F14040491058BFC1F1404126
:104F50008142EFF30080704710F0004148BF4042AB
:104F6000B0FA80F310FA03F2C3F19D030BD051EABB
:104F7000C35101EB1220530638BF704700F1010006
:104F800008BF20F001007047B0FA80F310FA03F276
:104F9000C3F19D030AD0D90501EB1220530638BF97
:104FA000704700F1010008BF20F0010070470000C9
:104FB00050EA010C00F113801CF5000F58BFBCF53E
:104FC000000F01D48842704707D710F5000F58BF73
:104FD00011F5000F15D488427047894270471CF5BF
:104FE000000F04D5BCF5000FF7D5814270474FF094
:104FF000807C1CEB400F38BF1CEB410F01D281427B
:10500000704710B500F089F8922449004FF0005025
:105010004FF08051FFF794BF4FF47F0C1CEAD01281
:105020001EBF1CEAD11392EA0C0F93EA0C0F00F09A
:10503000478090EA010F48BF42F480724FF0004C65
:105040004CEA00204CEA012102EB0302A0FB011311
:10505000A2F50002002918BF43F001035B0028BF3E
:105060004FEA330342EB22425FEA132C4CEBC2506F
:105070002EBFBCEB436FB2F57C0F70474FEA036C59
:10508000BCF1004F08BF20F00100B2F57C0F38BF23
:1050900070470BD582F0FF0212F5803FC8BF704702
:1050A00000F1C040D8BF00F00040704700F5000C90
:1050B0005FEA4C0C48BF7047B0F1C04000F073B8D5
:1050C00090EA010F0CEAD11348BF42F480726245A6
:1050D00038BF634504D280EA010000F00040704709
:1050E00010B500F01AF800BF8900013E00F007B8C3
:1050F00000F009B85FEA410C5FEA1C6C08D080EA56
:10510000010000F050B85FEA400C5FEA1C6CF6D179
:105110004FF00040A0F5800070470EF1020E2EF017
:10512000030E5EF8044B244204D44FEA4102B2F16C
:105130007F4F11D84FEA4003B3F17F4F0CD80ED107
:105140004FEAD07CB2F17F4F0CEB4C0C0CF1020C0F
:1051500008BF4CEBD17C04E04FF0080C01E04FEAB3
:10516000D17C0CEB4C0324FA03F404F00704B4F1F3
:10517000040C06D20EEB840CBDE810404CF0010C80
:105180006047DFE80CF0070802024FF00040A0F58E
:10519000800010BD0846420018BFD2F1807288BF5F
:1051A00000F0004010BDFF2141EAD050C00570471B
:1051B00051EA000C00F113801CF5000F58BFBCF53C
:1051C000000F01D48142704707D711F5000F58BF77
:1051D00010F5000F15D481427047894270471CF5C5
:1051E000000F04D5BCF5000FF7D5884270474FF08B
:1051F000807C1CEB410F38BF1CEB400F01D2884272
:10520000704780EA010081EA000180EA0100FFF7AF
:10521000F8BE000090EA010F48BF81F000413FF561
:1052200034AE421A04D882F00042A0EB02001144CE
:105230004FEAD0524FF07F4C1CEA410FA2EBD15302
:1052400018BF9CEA026F4AD04FF0004C4CEA002095
:105250004CEA012121FA03FCB0EB0C0C0FD412F044
:10526000FE0F36D05FEA4C001DD5001240EBC25055
:1052700038BF70471CF03F0F18BF70470BE0A2F11A
:1052800001025FEA1C2040EBC25038BF70471CF09F
:105290007F0F18BF7047C3F12003994014BF401E11
:1052A00020F00100704780084FEA122308BF7047C2
:1052B000B0FA80FCA2EB0C02CCF1280C60FA0CF0E6
:1052C00093EA122F04BF00EBC25070474FEAC3703D
:1052D0007047130A5FEADC1008BF7047F6E79CEAE4
:1052E000026F04D010EA5C0F08BF0020704710B5B1
:1052F000FFF713FF40DFF63E81F000407047FBF7F9
:10530000D6BDFBF70BBF0000000000000000002F1F
:10531000000000000700070000147F147F14002421
:105320002A7F2A120062640813230036495522504E
:1053300000000503000000001C2241000000412283
:105340001C000014083E08140008083E080800006D
:1053500000A0600000080808080800006060000065
:10536000002010080402003E5149453E0000427FE3
:105370004000004261514946002141454B3100182F
:1053800014127F10002745454539003C4A494930F1
:1053900000017109050300364949493600064949AB
:1053A000291E0000363600000000563600000008B6
:1053B0001422410000141414141400004122140893
:1053C00000020151090600324959513E007C121178
:1053D000127C007F49494936003E41414122007F0D
:1053E0004141221C007F49494941007F09090901C7
:1053F000003E4149497A007F0808087F0000417F4C
:105400004100002040413F01007F08142241007FFD
:1054100040404040007F020C027F007F0408107F64
:10542000003E4141413E007F09090906003E4151CD
:10543000215E007F0919294600464949493100018A
:10544000017F0101003F4040403F001F2040201FDE
:10545000003F4038403F00631408146300070870A1
:10546000080700615149454300007F414100005554
:105470002A552A55000041417F0000040201020420
:10548000004040404040000001020400002054540D
:105490005478007F4844443800384444442000385D
:1054A0004444487F00385454541800087E090102CF
:1054B0000018A4A4A47C007F080404780000447DA4
:1054C0004000004080847D00007F102844000000E0
:1054D000417F4000007C04180478007C08040478B4
:1054E00000384444443800FC2424241800182424A0
:1054F00018FC007C0804040800485454542000049C
:105500003F444020003C4040207C001C2040201CA8
:10551000003C4030403C004428102844001CA0A01F
:10552000A07C004464544C4414141414141400005B
:10553000000000000000000000000000000000006B
:1055400000F80000000000000033300000000010F0
:105550000C06100C0600000000000000000040C017
:105560007840C0784000043F04043F040400007009
:1055700088FC08300000001820FF211E0000F00801
:10558000F000E018000000211C031E211E0000F0A6
:105590000888700000001E212324192721101016EE
:1055A0000E000000000000000000000000000000ED
:1055B00000E018040200000000071820400000026C
:1055C0000418E000000000402018070000004040E0
:1055D00080F0804040000202010F01020200000042
:1055E00000F0000000000101011F010101000000A6
:1055F00000000000000080B070000000000000000B
:105600000000000000000001010101010101000093
:10561000000000000000003030000000000000002A
:10562000000080601804006018060100000000E01F
:1056300010080810E000000F102020100F000010CC
:1056400010F8000000000020203F20200000007023
:10565000080808887000003028242221300000301B
:105660000888884830000018202020110E00000013
:10567000C02010F8000000070424243F240000F894
:105680000888880808000019212020110E0000E079
:10569000108888180000000F112020110E0000381B
:1056A0000808C83808000000003F00000000007033
:1056B000880808887000001C222121221C0000E0BC
:1056C00010080810E0000000312222110F00000035
:1056D00000C0C000000000000030300000000000EA
:1056E000008000000000000080600000000000005A
:1056F00080402010080000010204081020004040F3
:105700004040404040000404040404040400000835
:1057100010204080000000201008040201000070EA
:1057200048080808F0000000003036010000C030D2
:10573000C828E810E0000718272423140B000000F5
:10574000C038E0000000203C23020227382008F87F
:10575000888888700000203F202020110E00C03073
:10576000080808083800071820202010080008F84A
:1057700008080810E000203F202020100F0008F843
:105780008888E8081000203F20202320180008F80F
:105790008888E8081000203F200003000000C03087
:1057A00008080838000007182020221E020008F808
:1057B00008000008F808203F210101213F200008CF
:1057C00008F8080800000020203F2020000000000A
:1057D0000808F8080800C08080807F00000008F8F2
:1057E00088C028180800203F20012638200008F82B
:1057F000080000000000203F20202020300008F892
:10580000F800F8F80800203F003F003F200008F8AB
:1058100030C00008F808203F200007183F00E010C3
:1058200008080810E0000F10202020100F0008F8D2
:1058300008080808F000203F210101010000E010E5
:1058400008080810E0000F18242438504F0008F80A
:10585000888888887000203F2000030C302000706A
:105860008808080838000038202121221C00180868
:1058700008F8080818000000203F2000000008F881
:1058800008000008F808001F202020201F000878CA
:10589000880000C83808000007380E010000F8082A
:1058A00000F80008F800033C0700073C0300081854
:1058B00068808068180820302C03032C30200838BA
:1058C000C800C83808000000203F20000000100871
:1058D0000808C838080020382621202018000000B9
:1058E00000FE020202000000007F40404000000C69
:1058F00030C000000000000000010638C0000002B7
:105900000202FE000000004040407F000000000056
:105910000402020204000000000000000000000079
:105920000000000000008080808080808080000275
:105930000204000000000000000000000000000061
:105940008080808000000019242222223F2008F855
:10595000008080000000003F112020110E00000098
:10596000008080800000000E112020201100000027
:1059700000808088F800000E112020103F200000D9
:10598000808080800000001F2222222213000080DD
:1059900080F0888888180020203F20200000000028
:1059A000808080808000006B94949493600008F85D
:1059B000008080800000203F210000203F200080E8
:1059C0009898000000000020203F202000000000E8
:1059D00000809898000000C08080807F000008F858
:1059E000000080808000203F24022D30200000082D
:1059F00008F8000000000020203F202000008080E8
:105A0000808080808000203F20003F20003F8080F9
:105A1000008080800000203F210000203F20000007
:105A2000808080800000001F202020201F008080B8
:105A300000808000000080FFA12020110E000000E7
:105A4000008080808000000E112020A0FF808080D8
:105A500080008080800020203F2120000100000085
:105A6000808080808000003324242424190000805A
:105A700080E0808000000000001F20200000808067
:105A8000000000808000001F202020103F20808028
:105A900080000080808000010E30080601008080B8
:105AA0000080008080800F300C030C300F000080DD
:105AB0008000808080000020312E0E312000808008
:105AC00080000080808080818E7018060100008038
:105AD0008080808080000021302C22213000000056
